:030000000216A63F
:0C16A600787FE4F6D8FD75810702101B68
:1000030000000000000000000000000000000000ED
:1000130000000000000000000000000000000000DD
:10002300000202FAFAAAAAFFFFAAAAFAFA02020037
:10003300004272723A7A424B5B52626213776600F5
:10004300203C1CFFFFB0B424243F3FE4E4242420DD
:10005300020203FFFF0001051D59C1FF7F010101DA
:10006300000000F8F8484C4F4B4A4848F8F80000A5
:10007300000000FFFF44444444444444FFFF0000A5
:10008300202424E4E42424243010FFFF10F0F000A3
:10009300081C1F0B0C0D4F6E341C0F23607F3F0099
:1000A30080C060F8FF070200FFFFE0703C1C0800FF
:1000B3000000007F7F0406033F7F404040787800C4
:1000C300000000000000000000000000000000002D
:1000D300000000000000000000000000000000001D
:1000E300000000000000000000000000000000000D
:1000F30000000000000000000000000000000000FD
:1001030010218670007E4A4A4A4A4A7E0000000057
:1001130002FE01407F41417F41417F41417F4000D9
:100123000000FC042424FCA5A6A4FC24242404002D
:1001330080601F808042462A12122A2642C0400055
:10014300080808FF8848009848280A2C48D808005F
:100153000242817F0000404242427E4242424000CE
:1001630000504F4A48FF48484800FC0000FF000089
:1001730000003F0101FF21613F000F40807F00002D
:1001830000908CA4A4A4A5A6A4A4A4A4948C040065
:100193000080402018070000003F404040700000EE
:1001A300000474D4FFD47404100CB744B40C0400DA
:1001B3000042437A4342437E4B4B4A4A4243010047
:1001C300080808080808F94A4C4848C808080800FD
:1001D300404020100C0300002040403F000000007E
:1001E30000202C246474ADA6E43424242C240000C1
:1001F3000024242515150DFE040D17142464240072
:10020300000000F848484C4B4A484848F8000000B2
:10021300000000FF4444444444444444FF000000BD
:10022300202424E4242424201010FF1010F00000C4
:10023300081C0B080C054E24100C0320403F000043
:10024300080808FF8848009848280A2C48D808005E
:100253000242817F0000404242427E4242424000CD
:1002630000504F4A48FF48484800FC0000FF000088
:1002730000003F0101FF21613F000F40807F00002C
:100283000807FAAAAEAAAAA8ACABAAFE0A02020001
:1002930008088B6A1E0A0A0A0AFE0A0B08080800E5
:1002A300106001C63000101010FF10101010000075
:1002B3000404FE01004161514D43414151E10100FC
:1002C3004041CE04008040BE828282BEC0404000D6
:1002D30000007F20908040432C10102C43C040002E
:1002E30020212EE4000020202020FF2020202000B9
:1002F3000000007F201008000000FF000000000045
:100303000000F848484848FF48484848F8000000BB
:1003130000000F040404043F444444444F4070006D
:1003230000000202020202E2120A0602008000003A
:10033300010101010141817F01010101010101006D
:100343000020202222E2222222E222222220200056
:10035300004020100C030000003F4040404070006C
:100363004020F80F82601E1410FF101010100000C0
:100373000000FF000101010101FF01010101010072
:10038300000000007E4848484848484848CC0800D8
:10039300000404040404040404244644201F00004D
:1003A300849494FF949480242424FC121312000058
:1003B300201806FF021C0A0202023F41414171005C
:1003C3001010D0FE509000101010D0FE101010002E
:1003D300080601FF000110080443807F00000000AD
:1003E3009088A7A2A6BAA2F8A7A2A6BAA282800062
:1003F30000040404040C340444847F040404000053
:100403000000000000000000002F000000000700B3
:10041300070000147F147F1400242A7F2A1200622D
:1004230064081323003649552250000005030000D9
:1004330000001C224100000041221C000014083E61
:1004430008140008083E0808000000A06000000827
:10045300080808080000606000000020100804027B
:10046300003E5149453E0000427F40000042615139
:100473004946002141454B31001814127F100027D3
:1004830045454539003C4A49493000017109050396
:1004930000364949493600064949291E00003636C7
:1004A300000000005636000000081422410000142A
:1004B3001414141400004122140800020151090607
:1004C30000324959513E007C1211127C007F494988
:1004D3004936003E41414122007F4141221C007FB9
:1004E30049494941007F09090901003E4149497AC7
:1004F300007F0808087F0000417F41000020404141
:100503003F01007F08142241007F40404040007FAC
:10051300020C027F007F0408107F003E4141413EF0
:10052300007F09090906003E4151215E007F091938
:1005330029460046494949310001017F0101003F35
:100543004040403F001F2040201F003F4038403FB5
:100553000063140814630007087008070061514919
:10056300454300007F41410000552A552A550000AC
:1005730041417F000004020102040040404040402A
:10058300000001020400002054545478007F4844C2
:10059300443800384444442000384444487F0038F9
:1005A3005454541800087E0901020018A4A4A47C22
:1005B300007F080404780000447D400000408084EC
:1005C3007D00007F102844000000417F4000007C34
:1005D30004180478007C0804047800384444443840
:1005E30000FC242424180018242418FC007C08048C
:1005F300040800485454542000043F444020003C65
:100603004040207C001C2040201C003C4030403CEB
:10061300004428102844001CA0A0A07C004464547B
:100623004C441414141414140000000000000000BF
:100633000000000000000000000000F800000000BF
:10064300000000333000000000100C06100C060000
:10065300000000000000000040C07840C078400067
:10066300043F04043F040400007088FC08300000C9
:10067300001820FF211E0000F008F000E018000021
:1006830000211C031E211E0000F0088870000000DA
:100693001E2123241927211010160E00000000002C
:1006A3000000000000000000000000E01804020049
:1006B300000000071820400000020418E0000000BA
:1006C3000040201807000000404080F080404000B8
:1006D3000202010F01020200000000F0000000000E
:1006E3000101011F010101000000000000000000E2
:1006F30080B0700000000000000000000000000057
:1007030000010101010101010000000000000000DF
:10071300003030000000000000000000806018047A
:10072300006018060100000000E010080810E00057
:10073300000F102020100F00001010F80000000020
:100743000020203F20200000007008080888700067
:1007530000302824222130000030088888483000E7
:100763000018202020110E000000C02010F8000007
:1007730000070424243F240000F8088888080800A0
:100783000019212020110E0000E0108888180000B5
:10079300000F112020110E0000380808C838080087
:1007A3000000003F00000000007088080888700007
:1007B300001C222121221C0000E010080810E00088
:1007C3000000312222110F00000000C0C000000011
:1007D3000000003030000000000000800000000036
:1007E300000080600000000000008040201008002E
:1007F30000010204081020004040404040404000F7
:1008030004040404040404000008102040800000D1
:100813000020100804020100007048080808F000D6
:100823000000003036010000C030C828E810E000A6
:100833000718272423140B000000C038E000000031
:10084300203C23020227382008F88888887000009B
:10085300203F202020110E00C0300808080838006F
:10086300071820202010080008F808080810E000E6
:10087300203F202020100F0008F88888E808100087
:10088300203F20202320180008F88888E80810005B
:10089300203F200003000000C03008080838000093
:1008A30007182020221E020008F808000008F80894
:1008B300203F210101213F20000808F8080800001B
:1008C3000020203F2020000000000808F80808004E
:1008D300C08080807F00000008F888C028180800C6
:1008E300203F20012638200008F8080000000000FF
:1008F300203F20202020300008F8F800F8F80800F6
:10090300203F003F003F200008F830C00008F808EF
:10091300203F200007183F00E01008080810E000FF
:100923000F10202020100F0008F808080808F00016
:10093300203F210101010000E01008080810E00039
:100943000F18242438504F0008F8888888887000CE
:10095300203F2000030C302000708808080838006E
:100963000038202121221C00180808F80808180064
:100973000000203F2000000008F808000008F808E5
:10098300001F202020201F000878880000C8380896
:10099300000007380E010000F80800F80008F8000E
:1009A300033C0700073C03000818688080681808A8
:1009B30020302C03032C30200838C800C838080026
:1009C3000000203F2000000010080808C838080075
:1009D3002038262120201800000000FE0202020019
:1009E3000000007F40404000000C30C000000000C9
:1009F300000000010638C00000020202FE000000F1
:100A0300004040407F000000000004020202040096
:100A130000000000000000000000000000000000D3
:100A230080808080808080800002020400000000BB
:100A330000000000000000000000808080800000B3
:100A43000019242222223F2008F8008080000000A1
:100A5300003F112020110E00000000808080000064
:100A6300000E112020201100000000808088F80073
:100A7300000E112020103F200000808080800000A5
:100A8300001F222222221300008080F08888881809
:100A93000020203F20200000000080808080800014
:100AA300006B94949493600008F8008080800000A9
:100AB300203F210000203F20008098980000000084
:100AC3000020203F202000000000008098980000B4
:100AD30000C08080807F000008F8000080808000D4
:100AE300203F24022D302000000808F800000000F9
:100AF3000020203F202000008080808080808000B4
:100B0300203F20003F20003F808000808080000045
:100B1300203F210000203F200000808080800000D3
:100B2300001F202020201F00808000808000000004
:100B330080FFA12020110E00000000808080800033
:100B4300000E112020A0FF80808080008080800024
:100B530020203F2120000100000080808080800051
:100B63000033242424241900008080E080800000C6
:100B73000000001F20200000808000000080800013
:100B8300001F202020103F20808080000080808074
:100B930000010E3008060100808000800080808004
:100BA3000F300C030C300F00008080008080800029
:100BB3000020312E0E312000808080000080808054
:100BC30080818E7018060100008080808080800004
:100BD3000021302C2221300000000000807C020222
:100BE30000000000003F404000000000FF00000044
:100BF30000000000FF0000000002027C80000000F3
:100C03000040403F0000000000060101020204040E
:100C130000000000000000000003050911FF118916
:100C230005C300E000F000F80000000000000044ED
:100C330028FF11AA4400000000000000000000008B
:100C430000000000000000000000000000000000A1
:100C53000000000000000000000000000000000091
:100C63000000000000000000000000000000000081
:100C730000008301384482929274018300000000D3
:100C83000000007C44C7017D7D7D7D017D7D7D7DF0
:100C9300017D7D7D7D01FF0000000000000100015A
:100CA300000100010001000100000000000000003D
:100CB300000101000000000000000000000000002F
:100CC3000000000000000000000000000000000021
:100CD3000000000000000000000000000000000011
:100CE3000000000000000000000000000000000001
:100CF30000000101000000000000010100000000ED
:100D030000000000000101010101010101010101D5
:100D130001010101010101000000000000000000C9
:100D230000404040404000006D6D6D6D6D000060FF
:100D330060606060000040404040400000000000F0
:100D430000000000000000000000000000000000A0
:100D53000000000000000000000000000000000090
:100D63000000000000000000000000000000000080
:100D73000000000000000000000000000000000070
:100D83000000000000000000000000000000000060
:100D93000000000000000000000000000000000050
:100DA30000DBDBDBDBDB0000DBDBDBDBDB0000DBD7
:100DB300DBDBDBDB0000DBDBDBDBDB0000DADADAEF
:100DC300DADA0000D8D8D8D8D80000C0C0C0C0C074
:100DD3000000C0C0C0C0C00000C0C0C0C0C0000090
:100DE300C0C0C0C0C00000808080808000000000C0
:100DF30000000000000000000000000000000000F0
:100E030000000000000000000000000000000000DF
:100E130000000000000000000000000000000000CF
:100E2300000606060606000006060606060000067D
:100E33000606060600000606060606000006060667
:100E4300E6662000060686060600000606060686F7
:100E530000000606060606000086868686868080D3
:100E63008686068686C0C08686860606D0307606C7
:100E73000606060000060606060600000606060627
:100E8300060000060606060600000606060606001D
:100E9300000000000000000000000000000000004F
:100EA300000000000000000000000000000000003F
:100EB300000000000000000000000000000000002F
:100EC3000000601C00FE00010200C41820029E63A3
:100ED300B20E00FF8181FF00008040300F00000050
:100EE30000FF0023EAAABFAAEA033F00FF000000B5
:100EF30000000000000000000000000000000000EF
:100F030000000000000000000000000000000000DE
:100F1300000000000000000000000080808000004E
:100F2300000000808080000000000000000000003E
:100F330000000000000000000000000000000000AE
:100F43000E0C080000010101010100000001000076
:100F53000001008180808180818080808001010187
:100F6300010000000100000001000101090C0E0056
:100F7300000000000000000000000000000000006E
:100F8300C0C0C0C0C0C0C0C0C0C0C0C0C0C0C0C05E
:100F9300C0C0C0C0C0C0C000001E21404050215E80
:100FA300001E21404050215E0000000000000000B0
:100FB300000000000000000000000000000000002E
:100FC300000000000000000000000000000000001E
:100FD300000000FFFFC1C1FFFFC1C1FFFF00000010
:100FE30000000000000000000000000000000000FE
:100FF30000000000000000000000000000000000EE
:10100300FFFF80FCF3EFF3FC80FF80EEEEEEF5FBD9
:08101300FF9CBEB6B688FF0089
:10153C0048656C546563004F4C4544204469737096
:10154C006C6179007777772E68656C7465632E63B0
:10155C006E00636E2E68656C74656340676D6169BF
:10156C006C2E636F6D0068656C7465632E74616FAF
:08157C0062616F2E636F6D00C8
:10101B001216C47B017A00E4FDFC7F181214DB7BF3
:10102B00027A00E4FDFC7F281214DB7B037A00E4D8
:10103B00FDFC7F391214DB7B047A00E4FDFC7F4A54
:10104B001214DB7B057A00E4FDFC7F5B1214DBE4FE
:10105B00900000F0900000E0FD7C00C394087480C9
:10106B0094805047E0C454F0FFED2408FBEC33FAB6
:10107B007D021214DB900000E0FEC454F0FFEE245E
:10108B0010FBE433FA7D047C001214DB900000E0CB
:10109B00FEC454F0FFEE2418FBE433FA7D067C000B
:1010AB001214DB900000E004F080A97FA07E0F12E9
:1010BB00164E1215DD7BFF7A15793CE4FDFCFF1211
:1010CB00113D7BFF7A1579437D027C00E4FF121101
:1010DB003D7BFF7A1579507D047C00E4FF12113DB6
:1010EB007BFF7A15795E7D067C00E4FF1214427B50
:1010FB00FF7A1579727D077C00E4FF1214427FA002
:10110B007E0F12164E1215DD900006E4F0A3740844
:10111B00F0A374FFF0A3740CF0A3741BF07B807A24
:10112B0000E4FDFCFF1212E07F407E1F12164E0200
:02113B00101E84
:0916B200D2C1D2A2C2A2C2C1221F
:0916BB00C2C1C2A2D2C1D2A22216
:07158400AD071216B27F78DB
:10158B00E4FEEEC39408748094805015EF30E704AA
:10159B00D2A28002C2A2D2C1C2C1EF25E0FF0E804F
:0715AB00E1D2A2D2C1C2C1CE
:0115B2002216
:0D166C0074032BF58274003AF583E493FFBC
:101679001215847F4012158BAF0512158B0216BB0C
:0D16890024B0FF1216967F011216967F10F6
:10169600121584E4FF12158BAF0512158B0216BBCB
:06162A00E0FFA3A3E0FDB8
:10163000AC07ED24B0FF121696EC54F0C4540F44DE
:0E16400010FF121696EC540F4401FF0216968E
:0215B300AC0783
:1015B500E4FBEBC3940874809480501BEB121689EE
:1015C500E4FAEAC39480748094805008AF0412163C
:0715D500790A80EE0B80DBB8
:0115DC0022EC
:1015DD00E4FCECC3940874809480501BEC121689C3
:1015ED00E4FBEBC39480748094805008E4FF1216E2
:0715FD00790B80EE0C80DB8E
:0116040022C3
:1013A9007FF47E0112164E7FAE121696E4FF1216D6
:1013B900917F401216967F811216967FCF1216964C
:1013C9007FA11216967FC81216967FA61216967FCF
:1013D900A81216967F3F1216967FD3121696E4FF2F
:1013E9001216967FD51216967F801216967FD912FD
:1013F90016967FF11216967FDA1216967F1212163A
:10140900967FDB1216967F401216967F201216964B
:101419007F021216967F8D1216967F141216967FEA
:10142900A41216967FA61216967FAF121696E4FF9F
:091439001215B3E4FDFF021630A8
:10144200900001EFF0A3ECF0A3EDF0A3EBF0A3EA20
:04145200F0A3E9F02A
:10145600E4A3F0FCA3F0900004E0FBA3E0FAA3E011
:10146600F9900008E0F58275830012121260652477
:10147600E0900007F0900001E0D3947E74809480A1
:101486004010E4F0900003E004F07006900002E0E3
:1014960004F090000112162AE4FCECC39406748052
:1014A60094805020900007E075F006A42403F5828E
:1014B600E5F03404F583E5822CF582E435831216D3
:1014C600740C80D6900001E02406F0900008E00439
:0414D600F002145CB0
:0114DA0022EF
:10113D00900001EFF0A3ECF0A3EDF0A3EBF0A3EA28
:04114D00F0A3E9F032
:10115100E4A3F0FCA3F0900004E0FBA3E0FAA3E019
:10116100F9900008E0F582758300121212700302F3
:10117100121124E0900007F0900001E0D3947874FC
:101181008094804010E4F0900003E004F070069039
:101191000002E004F090000112162AE4FCECC39472
:1011A10008748094805020900007E075F010A42C02
:1011B100F582E435F0F583E582242BF582E583346D
:1011C100061216740C80D6900001E0FFA3A3E00480
:1011D100FD121630E4FCECC3940874809480502016
:1011E100900007E075F010A42CF582E435F0F5834A
:1011F100E5822433F582E58334061216740C80D619
:10120100900001E02408F0900008E004F00211577A
:0112110022BA
:0A14DB00900001ECF0A3EDF0A9076A
:1014E500E4FCAE02EB7805C333CE33CED8F9FBAAC4
:1014F50006AF01900001A3E0FD121630E4FCECC339
:10150500941074809480500B12166C0BBB00010A6A
:101515000C80EBAF01900001A3E004FD121630E44E
:10152500FCECC3941074809480500B12166C0BBBAA
:0615350000010A0C80EB2E
:01153B00228D
:1012E000900001EFF0A3ECF0A3EDF0A3EAF0A3EB84
:0112F000F00D
:1012F100E490000BF0A3F0900006E0FAA3E0FB7C81
:10130100007D08FFAE0212123FED4C7011FC7D080A
:10131100AF03AE0212123F90000EEFF08015900065
:1013210006E0FEA3E0FF7C007D0812123FEF04906F
:10133100000EF0900002A3E090000EF090000EE08D
:10134100FDFFD3900007E09F7480F8900006E064F1
:1013510080984053900001E0FF121630E090000D9C
:10136100F090000DE0FFD3900005E09F7480F890AD
:101371000004E06480984027900008E0FBA3E0FAB5
:10138100A3E0F9A3E475F00112127585F082F583EB
:10139100121212FF12167990000DE004F080C29033
:0713A100000EE004F080954E
:0113A8002222
:0616C4001216050213A935
:101605007593007594007591007592007595007538
:10161500960075B10075B20075B30075B40075C953
:051625000075CA00225F
:10164E00D3EF9400EE940040147D6E7C00ED1D707F
:0D165E00011CED4C70F7EF1F70E61E80E3DD
:01166B00225C
:10121200BB010CE58229F582E5833AF583E0225091
:1012220006E92582F8E622BBFE06E92582F8E222DB
:0D123200E58229F582E5833AF583E49322F5
:10123F00C2D5EC30E709B2D5E4C39DFDE49CFCEECA
:10124F0030E715B2D5E4C39FFFE49EFE12128BC3A5
:10125F00E49DFDE49CFC800312128B30D507C3E4A0
:06126F009FFFE49EFE2239
:10127500A3F8E0C5F025F0F0E5821582700215832C
:06128500E0C838F0E82289
:10128B00BC000BBE0029EF8DF084FFADF022E4CC47
:10129B00F875F008EF2FFFEE33FEEC33FCEE9DEC10
:1012AB00984005FCEE9DFE0FD5F0E9E4CEFD22ED56
:1012BB00F8F5F0EE8420D21CFEADF075F008EF2FA0
:1012CB00FFED33FD4007985006D5F0F222C398FD91
:0512DB000FD5F0EA222E
:00000001FF
