:030000000204FEF9
:0C04FE00787FE4F6D8FD758107020368E2
:100003000000000000000000002F000000000700B7
:10001300070000147F147F1400242A7F2A12006231
:1000230064081323003649552250000005030000DD
:1000330000001C224100000041221C000014083E65
:1000430008140008083E0808000000A0600000082B
:10005300080808080000606000000020100804027F
:10006300003E5149453E0000427F4000004261513D
:100073004946002141454B31001814127F100027D7
:1000830045454539003C4A4949300001710905039A
:1000930000364949493600064949291E00003636CB
:1000A300000000005636000000081422410000142E
:1000B300141414140000412214080002015109060B
:1000C30000324959513E007C1211127C007F49498C
:1000D3004936003E41414122007F4141221C007FBD
:1000E30049494941007F09090901003E4149497ACB
:1000F300007F0808087F0000417F41000020404145
:100103003F01007F08142241007F40404040007FB0
:10011300020C027F007F0408107F003E4141413EF4
:10012300007F09090906003E4151215E007F09193C
:1001330029460046494949310001017F0101003F39
:100143004040403F001F2040201F003F4038403FB9
:10015300006314081463000708700807006151491D
:10016300454300007F41410000552A552A550000B0
:1001730041417F000004020102040040404040402E
:10018300000001020400002054545478007F4844C6
:10019300443800384444442000384444487F0038FD
:1001A3005454541800087E0901020018A4A4A47C26
:1001B300007F080404780000447D400000408084F0
:1001C3007D00007F102844000000417F4000007C38
:1001D30004180478007C0804047800384444443844
:1001E30000FC242424180018242418FC007C080490
:1001F300040800485454542000043F444020003C69
:100203004040207C001C2040201C003C4030403CEF
:10021300004428102844001CA0A0A07C004464547F
:080223004C44141414141414CB
:10044A00636E2E68656C74656340676D61696C2EB6
:10045A00636F6D0068656C7465632E74616F6261A9
:06046A006F2E636F6D00B0
:1003680012051C7BFF7A04794A7D077C00E4FF12A2
:10037800022B7BFF7A04795E7D087C00E4FF120281
:100388002B7FA07E0F1204B31204227FA07E0F12CF
:0403980004B380CF5B
:09050A00D2C1D2A2C2A2C2C122D8
:09051300C2C1C2A2D2C1D2A222CF
:07039C00AD0712050A7F788E
:1003A300E4FEEEC39408748094805015EF30E704A4
:1003B300D2A28002C2A2D2C1C2C1EF25E0FF0E8049
:0703C300E1D2A2D2C1C2C1C8
:0103CA002210
:1004EE0012039C7F401203A3AF051203A302051350
:0D04D10024B0FF1204DE7F011204DE7F1054
:1004DE0012039CE4FF1203A3AF051203A30205133C
:10049500AC07ED24B0FF1204DEEC54F0C4540F4455
:0E04A50010FF1204DEEC540F4401FF0204DECF
:0203F800AC0750
:1003FA00E4FBEBC3940874809480501BEB1204D185
:10040A00E4FAEAC39480748094805008AF0412041A
:07041A00EE0A80EE0B80DB0F
:0104210022B8
:10042200E4FCECC3940874809480501BEC1204D159
:10043200E4FBEBC39480748094805008E4FF1204C0
:07044200EE0B80EE0C80DBE5
:010449002290
:1002CF007FF47E011204B37FAE1204DEE4FF12044A
:1002DF00D97F401204DE7F811204DE7FCF1204DE4D
:1002EF007FA11204DE7FC81204DE7FA61204DE7F18
:1002FF00A81204DE7F3F1204DE7FD31204DEE4FF78
:10030F001204DE7FD51204DE7F801204DE7FD91245
:10031F0004DE7FF11204DE7FDA1204DE7F12120494
:10032F00DE7FDB1204DE7F401204DE7F201204DE4C
:10033F007F021204DE7F8D1204DE7F141204DE7F33
:10034F00A41204DE7FA61204DE7FAF1204DEE4FFE8
:09035F001203F8E4FDFF0204950D
:10022B00900000EFF0A3ECF0A3EDF0A3EBF0A3EA4A
:04023B00F0A3E9F053
:10023F00E4A3F0FCA3F0900003E0FBA3E0FAA3E03B
:10024F00F9900007E0F5827583001203CB607024EC
:10025F00E0900006F0900000E0D3947E74809480CC
:10026F004010E4F0900002E004F07006900001E00E
:10027F0004F0900000E0FFA3A3E0FD120495E4FC5E
:10028F00ECC39406748094805025900006E075F0BE
:10029F0006A42403F582E5F03400F583E5822CF5FE
:1002AF0082E43583F583E493FF1204EE0C80D19042
:0F02BF000000E02406F0900007E004F002024582
:0102CE00220D
:06051C001204700202CF80
:1004700075930075940075910075920075950075DF
:10048000960075B10075B20075B30075B40075C9FA
:050490000075CA002206
:1004B300D3EF9400EE940040147D6E7C00ED1D702C
:0D04C300011CED4C70F7EF1F70E61E80E38A
:0104D0002209
:1003CB00BB010CE58229F582E5833AF583E02250E7
:1003DB0006E92582F8E622BBFE06E92582F8E22231
:0D03EB00E58229F582E5833AF583E493224B
:00000001FF
