:0300000002141CCB
:0C141C00787FE4F6D8FD7581200214638F
:1018EF00759300759400759100759200759500754C
:1018FF00960075B10075B20075B30075B40075C967
:05190F000075CA002272
:10030E000000000000000000002F000000000700A9
:10031E00070000147F147F1400242A7F2A12006223
:10032E0064081323003649552250000005030000CF
:10033E0000001C224100000041221C000014083E57
:10034E0008140008083E0808000000A0600000081D
:10035E000808080800006060000000201008040271
:10036E00003E5149453E0000427F4000004261512F
:10037E004946002141454B31001814127F100027C9
:10038E0045454539003C4A4949300001710905038C
:10039E0000364949493600064949291E00003636BD
:1003AE000000000056360000000814224100001420
:1003BE0014141414000041221408000201510906FD
:1003CE0000324959513E007C1211127C007F49497E
:1003DE004936003E41414122007F4141221C007FAF
:1003EE0049494941007F09090901003E4149497ABD
:1003FE00007F0808087F0000417F41000020404137
:10040E003F01007F08142241007F40404040007FA2
:10041E00020C027F007F0408107F003E4141413EE6
:10042E00007F09090906003E4151215E007F09192E
:10043E0029460046494949310001017F0101003F2B
:10044E004040403F001F2040201F003F4038403FAB
:10045E00006314081463000708700807006151490F
:10046E00454300007F41410000552A552A550000A2
:10047E0041417F0000040201020400404040404020
:10048E00000001020400002054545478007F4844B8
:10049E00443800384444442000384444487F0038EF
:1004AE005454541800087E0901020018A4A4A47C18
:1004BE00007F080404780000447D400000408084E2
:1004CE007D00007F102844000000417F4000007C2A
:1004DE0004180478007C0804047800384444443836
:1004EE0000FC242424180018242418FC007C080482
:1004FE00040800485454542000043F444020003C5B
:10050E004040207C001C2040201C003C4030403CE1
:10051E00004428102844001CA0A0A07C0044645471
:08052E004C44141414141414BD
:091A4F00D2C1D2A2C2A2C2C1227E
:091A5800C2C1C2A2D2C1D2A22275
:07006600AD07121A4F7F786D
:10006D00E4FEEEC39408748094805015EF30E704DD
:10007D00D2A28002C2A2D2C1C2C1EF25E0FF0E8082
:07008D00E1D2A2D2C1C2C101
:010094002249
:101A35001200667F4012006DAF0512006D021A5844
:0E191400EC24B0FF1219227F011219227F105D
:10192200120066E4FF12006DAF0512006D021A5834
:10193200AC07ED24B0FF121922EC54F0C4540F444A
:0E19420010FF121922EC540F4401FF0219226B
:02184C00AC07E7
:10184E00E4FBEBC3940874809480501BEB121915C3
:10185E00E4FAEAC39480748094805008AF04121A9C
:07186E00350A80EE0B80DB60
:011875002250
:1018C800E4FCECC3940874809480501A121914E450
:1018D800FBEBC39480748094805008E4FF121A359F
:0618E8000B80EE0C80DC19
:0118EE0022D7
:0A170300900005EAF0A3EBF0A9073F
:10170D00AF05AC07ECFFC3900008E09F7480F89024
:10171D000007E06480984024121914AB01EBFFD34D
:10172D00900006E09F7480F8900005E0648098407A
:0C173D0008E4FF121A350B80E40C80C891
:01174900227D
:101383007FF47E011219507FAE121922E4FF121965
:101393001D7F401219227F811219227FCF12192239
:1013A3007FA11219227FC81219227FA61219227F48
:1013B300A81219227F3F1219227FD3121922E4FFA8
:1013C3001219227FD51219227F801219227FD91276
:1013D30019227FF11219227FDA1219227F121219B0
:1013E300227FDB1219227F401219227F2012192239
:1013F3007F021219227F8D1219227F141219227F64
:10140300A41219227FA61219227FAF121922E4FF18
:0914130012184CE4FDFF0219322D
:10124500900002EFF0A3ECF0A3EDF0A3EBF0A3EA1E
:04125500F0A3E9F029
:10125900E4A3F0FCA3F0900005E0FBA3E0FAA3E00F
:10126900F9900009E0F582758300120A6060702424
:10127900E0900008F0900002E0D3947E748094809E
:101289004010E4F0900004E004F07006900003E0E0
:1012990004F0900002E0FFA3A3E0FD121932E4FC80
:1012A900ECC39406748094805025900008E075F092
:1012B90006A4240EF582E5F03403F583E5822CF5C6
:1012C90082E43583F583E493FF121A350C80D190BB
:0F12D9000002E02406F0900009E004F002125F2A
:0112E80022E3
:0A1A45007F021216647F020219DA14
:10002600AD07AC06538EEF538EF7438E04ECF5D630
:0B003600AF058FD753AFFB438E1022A5
:10166400EF6402700C438E017FE07EFE1200268040
:101674001BC28E538EFE438E405389BF5389CF7550
:101684008DFE758BE0C2AB538FFDD28EE598543F2F
:101694004440F598D2ACD29C53A23F7E017F007D9A
:1016A400007B017A027920120AF9C200E490032037
:0216B400F02222
:1019DA00EF640270077FE07EFE120026539A7F436F
:0919EA00AF01439A1053BAFE222A
:10174A0090000BEBF0A3EAF0A3E9F0A3ECF0A3ED11
:01175A00F09E
:10175B00E4FFFED390000FE09F90000EE09E402030
:10176B00D20090000BE0FBA3E0FAA3E0F98F828E8E
:10177B0083120A60F5992000FD0FBF00010E80D384
:01178B00223B
:10178C00900111EBF0A3EAF0A3E9F0A3ECF0A3EDC8
:01179C00F05C
:10179D00E4FFFED3900115E09F900114E09E4020E0
:1017AD00D201900111E0FBA3E0FAA3E0F98F828E44
:1017BD0083120A60F59B2001FD0FBF00010E80D33F
:0117CD0022F9
:03002300021810B0
:10181000C0E0C083C082C0D0309821C2989003201D
:10182000E02420F582E43402F583E599F09003206A
:10183000E004F0C3748094814002E4F0309904C263
:0C18400099C200D0D0D082D083D0E0321A
:030043000219F3AC
:1019F300C0E0E59A54016003539AFEE59A540260ED
:091A030005539AFDC201D0E03246
:101191004203A700004203A900004203AB00004242
:0911A10003AD00004203AF0000A1
:1000A600AD07EDD394047480948040037F0122ED64
:1000B600600302013A120A47FED3940374809480C7
:1000C60040037F0222C28CC2A9C2B95389F0538E63
:1000D6007F538FFE900002120A6064017002D2A95B
:1000E600900001120A6064017002D2B9EE42899052
:1000F6000003120A60FF7E007003438E80EF6402E5
:100106004E7003438904900004120A606401700370
:10011600438F01900005120AC1E5F0F58C900005A9
:10012600120AC1F58A900007120A6064017002D2B1
:100136008C7F0022ED640160030201C4120A47FEAF
:10014600C394037480948040037F0222C28EC2ABA4
:10015600C2BB53890F538EBF538FFD900002120A04
:100166006064017002D2AB900001120A60640170F3
:1001760002D2BBEEC454F04289900003120A60FF1B
:100186007E007003438E40EF64024E700343894045
:10019600900004120A6064017003438F0290000508
:1001A600120AC1E5F0F58D900005120AC1F58B9093
:1001B6000007120A6064017002D28E7F0022ED648D
:1001C60002706A900003120A60FED394027480944F
:1001D6008040037F0222538EE353AFFB538FFB9085
:1001E6000002120A606401700343AF04EEFF7E0052
:1001F6007003438E04EF64024E7003438E08900032
:1002060004120A6064017003438F04900005120A09
:10021600C1E5F0F5D6900005120AC1F5D7900007A2
:10022600120A6064017003438E107F0022ED64039E
:100236007067900003120A60FED394027480948063
:1002460040037F022253D1F053AFDF900002120A1F
:10025600606401700343AF20EEFF7E00700343D15C
:1002660002EF64024E700343D106900004120A6046
:100276006401700343D101900005120AC1E5F0F54F
:10028600D4900005120AC1F5D5900007120A6064E1
:1002960001700343D1087F0022ED6404706790006B
:1002A60003120A60FD7C00D394027480948040039C
:1002B6007F022253D10F53AFBF900002120A60642F
:1002C60001700343AF40ED4C700343D1209000030F
:1002D600120A606402700343D160900004120A603F
:1002E6006401700343D110900005120AC1FDACF001
:1002F600ECF5D28DD3900007120A606401700343B7
:08030600D1807F00227F02225A
:10187600E4900000F0A3F0A304F0E4A3F0A3F0A327
:101886007428F0A3E4F0A3F07B017A007900FF123C
:0918960000A6E49003A7F0A3F002
:01189F002226
:03000B00020046AA
:10004600C0E0C083C0829003A8E004F0700690036D
:0B005600A7E004F0D082D083D0E0329D
:03001B0002196E59
:10196E00C0E0C083C0829003AAE004F0700690032A
:0B197E00A9E004F0D082D083D0E0325A
:03006300021989F6
:10198900C0E0C083C0829003ACE004F0700690030D
:0B199900ABE004F0D082D083D0E0323D
:03009B000219A4A3
:1019A400C0E0C083C0829003AEE004F070069003F0
:0B19B400ADE004F0D082D083D0E03220
:0300A3000219BF80
:1019BF00C0E0C083C0829003B0E004F070069003D3
:0B19CF00AFE004F0D082D083D0E03203
:1015BA00436F6E66696775726520576966693A5343
:1015CA006F667400436F6E66696775726520576946
:1015DA0066693A41500052657365742057696669B5
:1015EA002100456E7465722062696E6461626C6581
:1015FA00206D6F646521005265737461727420579F
:05160A00696669210082
:0411AA004103B1004C
:10074F001216B6EF70030209509003217401F09056
:10075F000225E09003B1F0900224E024FD604524CF
:10076F00FC700302084D24FA700302087F24FE7008
:10077F00030208FD24FE7003020920241060030207
:10078F00094D7B017A037933E4900006F09003B1B1
:10079F00E0FF900007E4F0A3EFF0E4A3F0A3F07DF7
:1007AF007302091D900228E0640170627B017A02D6
:1007BF0079201215647B017A037923900006740463
:1007CF00F09003B1E0FF900007E4F0A3EFF0E4A393
:1007DF00F0A3F07D09FC120E9D9003B1E004F07BB5
:1007EF00017A0379239000067405F09003B1E0FFBE
:1007FF00900007E4F0A3EFF0A3E4F0A37404F07DFE
:10080F000E7C00120E9D900229E0FF120FF5900250
:10081F0028E06402600302094D7B017A037923907B
:10082F0000067404F09003B1E0FF900007E4F0A31A
:10083F00EFF0A3E4F0A37403F07D0E020948C28C1D
:10084F00E49003A7F0A3F07B017A037923900006CD
:10085F007408F09003B1E0FF900007E4F0A3EFF00D
:10086F00E4A3F0A3F07D09FC120E9DD28C02094D7A
:10087F00E49003A6F0900322F0900224E0FF900290
:10088F0028E0FDA3E0FB1210D4900228E0FF7E00C9
:10089F00C3748094804010D3EF9407748094805079
:1008AF00069003227401F0C3EF9408EE64809480E5
:1008BF004015D3EF940FEE64809480500A9003227A
:1008CF007401F09003A6F0E4FF120FF57B017A0399
:1008DF007923900006740EF09003B1E0FF900007AB
:1008EF00E4F0A3EFF0E4A3F0A3F07D0980207B01F7
:1008FF007A0379239000067410F09003B1E0FF9013
:10090F000007E4F0A3EFF0E4A3F0A3F07D09FC806F
:10091F002A7B017A0379239000067412F09003B1B9
:10092F00E0FF900007E4F0A3EFF0900228E0FF90C3
:10093F000009E4F0A3EFF07D0A7C00120E9D121A5D
:02094F000C2278
:100B2500E4900000F020A30F7F0AFE12195020A3C5
:100B3500069000007401F020A4107F0A7E001219AF
:100B45005020A4069000007402F020A5107F0A7EB4
:100B55000012195020A5069000007403F020A01083
:100B65007F0A7E0012195020A0069000007404F040
:100B750020A6107F0A7E0012195020A606900000BC
:100B85007405F0900000E0FF7003020CEE90032165
:100B9500E064016003020CEED3EF94057480948049
:100BA5005016900007E4F0A37408F07B807A007D6E
:100BB500027C00E4FF1217039003B1E0600204F029
:100BC500900000E024FE6045146078147003020C68
:100BD5007A147003020CAC24046003020CDF7BFF63
:100BE5007A1579BA7D027C007F021212457B017A63
:100BF5000379239000067409F09003B1E0FF90009B
:100C050007E4F0A3EFF0A3E4F0A304802E7BFF7AC2
:100C15001579CE7D027C007F021212457B017A0395
:100C250079239000067409F09003B1E0FF90000766
:100C3500E4F0A3EFF0A3E4F0A37402F07D0A7C00D6
:100C4500020CDC7BFF7A1579E07D027C007F0212C5
:100C550012457B017A037923900006740BF090030B
:100C6500B1E0FF900007E4F0A3EFF0E4A3F0A3F0F8
:100C75007D09FC80627BFF7A1579EC7D027C007F23
:100C8500021212457B017A0379239000067415F050
:100C95009003B1E0FF900007E4F0A3EFF0E4A3F0C8
:100CA500A3F07D09FC80307BFF7A1679017D027CFB
:100CB500007F021212457B017A03792390000674A6
:100CC50029F09003B1E0FF900007E4F0A3EFF0E412
:100CD500A3F0A3F07D09FC120E9D30A3FD30A4FA0C
:090CE50030A5F730A0F430A6F1AF
:010CEE0022E3
:101A210057656C636F6D652044656D6F20537973E5
:041A310074656D006B
:1018A0001218EF1213831218C8121A45121876C2B2
:1018B00094C295C296C2977BFF7A1A7921E4FDFC07
:0818C0007F08121245D2AF228D
:0B000E001218A012074F120B2580F8FB
:10156400900009120A6024FE601C24FE602824FCFA
:1015740060342407703F90000A120A60640170030B
:10158400D29422C2942290000A120A606402700368
:10159400D29522C2952290000A120A606404700354
:1015A400D29622C2962290000A120A60640870033E
:0615B400D29722C297222B
:1005360057696669206C6F7373210052583A0054EC
:10054600583A000D0A0000000000000000000000FC
:100556000000000000000000000000000000000095
:100566000000000000000000000000000000000085
:100576000000000000000000000000000000000075
:100586000000000000000000000000000000000065
:100596000000000000000000000000000000000055
:1005A6000000000000000000000000000000000045
:1005B6000000000000000000000000000000000035
:1005C6000000000000000000000000000000000025
:1005D6000000000000000000000000000000000015
:1005E6000000000000000000000000000000000005
:1005F60000000000000000000000000000000000F5
:1006060000000000000000000000000000000000E4
:1006160000000000000000000000000000000000D4
:1006260000000000000000000000000000000000C4
:1006360000000000000000000000000000000000B4
:1006460000000000000000000000000000000000A4
:100656000000000000000000000000000000000094
:100666000000000000000000000000000000000084
:100676000000000000000000000000000000000074
:100686000000000000000000000000000000000064
:100696000000000000000000000000000000000054
:1006A6000000000000000000000000000000000044
:1006B6000000000000000000000000000000000034
:1006C6000000000000000000000000000000000024
:1006D6000000000000000000000000000000000014
:1006E6000000000000000000000000000000000004
:1006F60000000000000000000000000000000000F4
:1007060000000000000000000000000000000000E3
:1007160000000000000000000000000000000000D3
:1007260000000000000000000000000000000000C3
:1007360000000000000000000000000000000000B3
:09074600000000000000000000AA
:10195000D3EF9400EE940040147D6E7C00ED1D707A
:0D196000011CED4C70F7EF1F70E61E80E3D8
:01196D002257
:101A0C00E4900320F07E01FFFD7B017A0279201225
:051A1C000AF9D29C2232
:1016B600E4900000F0900320E0FFD394007480943F
:1016C60080403120002EC29C7B017A027920900056
:1016D6000FE4F0A3EFF0E4FF1212E97B017A02793E
:1016E60020900320E0FD7C001217CE900000EFF062
:0C16F60070058000121A0C900000E0FF4C
:0117020022C4
:0B160F0090000BEBF0A3EAF0A3E9F061
:10161A00E4A3F0FEAF05A3ECF0A3EFF07F02900085
:10162A0010E024FFFD90000FE034FFFCC3EF9DEEB5
:10163A009C502090000BE0FBA3E0FAA3E0F98F8214
:10164A008E83120A60FD90000EE02DF00FBF00019C
:09165A000E80CB90000EE0F0FFC1
:011663002264
:0B17CE00900001EBF0A3EAF0A3E9F0AB
:1017D900E4A3F0900001E0FBA3E0FAA3E0F974FFB1
:1017E9002DF58274FF3CF583120A60900005F0E440
:1017F900FF12160F900005E0B5070690000474016A
:06180900F0900004E0FF76
:01180F0022B6
:100E9D00900001EBF0A3EAF0A3E9F0A3ECF0A3EDD1
:100EAD00F064734C7003020F99900004E0FEA3E010
:100EBD00FFEE6003020F53EF24F6602014602F1431
:100ECD00603E24FE604C2405707C900001E0FBA385
:100EDD00E0FAA3E0F990000374058067900001E04B
:100EED00FBA3E0FAA3E0F99000037406805590008F
:100EFD0001E0FBA3E0FAA3E0F9900003740780433F
:100F0D00900001E0FBA3E0FAA3E0F9900003740860
:100F1D008031900001E0FBA3E0FAA3E0F99000031B
:100F2D00740A120A8DE590C4540F900009120A8DAF
:100F3D0090000A7401120A8D90000BE4120A8D9034
:100F4D00000CE4120A8D900006E0FF900001E0FB1A
:100F5D00A3E0FAA3E0F9900004EF120A8D900007C8
:100F6D00A3E0900005120A8D900004E07004A3E048
:100F7D0064096018900009A3E0FF900001E0FBA355
:100F8D00E0FAA3E0F9900008EF120A8D900001E05D
:100F9D00FBA3E0FAA3E0F9A3E0FCA3E0FD12160F1A
:100FAD00900001E0FBA3E0FAA3E0F9900005E02436
:100FBD00FFFD900004E034FF8D82F583EF120A8D62
:100FCD00900004E0FCA3E0FD12174A900001E0FB45
:100FDD00A3E0FAA3E0F9A3E0FFA3E090000FCFF0A8
:080FED00A3EFF07F010212E9FD
:10150800900321E06401700C9003A7E07002A3E04F
:101518007002D28CC39003A8E094E09003A7E06423
:101528008094AE4036C28CE4F0A3F0900321F09092
:101538000322F09003A6F0900007F0A37408F07B54
:10154800807A007D027C00E4FF1217037BFF7A0596
:0C15580079367D047C007F2412124522AD
:0E12E90090000BEFF0A3EBF0A3EAF0A3E9F006
:1012F70078117C007D017BFF7A05794C7E017F00A8
:10130700120A2190000BE014600B0470157BFF7A22
:1013170005794180067BFF7A0579457D037C0012BC
:10132700178C90000CE0F9A3E0FAA3E0900114C930
:10133700F0A3EAF0A3E9F090000FE0FFA3E090012B
:1013470017CFF0A3EFF07B017A007911120CEF9021
:10135700000FE0FEA3E0FF7C007D03120AAFEF243D
:10136700FFFDEE34FFFC7B017A00791112178C7BAD
:0C137700FF7A0579497D027C0002178C8A
:0B0CEF00900111EBF0A3EAF0A3E9F084
:100CFA0078197C017D017BFF7A06794C7E007F039F
:100D0A00120A21781C7C017D017BFF7A06794F7ECD
:100D1A00017F00120A21E490021CF0A3F0A3F0A3C1
:100D2A00F090021CF0A3F0900117E0FEA3E0FF9000
:100D3A00021CE0FCA3E0FDC39FEC9E4003020E757B
:100D4A00900114E0FBA3E0FAA3E0F98D828C8312F0
:100D5A000A60FDC4540F900119F0ED540FA3F0E49A
:100D6A0090021EF0A3F090021EE0FEA3E0FFC394DF
:100D7A0002EE648094804003020E1474192FF582E7
:100D8A0074013EF583E0FFC374809480401FEF94A2
:100D9A000A74809480501690021EE0FEA3E0241983
:100DAA00F58274013EF583E02430F0804C90021EF7
:100DBA00E0FEA3E02419F58274013EF583E0FFC347
:100DCA00940A748094805003020E9CD3EF940F749B
:100DDA008094804003020E9C90021EE0FEA3E0FF76
:100DEA002419F58274013EF583E02437FD74192F26
:100DFA00F58274013EF583EDF090021FE004F07075
:100E0A000690021EE004F0020D70900118E024FF23
:100E1A00FF900117E034FFFEC390021DE09F90028D
:100E2A001CE09E500890011B7420F08005E490019C
:100E3A001BF090021CE0FEA3E0FF7C007D03120A77
:100E4A00AF741C2FF974013EA801FC7D017B017A65
:100E5A000179197E007F03120A2190021DE004F035
:100E6A00700690021CE004F0020D31900117E0FEBA
:100E7A00A3E0FF7C007D03120AAF900111E0FBA3FF
:100E8A00E0FAA3E0F8AC02AD037B017A01791C1207
:020E9A000A212B
:010E9C002233
:1011AE004103A60041032200410321006073033373
:1011BE00FFFF006F0200000030303030303030342E
:1011CE003030303030303034303030303030303607
:1011DE003030303030303035376338633164383545
:1011EE006239363634623238383232333533643916
:1011FE0038613633306365340000000000000000B3
:10120E000002313964353862646462636636346470
:10121E0066396236393039346364396430616564F5
:10122E00386655500323FFFF00090055000013FFD9
:06123E0055005555555501
:1014A8004C313A30204C323A30204C333A30204CD0
:1014B800343A3000310030004D3A41004D3A530083
:1014C8004D3A4120433A53004D3A5320433A4100A4
:1014D8004D3A5320433A4120573A31004D3A532070
:1014E800433A4120573A31204E3A31004D3A532081
:1014F800433A4120573A31204E3A3120503A310090
:100FF500900000EFF09003A6E070030210BD900092
:1010050000E07024900007F0A37408F07B807A005C
:101015007D047C00E4FF1217037BFF7A1479A87D19
:10102500047C007F06121245900000E0FF64016019
:1010350003EF70187BFF3094067A1479BC80047A2C
:101045001479BE7D047C007F18121245900000E0E3
:10105500FF64026003EF70187BFF3095067A147900
:10106500BC80047A1479BE7D047C007F361212455B
:10107500900000E0FF64046003EF70187BFF30967A
:10108500067A1479BC80047A1479BE7D047C007FCD
:1010950054121245900000E0FF64086003EF702EC3
:1010A5007BFF3097067A1479BC80047A1479BE7D6B
:1010B500047C007F72021245900007E4F0A37406D9
:0F10C500F07B807A007D047C00E4FF1217032289
:1010D400900000EDF0A3EBF0EF640D6003021190BB
:1010E400900007F0A37404F07B807A007D027C00FA
:1010F400E4FF121703900001E024FE601F24FD604A
:101104002314602824F4602C24F8602824E0602C44
:10111400243970787BFF7A1479C080677BFF7A1456
:1011240079C4805F7BFF7A1479C880577BFF7A1477
:1011340079D0804F7BFF7A1479D88047900000E003
:10114400FF7E00C3748094804019D3EF94077480A9
:101154009480500F7BFF7A1479E47D027C007F0633
:10116400121245900000E0FF7E00C394087480943E
:10117400804019D3EF940F74809480500F7BFF7AD2
:0D1184001479F47D027C007F0612124522D2
:1014280002000EE493A3F8E493A34003F68001F2CC
:1014380008DFF48029E493A3F85407240CC8C333C5
:10144800C4540F4420C8834004F456800146F6DF94
:10145800E4800B0102040810204080901191E47E82
:10146800019360BCA3FF543F30E509541FFEE49389
:10147800A360010ECF54C025E060A840B8E493A350
:10148800FAE493A3F8E493A3C8C582C8CAC583CA7B
:10149800F0A3C8C582C8CAC583CADFE9DEE780BE33
:0112440000A9
:10095100E709F608DFFA8046E709F208DFFA803E88
:1009610088828C83E709F0A3DFFA8032E309F60875
:10097100DFFA8078E309F208DFFA807088828C83DD
:10098100E309F0A3DFFA806489828A83E0A3F60891
:10099100DFFA805889828A83E0A3F208DFFA804C6B
:1009A10080D280FA80C680D4806980F28033801042
:1009B10080A680EA809A80A880DA80E280CA8033AB
:1009C10089828A83ECFAE493A3C8C582C8CCC58323
:1009D100CCF0A3C8C582C8CCC583CCDFE9DEE780F3
:1009E1000D89828A83E493A3F608DFF9ECFAA9F072
:1009F100EDFB2289828A83ECFAE0A3C8C582C8CCC8
:100A0100C583CCF0A3C8C582C8CCC583CCDFEADEE0
:100A1100E880DB89828A83E493A3F208DFF980CC42
:100A210088F0EF60010E4E60C388F0ED2402B4043B
:100A31000050B9F582EB2402B4040050AF232345E2
:060A410082239009A1735D
:100A4700BB010689828A83E0225002E722BBFE02AD
:090A5700E32289828A83E49322E0
:100A6000BB010CE58229F582E5833AF583E022504B
:100A700006E92582F8E622BBFE06E92582F8E22295
:0D0A8000E58229F582E5833AF583E49322AF
:100A8D00F8BB010DE58229F582E5833AF583E8F09F
:100A9D00225006E92582C8F622BBFE05E92582C84B
:020AAD00F22233
:100AAF00EF8DF0A4A8F0CF8CF0A428CE8DF0A42E5B
:020ABF00FE2215
:100AC100BB0110E58229F582E5833AF583E0F5F073
:100AD100A3E0225009E92582F886F008E622BBFE50
:100AE1000AE92582F8E2F5F008E222E5832AF58396
:080AF100E993F5F0A3E993225B
:100AF900EF4E6012EF60010EEDBB010B89828A8314
:100B0900F0A3DFFCDEFA2289F05007F709DFFCA920
:0C0B1900F022BBFEFCF309DFFCA9F02277
:00000001FF
