:0300000002071FD5
:0C071F00787FE4F6D8FD758120020766A3
:1000660075930075940075910075920075950075ED
:10007600960075B10075B20075B30075B40075C908
:050086000075CA002214
:10030E000000000000000000002F000000000700A9
:10031E00070000147F147F1400242A7F2A12006223
:10032E0064081323003649552250000005030000CF
:10033E0000001C224100000041221C000014083E57
:10034E0008140008083E0808000000A0600000081D
:10035E000808080800006060000000201008040271
:10036E00003E5149453E0000427F4000004261512F
:10037E004946002141454B31001814127F100027C9
:10038E0045454539003C4A4949300001710905038C
:10039E0000364949493600064949291E00003636BD
:1003AE000000000056360000000814224100001420
:1003BE0014141414000041221408000201510906FD
:1003CE0000324959513E007C1211127C007F49497E
:1003DE004936003E41414122007F4141221C007FAF
:1003EE0049494941007F09090901003E4149497ABD
:1003FE00007F0808087F0000417F41000020404137
:10040E003F01007F08142241007F40404040007FA2
:10041E00020C027F007F0408107F003E4141413EE6
:10042E00007F09090906003E4151215E007F09192E
:10043E0029460046494949310001017F0101003F2B
:10044E004040403F001F2040201F003F4038403FAB
:10045E00006314081463000708700807006151490F
:10046E00454300007F41410000552A552A550000A2
:10047E0041417F0000040201020400404040404020
:10048E00000001020400002054545478007F4844B8
:10049E00443800384444442000384444487F0038EF
:1004AE005454541800087E0901020018A4A4A47C18
:1004BE00007F080404780000447D400000408084E2
:1004CE007D00007F102844000000417F4000007C2A
:1004DE0004180478007C0804047800384444443836
:1004EE0000FC242424180018242418FC007C080482
:1004FE00040800485454542000043F444020003C5B
:10050E004040207C001C2040201C003C4030403CE1
:10051E00004428102844001CA0A0A07C0044645471
:08052E004C44141414141414BD
:090CE900D2C1D2A2C2A2C2C122F2
:090CF200C2C1C2A2D2C1D2A222E9
:070B1D00AD07120CE97F781F
:100B2400E4FEEEC39408748094805015EF30E7041B
:100B3400D2A28002C2A2D2C1C2C1EF25E0FF0E80C0
:070B4400E1D2A2D2C1C2C13F
:010B4B002287
:100CA500120B1D7F40120B24AF05120B24020CF210
:0E0BC600EC24B0FF120BD47F01120BD47F1071
:100BD400120B1DE4FF120B24AF05120B24020CF2BE
:100BE400AC07ED24B0FF120BD4EC54F0C4540F4402
:0E0BF40010FF120BD4EC540F4401FF020BD47F
:020B4C00AC07F4
:100B4E00E4FBEBC3940874809480501BEB120BC72C
:100B5E00E4FAEAC39480748094805008AF04120CB7
:070B6E00A50A80EE0B80DBFD
:010B7500225D
:100B9F00E4FCECC3940874809480501A120BC6E4E2
:100BAF00FBEBC39480748094805008E4FF120CA573
:060BBF000B80EE0C80DC4F
:010BC500220D
:060AAF00A9078B828A8377
:100AB500AF05AC07ECD39518E5176480F8748098FA
:100AC500501E120BC6AB01EBC39582E5836480F81B
:100AD5007480985008E4FF120CA50B80EA0C80D4B2
:010AE50022EE
:100686007FF47E01120C027FAE120BD4E4FF120B34
:10069600CF7F40120BD47F81120BD47FCF120BD4A5
:1006A6007FA1120BD47FC8120BD47FA6120BD47F66
:1006B600A8120BD47F3F120BD47FD3120BD4E4FFC6
:1006C600120BD47FD5120BD47F80120BD47FD91294
:1006D6000BD47FF1120BD47FDA120BD47F12120BDC
:1006E600D47FDB120BD47F40120BD47F20120BD4A5
:1006F6007F02120BD47F8D120BD47F14120BD47F82
:10070600A4120BD47FA6120BD47FAF120BD4E4FF36
:09071600120B4CE4FDFF020BE4A0
:0C07AB008F128C138D148B158A16891781
:1007B700E4F518FCF519AB15AA16A9178519827562
:1007C700830012054F605A24E0F518D3E512947E92
:1007D70074809480400BE4F5120514E5147002054B
:1007E70013AD14AF12120BE4E4FCECC3940674804F
:1007F7009480502375F006E518A4240EF582E5F0E1
:100807003403F583E5822CF582E43583F583E4939D
:10081700FF120CA50C80D374062512F5120519805A
:01082700953B
:0108280022AD
:100C0200D3EF9400EE940040147D6E7C00ED1D70D5
:0D0C1200011CED4C70F7EF1F70E61E80E333
:010C1F0022B2
:100C7F007F0212090E7F02120B767F0212095A7F32
:040C8F00020209A6AE
:040C20007FE07EFEF5
:100C2400AD07AC06538EEF538EF7438E048CD6AFCC
:0A0C3400058FD753AFFB438E10224B
:10090E00EF64027008438E01120C20801BC28E53BE
:10091E008EFE438E405389BF5389CF758DFE758BE6
:10092E00E0C2AB538FFDD28EE598543F4440F5980C
:10093E00D2ACD29C53A23F7E017F007D007B017A18
:0C094E000079001205B4C200E4F51C2280
:100B7600EF64027003120C20539A7F43AF01439A2D
:100B86001053BAFE7E017F007D007B017A01790059
:090B96001205B4C201E4F51D22B0
:10095A00EF6402700853ACBF120C20801B43AC40FA
:10096A0053D1F053AFDF43D10253D1FB53D1FE75BC
:10097A00D4FE75D5E043D10853ACDF53AC7F43AF07
:10098A000843AC1053BAFD7E017F007D007B017ADB
:0C099A000279001205B4C202E4F51A2232
:1009A600EF640270085384BF120C20801B438440FE
:1009B60053D10F53AFBF43D12053D1BF53D1EF759E
:1009C600D2FE75D3E043D1805384DF53847F43AF97
:1009D6001043841053BAFB7E017F007D007B017AB1
:0C09E6000379001205B4C203E4F51B22E3
:100026001205366010D200F5992000FD740129F9F9
:06003600E43AFA80EB221F
:100046001205366010D201F59B2001FD740129F9D5
:06005600E43AFA80EB22FF
:100C3E001205366010D202F5AD2002FD740129F9BD
:060C4E00E43AFA80EB22FB
:100C54001205366010D203F5852003FD740129F9CD
:060C6400E43AFA80EB22E5
:03002300020AE6E8
:100AE600C0E0C083C082C0D030981CC29874002574
:100AF6001CF582E43400F583E599F0051CC3748087
:100B060094814003751C00309904C299C200D0D06C
:070B1600D082D083D0E03251
:030043000209F2BD
:1009F200C0E0C083C082C0D0E59A5401601D539A02
:100A0200FE7400251DF582E43401F583E59BF005B3
:100A12001DC3748094814003751D00E59A540260E1
:0F0A220005539AFDC201D0D0D082D083D0E032EC
:03008B00020A3135
:100A3100C0E0C083C082C0D0E5AC5401601D53AC9E
:100A4100FE7400251AF582E43402F583E5ADF00564
:100A51001AC3748094814003751A00E5AC54026096
:0F0A61000553ACFDC202D0D0D082D083D0E0329A
:03009300020A70EE
:100A7000C0E0C083C082C0D0E5845401601D5384AF
:100A8000FE7400251BF582E43403F583E585F0054B
:100A90001BC3748094814003751B00E5845402607D
:0F0AA000055384FDC203D0D0D082D083D0E03282
:100C6A0002080000020A0000020C0000020E000046
:040C7A000210000064
:1000A600AD07EDD394047480948040037F0122ED64
:1000B600600302013A120536FED3940374809480DD
:1000C60040037F0222C28CC2A9C2B95389F0538E63
:1000D6007F538FFE90000212054F64017002D2A971
:1000E60090000112054F64017002D2B9EE42899068
:1000F600000312054FFF7E007003438E80EF6402FB
:100106004E700343890490000412054F6401700386
:10011600438F0190000512057CE5F0F58C900005F3
:1001260012057CF58A90000712054F64017002D211
:100136008C7F0022ED640160030201C4120536FEC5
:10014600C394037480948040037F0222C28EC2ABA4
:10015600C2BB53890F538EBF538FFD900002120509
:100166004F64017002D2AB90000112054F6401701A
:1001760002D2BBEEC454F0428990000312054FFF31
:100186007E007003438E40EF64024E700343894045
:1001960090000412054F64017003438F029000051E
:1001A60012057CE5F0F58D90000512057CF58B9027
:1001B600000712054F64017002D28E7F0022ED64A3
:1001C60002706A90000312054FFED3940274809465
:1001D6008040037F0222538EE353AFFB538FFB9085
:1001E600000212054F6401700343AF04EEFF7E0068
:1001F6007003438E04EF64024E7003438E08900032
:100206000412054F64017003438F04900005120524
:100216007CE5F0F5D690000512057CF5D790000731
:1002260012054F64017003438E107F0022ED6403B4
:10023600706790000312054FFED394027480948079
:1002460040037F022253D1F053AFDF900002120524
:100256004F6401700343AF20EEFF7E00700343D16D
:1002660002EF64024E700343D10690000412054F5C
:100276006401700343D10190000512057CE5F0F599
:10028600D490000512057CF5D590000712054F6441
:1002960001700343D1087F0022ED6404706790006B
:1002A6000312054FFD7C00D39402748094804003B2
:1002B6007F022253D10F53AFBF90000212054F6445
:1002C60001700343AF40ED4C700343D1209000030F
:1002D60012054F6402700343D16090000412054F6B
:1002E6006401700343D11090000512057CFDACF04B
:1002F600ECF5D28DD390000712054F6401700343CD
:08030600D1807F00227F02225A
:10082900E4F512F513751401F5157516017517FD23
:100839007518D8751901FB7A007912FF1200A6E420
:10084900F508F509F512F513751401F51575160175
:100859007517EA7518677519017F011200A6E4F585
:100869000AF50B7514017515017516017517EEF565
:10087900187519017F031200A6E4F50EF50FF5149A
:100889007515017516017517DCF5187519017F04C1
:080899001200A6E4F510F511B0
:0108A1002234
:03000B0002000EE2
:0D000E00C0E00509E50970020508D0E032E8
:03001B00020CB51F
:0D0CB500C0E0050BE50B7002050AD0E0322F
:03006300020CC2CA
:0D0CC200C0E0050DE50D7002050CD0E0321C
:03009B00020CCF85
:0D0CCF00C0E0050FE50F7002050ED0E03209
:0300A300020CDC70
:0D0CDC00C0E00511E51170020510D0E032F6
:100C9300120066120686120B9F120C7F120829D2CD
:020CA300AF227E
:1005E000535443313546344B363053342055534100
:1005F00052543120546573742050726772616D6D6E
:1006000065210D0A00535443313546344B3630537F
:100610003420555341525432205465737420507223
:100620006772616D6D65210D0A0053544331354683
:10063000344B363053342055534152543320546593
:1006400073742050726772616D6D65210D0A0053DD
:100650005443313546344B36305334205553415290
:10066000543420546573742050726772616D6D65E7
:10067000210D0A0068656C7465632E74616F626198
:060680006F2E636F6D0098
:1008A200120C937BFF7A0579E01200267F0A7E0004
:1008B200120C027BFF7A0679051200467F0A7E003F
:1008C200120C027BFF7A06792A120C3E7F0A7E0006
:1008D200120C027BFF7A06794F120C547F0A7E00BB
:1008E200120C027BFF7A0679747D087C00E4FF1209
:1008F20007AB7F887E13120C027517007518087BF0
:0C090200807A00E4FDFCFF120AAF80D7F1
:10072B000208A2E493A3F8E493A34003F68001F23A
:10073B0008DFF48029E493A3F85407240CC8C333CF
:10074B00C4540F4420C8834004F456800146F6DF9E
:10075B00E4800B0102040810204080900C6AE47EB8
:10076B00019360BCA3FF543F30E509541FFEE49393
:10077B00A360010ECF54C025E060A840B8E493A35A
:10078B00FAE493A3F8E493A3C8C582C8CAC583CA85
:10079B00F0A3C8C582C8CAC583CADFE9DEE780BE3D
:010C7E000075
:10053600BB010689828A83E0225002E722BBFE02C3
:09054600E32289828A83E49322F6
:10054F00BB010CE58229F582E5833AF583E0225061
:10055F0006E92582F8E622BBFE06E92582F8E222AB
:0D056F00E58229F582E5833AF583E49322C5
:10057C00BB0110E58229F582E5833AF583E0F5F0BD
:10058C00A3E0225009E92582F886F008E622BBFE9A
:10059C000AE92582F8E2F5F008E222E5832AF583E0
:0805AC00E993F5F0A3E99322A5
:1005B400EF4E6012EF60010EEDBB010B89828A835E
:1005C400F0A3DFFCDEFA2289F05007F709DFFCA96B
:0C05D400F022BBFEFCF309DFFCA9F022C2
:00000001FF
