:03000000020FD21A
:0C0FD200787FE4F6D8FD7581200210192C
:1014970075930075940075910075920075950075A8
:1014A700960075B10075B20075B30075B40075C9C3
:0514B7000075CA0022CF
:10030E000000000000000000002F000000000700A9
:10031E00070000147F147F1400242A7F2A12006223
:10032E0064081323003649552250000005030000CF
:10033E0000001C224100000041221C000014083E57
:10034E0008140008083E0808000000A0600000081D
:10035E000808080800006060000000201008040271
:10036E00003E5149453E0000427F4000004261512F
:10037E004946002141454B31001814127F100027C9
:10038E0045454539003C4A4949300001710905038C
:10039E0000364949493600064949291E00003636BD
:1003AE000000000056360000000814224100001420
:1003BE0014141414000041221408000201510906FD
:1003CE0000324959513E007C1211127C007F49497E
:1003DE004936003E41414122007F4141221C007FAF
:1003EE0049494941007F09090901003E4149497ABD
:1003FE00007F0808087F0000417F41000020404137
:10040E003F01007F08142241007F40404040007FA2
:10041E00020C027F007F0408107F003E4141413EE6
:10042E00007F09090906003E4151215E007F09192E
:10043E0029460046494949310001017F0101003F2B
:10044E004040403F001F2040201F003F4038403FAB
:10045E00006314081463000708700807006151490F
:10046E00454300007F41410000552A552A550000A2
:10047E0041417F0000040201020400404040404020
:10048E00000001020400002054545478007F4844B8
:10049E00443800384444442000384444487F0038EF
:1004AE005454541800087E0901020018A4A4A47C18
:1004BE00007F080404780000447D400000408084E2
:1004CE007D00007F102844000000417F4000007C2A
:1004DE0004180478007C0804047800384444443836
:1004EE0000FC242424180018242418FC007C080482
:1004FE00040800485454542000043F444020003C5B
:10050E004040207C001C2040201C003C4030403CE1
:10051E00004428102844001CA0A0A07C0044645471
:08052E004C44141414141414BD
:09000E00D2C1D2A2C2A2C2C122D9
:09161E00C2C1C2A2D2C1D2A222B3
:07006600AD0712000E7F78C8
:10006D00E4FEEEC39408748094805015EF30E704DD
:10007D00D2A28002C2A2D2C1C2C1EF25E0FF0E8082
:07008D00E1D2A2D2C1C2C101
:010094002249
:101600001200667F4012006DAF0512006D02161EBB
:0E14DE00EC24B0FF1214EC7F011214EC7F100E
:1014EC00120066E4FF12006DAF0512006D02161EAD
:1014FC00AC07ED24B0FF1214ECEC54F0C4540F44C0
:0E150C0010FF1214ECEC540F4401FF0214EC1B
:02141C00AC071B
:10141E00E4FBEBC3940874809480501BEB1214DF32
:10142E00E4FAEAC39480748094805008AF041216D4
:07143E00000A80EE0B80DBC9
:011445002284
:10147000E4FCECC3940874809480501A1214DEE4E7
:10148000FBEBC39480748094805008E4FF12160034
:061490000B80EE0C80DC75
:011496002233
:0A139300900106EAF0A3EBF0A907B1
:10139D00AF05AC07ECFFC3900109E09F7480F89096
:1013AD000108E064809840241214DEAB01EBFFD3FA
:1013BD00900107E09F7480F8900106E064809840EA
:0C13CD0008E4FF1216000B80E40C80C83E
:0113D90022F1
:100F40007FAE1214ECE4FF1214E77F401214EC7F22
:100F5000811214EC7FCF1214EC7FA11214EC7FC825
:100F60001214EC7FA61214EC7FA81214EC7F3F122F
:100F700014EC7FD31214ECE4FF1214EC7FD512149E
:100F8000EC7F801214EC7FD91214EC7FF11214EC78
:100F90007FDA1214EC7F121214EC7FDB1214EC7F58
:100FA000401214EC7F201214EC7F021214EC7F8D9F
:100FB0001214EC7F141214EC7FA41214EC7FA6120E
:100FC00014EC7FAF1214ECE4FF12141CE4FDFF02DA
:020FD00014FC0F
:100E9C00900103EFF0A3ECF0A3EDF0A3EBF0A3EAC9
:040EAC00F0A3E9F0D6
:100EB000E4A3F0FCA3F0900106E0FBA3E0FAA3E0BA
:100EC000F990010AE0F58275830012082860702409
:100ED000E0900109F0900103E0D3947E7480948047
:100EE0004010E4F0900105E004F07006900104E089
:100EF00004F0900103E0FFA3A3E0FD1214FCE4FC66
:100F0000ECC39406748094805025900109E075F03C
:100F100006A4240EF582E5F03403F583E5822CF572
:100F200082E43583F583E493FF1216000C80D190A0
:0F0F30000103E02406F090010AE004F0020EB67F
:010F3F00228F
:050003007F0202134121
:10153800AD07AC06538EEF538EF7438E04ECF5D609
:0B154800AF058FD753AFFB438E10227E
:10134100EF6402700C438E017FE07EFE121538803F
:101351001BC28E538EFE438E405389BF5389CF7576
:101361008DFE758BE0C2AB538FFDD28EE598543F55
:101371004440F598D2ACD29C53A23F7E017F007DC0
:10138100007B017A0079001208C5C200E4900100D7
:02139100F02248
:1013DA0090017BEBF0A3EAF0A3E9F0A3ECF0A3ED14
:0113EA00F012
:1013EB00E4FFFED390017FE09F90017EE09E4020C2
:1013FB00D20090017BE0FBA3E0FAA3E0F98F828E91
:10140B0083120828F5992000FD0FBF00010E80D331
:01141B0022AE
:03002300020026B2
:10002600C0E0C083C082C0D0309821C29890010041
:10003600E02400F582E43400F583E599F0900100B0
:10004600E004F0C3748094814002E4F0309904C265
:0C00560099C200D0D0D082D083D0E0321C
:100DE2004201FE00004202000000420202000042F4
:090DF200020400004202060000A8
:1000A600AD07EDD394047480948040037F0122ED64
:1000B600600302013A12080FFED394037480948001
:1000C60040037F0222C28CC2A9C2B95389F0538E63
:1000D6007F538FFE90000212082864017002D2A995
:1000E60090000112082864017002D2B9EE4289908C
:1000F6000003120828FF7E007003438E80EF64021F
:100106004E700343890490000412082864017003AA
:10011600438F01900005120877E5F0F58C900005F5
:10012600120877F58A90000712082864017002D237
:100136008C7F0022ED640160030201C412080FFEE9
:10014600C394037480948040037F0222C28EC2ABA4
:10015600C2BB53890F538EBF538FFD900002120806
:100166002864017002D2AB90000112082864017065
:1001760002D2BBEEC454F04289900003120828FF55
:100186007E007003438E40EF64024E700343894045
:1001960090000412082864017003438F0290000542
:1001A600120877E5F0F58D900005120877F58B902B
:1001B600000712082864017002D28E7F0022ED64C7
:1001C60002706A900003120828FED3940274809489
:1001D6008040037F0222538EE353AFFB538FFB9085
:1001E60000021208286401700343AF04EEFF7E008C
:1001F6007003438E04EF64024E7003438E08900032
:100206000412082864017003438F04900005120845
:1002160077E5F0F5D6900005120877F5D790000738
:1002260012082864017003438E107F0022ED6403D8
:100236007067900003120828FED39402748094809D
:1002460040037F022253D1F053AFDF900002120821
:10025600286401700343AF20EEFF7E00700343D194
:1002660002EF64024E700343D10690000412082880
:100276006401700343D101900005120877E5F0F59B
:10028600D4900005120877F5D59000071208286467
:1002960001700343D1087F0022ED6404706790006B
:1002A60003120828FD7C00D39402748094804003D6
:1002B6007F022253D10F53AFBF9000021208286469
:1002C60001700343AF40ED4C700343D1209000030F
:1002D6001208286402700343D160900004120828B3
:1002E6006401700343D110900005120877FDACF04D
:1002F600ECF5D28DD39000071208286401700343F1
:08030600D1807F00227F02225A
:10144600E4900101F0A3F0A304F0E4A3F0A3F0A359
:101456007428F0A3E4F0A3F07B017A017901FF126E
:0914660000A6E49001FEF0A3F0E1
:01146F00225A
:03000B0002155388
:10155300C0E0C083C0829001FFE004F070069001F8
:0B156300FEE004F0D082D083D0E03224
:03001B0002156E5D
:10156E00C0E0C083C082900201E004F070069002D9
:0B157E0000E004F0D082D083D0E03207
:03006300021589FA
:10158900C0E0C083C082900203E004F070069002BC
:0B15990002E004F0D082D083D0E032EA
:03009B000215A4A7
:1015A400C0E0C083C082900205E004F0700690029F
:0B15B40004E004F0D082D083D0E032CD
:0300A3000215BF84
:1015BF00C0E0C083C082900207E004F07006900282
:0B15CF0006E004F0D082D083D0E032B0
:100DFB004101FD004101CB004101A8004201C900A6
:100E0B00094101CC004801ED303030303030303604
:100E1B004801A03030303030303035602001A937F8
:100E2B006338633164383562393636346232383878
:100E3B00323233353364393861363330636534607D
:100E4B002001CD31396435386264646263663634AF
:100E5B0064663962363930393463643964306165BC
:100E6B006438664801980000000000000002480149
:100E7B009030303030303030344801F53030303055
:100E8B0030303034490187FFFF005500000000551A
:10151A00D3EF9400EE940040147D6E7C00ED1D70B4
:0D152A00011CED4C70F7EF1F70E61E80E312
:011537002291
:1015EE00E4900100F07E01FFFD7B017A007900029C
:0215FE0008C51E
:0B105E0090017BEBF0A3EAF0A3E9F0A7
:10106900E4900185F0A3F0900181E0FEA3E0FFC3C5
:10107900EE94004067900185EEF0A3EFF0900181B6
:10108900E0FEA3E0FF900184E02FFB900183E03EA6
:10109900FA900185E0FCA3E0FDC39BEC9A503DC3A7
:1010A900ED9FFFEC9EFE90017EE0FBA3E0FAA3E03A
:1010B900F98F828E83120828FF90017BE0FBA3E061
:1010C900FAA3E0F98D828C83EF120855900186E02E
:0C10D90004F070A9900185E004F080A1F3
:0110E50022E8
:0B12EC0090017BEBF0A3EAF0A3E9F017
:1012F700E4A3F0FEAF05A3ECF0A3EFF07F029001AB
:1013070080E024FFFD90017FE034FFFCC3EF9DEEFA
:101317009C502090017BE0FBA3E0FAA3E0F98F82C9
:101327008E83120828FD90017EE02DF00FBF00018B
:091337000E80CB90017EE0F0FF76
:01134000228A
:0B11D600900102EBF0A3EAF0A3E9F0A7
:1011E100E4A3F0A374FFF0E4A3F0D3ED9400EC9436
:1011F10000401C900102E0FBA3E0FAA3E0F974FFB8
:101201002DF58274FF3CF583120828900106F090B9
:101211000102E0FBA3E0FAA3E0F91212EC9001074E
:10122100EFF0900106E0B507069001057401F0901A
:041231000105E0FFD4
:011235002296
:1015DA0057656C636F6D652044656D6F2053797331
:0415EA0074656D00B7
:1014BC00121497120F40121470120003121446E407
:1014CC00F5907BFF7A1579DAFDFC7F08120E9CD221
:0214DC00AF223D
:0E1610001214BC1208F1120A3312116D80F58B
:100C5100436F6E66696775726520576966693A53B5
:100C61006F667400436F6E666967757265205769B8
:100C710066693A4150005265736574205769666927
:100C81002100456E7465722062696E6461626C65F3
:100C9100206D6F6465210052657374617274205711
:100CA100696669210057696669206C6F7373210059
:100CB1000000000000000000000000000000000033
:100CC1000000000000000000000000000000000023
:100CD1000000000000000000000000000000000013
:100CE1000000000000000000000000000000000003
:100CF10000000000000000000000000000000000F3
:100D010000000000000000000000000000000000E2
:100D110000000000000000000000000000000000D2
:040D210000000000CE
:1008F1001210E6EF7003020A32900005E09001CC7D
:10090100F0900004E0FF24FD602B24FC607924FAC0
:10091100700302099F24FE7003020A0D24FE700376
:10092100020A1B24106003020A2FEF04FDE4FBFA04
:100931007F73020A18900008E06401702C7B017A31
:100941000079001212961205369001CCE004F09065
:100951000004E02402FD7B047A007F0E7E00120574
:1009610042900009E0FF120B72900008E0FF640260
:100971006003020A2F900004E004FDEF2401FBE470
:1009810033FA7F0E020A2A9001A87401F0C28CE4A6
:100991009001FEF0A3F0120536D28C020A2FE490EA
:1009A10001FDF09001CBF09001A804F0900004E06B
:1009B100FF900008E0FDA3E0FB120D25900008E088
:1009C100FF7E00C3748094804010D3EF940774803D
:1009D100948050069001CB7401F0C3EF9408EE644B
:1009E1008094804015D3EF940FEE64809480500A78
:1009F1009001CB7401F09001FDF0E4FF120B7290B5
:100A01000004E004FDE4FBFA7F09800B900004E0A0
:100A110004FDE4FBFA7F09FE8011900004E004FD6F
:100A2100900008E0FB7A007F0A7E00120542121551
:020A3100EE22B3
:100A3300E4900101F020A30F7F0AFE12151A20A3F0
:100A4300069001017401F020A4107F0A7E001215A4
:100A53001A20A4069001017402F020A5107F0A7EDB
:100A63000012151A20A5069001017403F020A010AE
:100A73007F0A7E0012151A20A0069001017404F06B
:100A830020A6107F0A7E0012151A20A606900101E7
:100A93007405F0900101E0FF7003020B719001A84F
:100AA300E064016003020B71D3EF940574809480BA
:100AB3005016900108E4F0A37408F07B807A007D5F
:100AC300027C00E4FF1213939001CCE0600204F077
:100AD300900101E024FE602014603814604E14601D
:100AE300642404707A7BFF7A0C79517D027C007F49
:100AF30002120E9C7B0180117BFF7A0C79657D02CB
:100B03007C007F02120E9C7B027A007D097F0A7EA5
:100B13000080497BFF7A0C79777D027C007F02128B
:100B23000E9CE4FBFA7D0B7F09FE80307BFF7A0C81
:100B330079837D027C007F02120E9CE4FBFA7D1513
:100B43007F09FE80177BFF7A0C79987D027C007FFA
:100B530002120E9CE4FBFA7D297F09FE1205423046
:0E0B6300A3FD30A4FA30A5F730A0F430A6F1BF
:010B71002261
:1010E600E4900101F0900100E0FF7E00D3940074CB
:1010F6008094804069200066900000E0F4705FD321
:10110600EF9402748094804058A3E0F4704E9001EE
:10111600CAE02405FF9001C9E03400FE900100E01A
:10112600D39FE49E40031215EE900002E0FEA3E07A
:101136007C002400FFEC3ECF2404CF3400FE900157
:1011460000E06F7001EE70197B017A007900E0FD16
:101156001211D6900101EFF070078002800012157F
:06116600EE900101E0FF24
:01116C002260
:0C053600900004E004FDE4FBFA7F09FEE5
:10054200900102EEF0A3EFF0A3EDF0A3EAF0A3EB2B
:01055200F0B8
:1005530078077C017D017BFF7A0C79B17E007F7483
:100563001207E978077C017D017B017A0179877E97
:10057300007F091207E9900102A3E024FC90010A1D
:10058300F0900104E0FF90010BF09001CCE09001AA
:100593000CF0EF6402600302069F7B0190017E046E
:1005A300F0A37401F0A37490F0A3E4F0A37408F033
:1005B300A3E4F0A37408F07A01790712105E9001A6
:1005C3007E7401F0A37401F0A374F5F0A3E4F0A327
:1005D3007410F0A3E4F0A37408F07B017A017907A7
:1005E30012105E90017E7401F0A37401F0A374ED08
:1005F300F0A3E4F0A37418F0A3E4F0A37408F07B71
:10060300017A01790712105E90017E7401F0A374E0
:1006130001F0A374A0F0A3E4F0A37420F0A3E4F02A
:10062300A37408F07B017A01790712105E90017EB2
:100633007401F0A37401F0A374A9F0A3E4F0A3740C
:1006430028F0A3E4F0A37420F07B017A0179071268
:10065300105E90017E7401F0A37401F0A37498F00E
:10066300A3E4F0A3744AF0A3E4F0A37408F07B01BD
:100673007A01790712105E90017E7401F0A3740170
:10068300F0A374CDF0A3E4F0A37452F0A3E4F0A3B9
:100693007420F07B017A01790712105E900104E067
:1006A300FF7E0064127007A3A3E090010FF0EF64D4
:1006B300044E700C900105E07004A3E06403601223
:1006C300900104E064057021A3E07004A3E06404D6
:1006D3007017900105A3E090010FF0E590C4540F4B
:1006E300A3F0E4A3F0A3F0A3F07B017A01790790D0
:1006F3000102E0FCA3E0FD1212EC900102E0FCA376
:10070300E0FD2406F58274013CF583EFF07B017A6A
:060713000179070213DA70
:10116D009001A8E06401700C9001FEE07002A3E014
:10117D007002D28C9001FEE0FEA3E0FFEE3395E00D
:10118D00FDFCE47BA07A8CF9F8D31208AF5039C27C
:10119D008CE49001FEF0A3F09001A8F09001CBF04B
:1011AD009001FDF0900108F0A37408F07B807A00A7
:1011BD007D027C00E4FF1213937BFF7A0C79A67DF0
:0911CD00047C007F24120E9C2218
:1012960090000912082824FE601C24FE602824FC05
:1012A60060342407703F90000A1208286401700316
:1012B600D29422C2942290000A1208286402700373
:1012C600D29522C2952290000A120828640470035F
:1012D600D29622C2962290000A1208286408700349
:0612E600D29722C29722FC
:101236004C313A30204C323A30204C333A30204C44
:10124600343A3000310030004D3A41004D3A5300F7
:101256004D3A4120433A53004D3A5320433A410018
:101266004D3A5320433A4120573A31004D3A5320E4
:10127600433A4120573A31204E3A31004D3A5320F5
:10128600433A4120573A31204E3A3120503A310004
:100B7200900101EFF09001FDE07003020C3A900148
:100B820001E07024900108F0A37408F07B807A00E1
:100B92007D047C00E4FF1213937BFF7A1279367D89
:100BA200047C007F06120E9C900101E0FF6401604C
:100BB20003EF70187BFF3094067A12794A80047A28
:100BC20012794C7D047C007F18120E9C900101E08A
:100BD200FF64026003EF70187BFF3095067A12798A
:100BE2004A80047A12794C7D047C007F36120E9C76
:100BF200900101E0FF64046003EF70187BFF309600
:100C0200067A12794A80047A12794C7D047C007F3C
:100C120054120E9C900101E0FF64086003EF702EF5
:100C22007BFF3097067A12794A80047A12794C7DDA
:100C3200047C007F72020E9C900108E4F0A374060B
:0F0C4200F07B807A007D047C00E4FF1213932284
:100D2500900101EDF0A3EBF0EF640D6003020DE11E
:100D3500900108F0A37404F07B807A007D027C00AA
:100D4500E4FF121393900102E024FE601F24FD606E
:100D55002314602824F4602C24F8602824E0602CF7
:100D6500243970787BFF7A12794E80677BFF7A127F
:100D75007952805F7BFF7A12795680577BFF7A1212
:100D8500795E804F7BFF7A1279668047900101E09A
:100D9500FF7E00C3748094804019D3EF940774805C
:100DA5009480500F7BFF7A1279727D027C007F065A
:100DB500120E9C900101E0FF7E00C394087480949C
:100DC500804019D3EF940F74809480500F7BFF7A85
:0D0DD5001279827D027C007F06120E9C22A6
:100FDE00021610E493A3F8E493A34003F68001F203
:100FEE0008DFF48029E493A3F85407240CC8C33314
:100FFE00C4540F4420C8834004F456800146F6DFE3
:10100E00E4800B0102040810204080900DE2E47E83
:10101E00019360BCA3FF543F30E509541FFEE493D7
:10102E00A360010ECF54C025E060A840B8E493A39E
:10103E00FAE493A3F8E493A3C8C582C8CAC583CAC9
:10104E00F0A3C8C582C8CAC583CADFE9DEE780BE81
:010E9B000056
:10071900E709F608DFFA8046E709F208DFFA803EC2
:1007290088828C83E709F0A3DFFA8032E309F608AF
:10073900DFFA8078E309F208DFFA807088828C8317
:10074900E309F0A3DFFA806489828A83E0A3F608CB
:10075900DFFA805889828A83E0A3F208DFFA804CA5
:1007690080D280FA80C680D4806980F2803380107C
:1007790080A680EA809A80A880DA80E280CA8033E5
:1007890089828A83ECFAE493A3C8C582C8CCC5835D
:10079900CCF0A3C8C582C8CCC583CCDFE9DEE7802D
:1007A9000D89828A83E493A3F608DFF9ECFAA9F0AC
:1007B900EDFB2289828A83ECFAE0A3C8C582C8CC02
:1007C900C583CCF0A3C8C582C8CCC583CCDFEADE1B
:1007D900E880DB89828A83E493A3F208DFF980CC7D
:1007E90088F0EF60010E4E60C388F0ED2402B40476
:1007F9000050B9F582EB2402B4040050AF2323451D
:06080900822390076973D1
:10080F00BB010689828A83E0225002E722BBFE02E7
:09081F00E32289828A83E493221A
:10082800BB010CE58229F582E5833AF583E0225085
:1008380006E92582F8E622BBFE06E92582F8E222CF
:0D084800E58229F582E5833AF583E49322E9
:10085500F8BB010DE58229F582E5833AF583E8F0D9
:10086500225006E92582C8F622BBFE05E92582C885
:02087500F2226D
:10087700BB0110E58229F582E5833AF583E0F5F0BF
:10088700A3E0225009E92582F886F008E622BBFE9C
:100897000AE92582F8E2F5F008E222E5832AF583E2
:0808A700E993F5F0A3E99322A7
:1008AF00EB9FF5F0EA9E42F0E99D42F0EC6480C8C0
:0608BF0064809845F02260
:1008C500EF4E6012EF60010EEDBB010B89828A834A
:1008D500F0A3DFFCDEFA2289F05007F709DFFCA957
:0C08E500F022BBFEFCF309DFFCA9F022AE
:00000001FF
