:030000000208876C
:0C088700787FE4F6D8FD75812002004661
:1007930075930075940075910075920075950075B9
:1007A300960075B10075B20075B30075B40075C9D4
:0507B3000075CA0022E0
:100096000000000000000000002F00000000070024
:1000A600070000147F147F1400242A7F2A1200629E
:1000B600640813230036495522500000050300004A
:1000C60000001C224100000041221C000014083ED2
:1000D60008140008083E0808000000A06000000898
:1000E60008080808000060600000002010080402EC
:1000F600003E5149453E0000427F400000426151AA
:100106004946002141454B31001814127F10002743
:1001160045454539003C4A49493000017109050306
:1001260000364949493600064949291E0000363637
:10013600000000005636000000081422410000149A
:100146001414141400004122140800020151090677
:1001560000324959513E007C1211127C007F4949F8
:100166004936003E41414122007F4141221C007F29
:1001760049494941007F09090901003E4149497A37
:10018600007F0808087F0000417F410000204041B1
:100196003F01007F08142241007F40404040007F1D
:1001A600020C027F007F0408107F003E4141413E61
:1001B600007F09090906003E4151215E007F0919A9
:1001C60029460046494949310001017F0101003FA6
:1001D6004040403F001F2040201F003F4038403F26
:1001E600006314081463000708700807006151498A
:1001F600454300007F41410000552A552A5500001D
:1002060041417F000004020102040040404040409A
:10021600000001020400002054545478007F484432
:10022600443800384444442000384444487F003869
:100236005454541800087E0901020018A4A4A47C92
:10024600007F080404780000447D4000004080845C
:100256007D00007F102844000000417F4000007CA4
:1002660004180478007C08040478003844444438B0
:1002760000FC242424180018242418FC007C0804FC
:10028600040800485454542000043F444020003CD5
:100296004040207C001C2040201C003C4030403C5C
:1002A600004428102844001CA0A0A07C00446454EC
:0802B6004C4414141414141438
:09089300D2C1D2A2C2A2C2C1224C
:09089C00C2C1C2A2D2C1D2A22243
:0706EA00AD071208937F78B1
:1006F100E4FEEEC39408748094805015EF30E70453
:10070100D2A28002C2A2D2C1C2C1EF25E0FF0E80F7
:07071100E1D2A2D2C1C2C176
:0107180022BE
:100868001206EA7F401206F1AF051206F102089C53
:0E000300EC24B0FF1200117F011200117F10DB
:100011001206EAE4FF1206F1AF051206F102089C8E
:1007B800AC07ED24B0FF120011EC54F0C4540F4400
:0E07C80010FF120011EC540F4401FF0200114B
:02071900AC072B
:10071B00E4FBEBC3940874809480501BEB12000431
:10072B00E4FAEAC39480748094805008AF041208F2
:07073B00680A80EE0B80DB71
:010742002294
:10076C00E4FCECC3940874809480501A120003E4E7
:10077C00FBEBC39480748094805008E4FF120868EB
:06078C000B80EE0C80DC86
:010792002244
:06067C00A9078B828A83AE
:10068200AF05AC07ECD39516E5156480F874809835
:10069200501E120003AB01EBC39582E5836480F820
:1006A2007480985008E4FF1208680B80EA0C80D42A
:0106B2002225
:1002BE007FF47E011207D67FAE120011E4FF12000A
:1002CE000C7F401200117F811200117FCF1200119E
:1002DE007FA11200117FC81200117FA61200117F9C
:1002EE00A81200117F3F1200117FD3120011E4FFFC
:1002FE001200117FD51200117F801200117FD912CA
:10030E0000117FF11200117FDA1200117F1212001C
:10031E00117FDB1200117F401200117F201200119D
:10032E007F021200117F8D1200117F141200117FB7
:10033E00A41200117FA61200117FAF120011E4FF6C
:09034E00120719E4FDFF0207B8D3
:0C03EB008F088C098D0A8B0B8A0C890D81
:1003F700E4F50EFCF50FAB0BAA0CA90D850F827562
:100407008300120482605A24E0F50ED3E508947E37
:1004170074809480400BE4F508050AE50A7002052C
:1004270009AD0AAF081207B8E4FCECC39406748060
:100437009480502375F006E50EA42496F582E5F026
:100447003400F583E5822CF582E43583F583E49364
:10045700FF1208680C80D374062508F508050F807D
:0104670095FF
:010468002271
:1007D600D3EF9400EE940040147D6E7C00ED1D7006
:0D07E600011CED4C70F7EF1F70E61E80E364
:0107F30022E3
:100854007F021204DB7F021207437F021205277F07
:040864000202057314
:0407F4007FE87EFF1D
:1007F800AD07AC06538EEF538EF7438E048CD6AFFD
:0A080800058FD753AFFB438E10227B
:1004DB00EF64027008438E011207F4801BC28E5327
:1004EB008EFE438E405389BF5389CF758DFF758B1D
:1004FB00E8C2AB538FFDD28EE598543F4440F5983C
:10050B00D2ACD29C53A23F7E017F007D007B017A4F
:0C051B000079001204AFC200E4F51922C0
:10074300EF640270031207F4539A7F43AF01439A95
:100753001053BAFE7E017F007D007B017A01790090
:090763001204AFC201E4F51A22F0
:10052700EF6402700853ACBF1207F4801B43AC4062
:1005370053D1F053AFDF43D10253D1FB53D1FE75F3
:10054700D4FF75D5E843D10853ACDF53AC7F43AF35
:100557000843AC1053BAFD7E017F007D007B017A12
:0C0567000279001204AFC202E4F5172272
:10057300EF640270085384BF1207F4801B43844066
:1005830053D10F53AFBF43D12053D1BF53D1EF75D5
:10059300D2FF75D3E843D1805384DF53847F43AFC5
:1005A3001043841053BAFB7E017F007D007B017AE8
:0C05B3000379001204AFC203E4F5182223
:100026001204696010D200F5992000FD740129F9C7
:06003600E43AFA80EB221F
:100812001204696010D201F59B2001FD740129F9CF
:06082200E43AFA80EB222B
:100828001204696010D202F5AD2002FD740129F9A5
:06083800E43AFA80EB2215
:10083E001204696010D203F5852003FD740129F9B5
:06084E00E43AFA80EB22FF
:030023000206B31F
:1006B300C0E0C083C082C0D030981CC298740025AB
:1006C30019F582E43400F583E599F00519C37480C4
:1006D30094814003751900309904C299C200D0D0A7
:0706E300D082D083D0E03289
:030043000205BFF4
:1005BF00C0E0C083C082C0D0E59A5401601D539A39
:1005CF00FE7400251AF582E43401F583E59BF005EE
:1005DF001AC3748094814003751A00E59A5402601F
:0F05EF0005539AFDC201D0D0D082D083D0E03224
:03008B000205FE6D
:1005FE00C0E0C083C082C0D0E5AC5401601D53ACD6
:10060E00FE74002517F582E43402F583E5ADF0059E
:10061E0017C3748094814003751700E5AC540260D3
:0F062E000553ACFDC202D0D0D082D083D0E032D1
:0300930002063D25
:10063D00C0E0C083C082C0D0E5845401601D5384E6
:10064D00FE74002518F582E43403F583E585F00585
:10065D0018C3748094814003751800E584540260BA
:0F066D00055384FDC203D0D0D082D083D0E032B9
:0F0878001207931202BE12076C120854D2AF225D
:10035700535443313546344B36305334205553418B
:1003670052543120546573742050726772616D6DF9
:1003770065210D0A00535443313546344B3630530B
:1003870034205553415254322054657374205072AF
:100397006772616D6D65210D0A005354433135460F
:1003A700344B36305334205553415254332054651F
:1003B70073742050726772616D6D65210D0A005369
:1003C7005443313546344B3630533420555341521C
:1003D700543420546573742050726772616D6D6573
:0403E700210D0A00DA
:100046001208787BFF7A0379571200267F0A7E0012
:100056001207D67BFF7A03797C1208127F0A7E008C
:100066001207D67BFF7A0379A11208287F0A7E0041
:100076001207D67BFF7A0379C612083E7F0A7E00F6
:050086001207D680FE08
:10046900BB010689828A83E0225002E722BBFE0291
:09047900E32289828A83E49322C4
:10048200BB010CE58229F582E5833AF583E022502F
:1004920006E92582F8E622BBFE06E92582F8E22279
:0D04A200E58229F582E5833AF583E4932293
:1004AF00EF4E6012EF60010EEDBB010B89828A8364
:1004BF00F0A3DFFCDEFA2289F05007F709DFFCA971
:0C04CF00F022BBFEFCF309DFFCA9F022C8
:00000001FF
