:030000000210707B
:0C107000787FE4F6D8FD7581200210B7EF
:10149D0075930075940075910075920075950075A2
:1014AD00960075B10075B20075B30075B40075C9BD
:0514BD000075CA0022C9
:10030E000000000000000000002F000000000700A9
:10031E00070000147F147F1400242A7F2A12006223
:10032E0064081323003649552250000005030000CF
:10033E0000001C224100000041221C000014083E57
:10034E0008140008083E0808000000A0600000081D
:10035E000808080800006060000000201008040271
:10036E00003E5149453E0000427F4000004261512F
:10037E004946002141454B31001814127F100027C9
:10038E0045454539003C4A4949300001710905038C
:10039E0000364949493600064949291E00003636BD
:1003AE000000000056360000000814224100001420
:1003BE0014141414000041221408000201510906FD
:1003CE0000324959513E007C1211127C007F49497E
:1003DE004936003E41414122007F4141221C007FAF
:1003EE0049494941007F09090901003E4149497ABD
:1003FE00007F0808087F0000417F41000020404137
:10040E003F01007F08142241007F40404040007FA2
:10041E00020C027F007F0408107F003E4141413EE6
:10042E00007F09090906003E4151215E007F09192E
:10043E0029460046494949310001017F0101003F2B
:10044E004040403F001F2040201F003F4038403FAB
:10045E00006314081463000708700807006151490F
:10046E00454300007F41410000552A552A550000A2
:10047E0041417F0000040201020400404040404020
:10048E00000001020400002054545478007F4844B8
:10049E00443800384444442000384444487F0038EF
:1004AE005454541800087E0901020018A4A4A47C18
:1004BE00007F080404780000447D400000408084E2
:1004CE007D00007F102844000000417F4000007C2A
:1004DE0004180478007C0804047800384444443836
:1004EE0000FC242424180018242418FC007C080482
:1004FE00040800485454542000043F444020003C5B
:10050E004040207C001C2040201C003C4030403CE1
:10051E00004428102844001CA0A0A07C0044645471
:08052E004C44141414141414BD
:09000E00D2C1D2A2C2A2C2C122D9
:09163D00C2C1C2A2D2C1D2A22294
:07006600AD0712000E7F78C8
:10006D00E4FEEEC39408748094805015EF30E704DD
:10007D00D2A28002C2A2D2C1C2C1EF25E0FF0E8082
:07008D00E1D2A2D2C1C2C101
:010094002249
:10161F001200667F4012006DAF0512006D02163D7D
:0E14E700EC24B0FF1214F57F011214F57F10F3
:1014F500120066E4FF12006DAF0512006D02163D85
:10150500AC07ED24B0FF1214F5EC54F0C4540F44AD
:0E15150010FF1214F5EC540F4401FF0214F500
:02142200AC0715
:10142400E4FBEBC3940874809480501BEB1214E823
:10143400E4FAEAC39480748094805008AF041216CE
:071444001F0A80EE0B80DBA4
:01144B00227E
:10147600E4FCECC3940874809480501A1214E7E4D8
:10148600FBEBC39480748094805008E4FF12161F0F
:061496000B80EE0C80DC6F
:01149C00222D
:0A139900900106EAF0A3EBF0A907AB
:1013A300AF05AC07ECFFC3900109E09F7480F89090
:1013B3000108E064809840241214E7AB01EBFFD3EB
:1013C300900107E09F7480F8900106E064809840E4
:0C13D30008E4FF12161F0B80E40C80C819
:0113DF0022EB
:100FDE007FAE1214F5E4FF1214F07F401214F57F69
:100FEE00811214F57FCF1214F57FA11214F57FC86C
:100FFE001214F57FA61214F57FA81214F57F3F1276
:10100E0014F57FD31214F5E4FF1214F57FD51214E4
:10101E00F57F801214F57FD91214F57FF11214F5B5
:10102E007FDA1214F57F121214F57FDB1214F57F9E
:10103E00401214F57F201214F57F021214F57F8DE5
:10104E001214F57F141214F57FA41214F57FA61254
:10105E0014F57FAF1214F5E4FF121422E4FDFF0223
:02106E00150566
:100E9C00900103EFF0A3ECF0A3EDF0A3EBF0A3EAC9
:040EAC00F0A3E9F0D6
:100EB000E4A3F0FCA3F0900106E0FBA3E0FAA3E0BA
:100EC000F990010AE0F58275830012082860702409
:100ED000E0900109F0900103E0D3947E7480948047
:100EE0004010E4F0900105E004F07006900104E089
:100EF00004F0900103E0FFA3A3E0FD121505E4FC5C
:100F0000ECC39406748094805025900109E075F03C
:100F100006A4240EF582E5F03403F583E5822CF572
:100F200082E43583F583E493FF12161F0C80D19081
:0F0F30000103E02406F090010AE004F0020EB67F
:010F3F00228F
:050003007F020213471B
:10154100AD07AC06538EEF538EF7438E04ECF5D600
:0B155100AF058FD753AFFB438E102275
:10134700EF6402700C438E017FE07EFE1215418030
:101357001BC28E538EFE438E405389BF5389CF7570
:101367008DFE758BE0C2AB538FFDD28EE598543F4F
:101377004440F598D2ACD29C53A23F7E017F007DBA
:10138700007B017A0079001208C5C200E4900100D1
:02139700F02242
:1013E00090017BEBF0A3EAF0A3E9F0A3ECF0A3ED0E
:0113F000F00C
:1013F100E4FFFED390017FE09F90017EE09E4020BC
:10140100D20090017BE0FBA3E0FAA3E0F98F828E8A
:1014110083120828F5992000FD0FBF00010E80D32B
:0114210022A8
:03002300020026B2
:10002600C0E0C083C082C0D0309821C29890010041
:10003600E02400F582E43400F583E599F0900100B0
:10004600E004F0C3748094814002E4F0309904C265
:0C00560099C200D0D0D082D083D0E0321C
:100DE2004201FE00004202000000420202000042F4
:090DF200020400004202060000A8
:1000A600AD07EDD394047480948040037F0122ED64
:1000B600600302013A12080FFED394037480948001
:1000C60040037F0222C28CC2A9C2B95389F0538E63
:1000D6007F538FFE90000212082864017002D2A995
:1000E60090000112082864017002D2B9EE4289908C
:1000F6000003120828FF7E007003438E80EF64021F
:100106004E700343890490000412082864017003AA
:10011600438F01900005120877E5F0F58C900005F5
:10012600120877F58A90000712082864017002D237
:100136008C7F0022ED640160030201C412080FFEE9
:10014600C394037480948040037F0222C28EC2ABA4
:10015600C2BB53890F538EBF538FFD900002120806
:100166002864017002D2AB90000112082864017065
:1001760002D2BBEEC454F04289900003120828FF55
:100186007E007003438E40EF64024E700343894045
:1001960090000412082864017003438F0290000542
:1001A600120877E5F0F58D900005120877F58B902B
:1001B600000712082864017002D28E7F0022ED64C7
:1001C60002706A900003120828FED3940274809489
:1001D6008040037F0222538EE353AFFB538FFB9085
:1001E60000021208286401700343AF04EEFF7E008C
:1001F6007003438E04EF64024E7003438E08900032
:100206000412082864017003438F04900005120845
:1002160077E5F0F5D6900005120877F5D790000738
:1002260012082864017003438E107F0022ED6403D8
:100236007067900003120828FED39402748094809D
:1002460040037F022253D1F053AFDF900002120821
:10025600286401700343AF20EEFF7E00700343D194
:1002660002EF64024E700343D10690000412082880
:100276006401700343D101900005120877E5F0F59B
:10028600D4900005120877F5D59000071208286467
:1002960001700343D1087F0022ED6404706790006B
:1002A60003120828FD7C00D39402748094804003D6
:1002B6007F022253D10F53AFBF9000021208286469
:1002C60001700343AF40ED4C700343D1209000030F
:1002D6001208286402700343D160900004120828B3
:1002E6006401700343D110900005120877FDACF04D
:1002F600ECF5D28DD39000071208286401700343F1
:08030600D1807F00227F02225A
:10144C00E4900101F0A3F0A304F0E4A3F0A3F0A353
:10145C007428F0A3E4F0A3F07B017A017901FF1268
:09146C0000A6E49001FEF0A3F0DB
:011475002254
:03000B0002155C7F
:10155C00C0E0C083C0829001FFE004F070069001EF
:0B156C00FEE004F0D082D083D0E0321B
:03001B0002157754
:10157700C0E0C083C082900201E004F070069002D0
:0B15870000E004F0D082D083D0E032FE
:03006300021592F1
:10159200C0E0C083C082900203E004F070069002B3
:0B15A20002E004F0D082D083D0E032E1
:03009B000215AD9E
:1015AD00C0E0C083C082900205E004F07006900296
:0B15BD0004E004F0D082D083D0E032C4
:0300A3000215C87B
:1015C800C0E0C083C082900207E004F07006900279
:0B15D80006E004F0D082D083D0E032A7
:100DFB004101FD004101CB004101A8004201C900A6
:100E0B00094101CC004801ED303030303030303604
:100E1B004801A03030303030303035602001A937F8
:100E2B006338633164383562393636346232383878
:100E3B00323233353364393861363330636534607D
:100E4B002001CD31396435386264646263663634AF
:100E5B0064663962363930393463643964306165BC
:100E6B006438664801980000000000000002480149
:100E7B009030303030303030344801F53030303055
:100E8B0030303034490187FFFF005500000000551A
:10152300D3EF9400EE940040147D6E7C00ED1D70AB
:0D153300011CED4C70F7EF1F70E61E80E309
:011540002288
:10160D00E4900100F07E01FFFD7B017A007900027C
:02161D0008C5FE
:0B10FC0090017BEBF0A3EAF0A3E9F009
:10110700E4900185F0A3F0900181E0FEA3E0FFC326
:10111700EE94004067900185EEF0A3EFF090018117
:10112700E0FEA3E0FF900184E02FFB900183E03E07
:10113700FA900185E0FCA3E0FDC39BEC9A503DC308
:10114700ED9FFFEC9EFE90017EE0FBA3E0FAA3E09B
:10115700F98F828E83120828FF90017BE0FBA3E0C2
:10116700FAA3E0F98D828C83EF120855900186E08F
:0C11770004F070A9900185E004F080A154
:011183002249
:0B12F20090017BEBF0A3EAF0A3E9F011
:1012FD00E4A3F0FEAF05A3ECF0A3EFF07F029001A5
:10130D0080E024FFFD90017FE034FFFCC3EF9DEEF4
:10131D009C502090017BE0FBA3E0FAA3E0F98F82C3
:10132D008E83120828FD90017EE02DF00FBF000185
:09133D000E80CB90017EE0F0FF70
:011346002284
:0B118400900102EBF0A3EAF0A3E9F0F9
:10118F00E4A3F0A374FFF0E4A3F0D3ED9400EC9488
:10119F0000401C900102E0FBA3E0FAA3E0F974FF0A
:1011AF002DF58274FF3CF583120828900106F0900C
:1011BF000102E0FBA3E0FAA3E0F91212F29001079B
:1011CF00EFF0900106E0B507069001057401F0906D
:0411DF000105E0FF27
:0111E30022E9
:1015F90057656C636F6D652044656D6F2053797312
:0416090074656D0097
:1015E300C28CE49001FEF0A3F09001A8F09001CB2F
:0615F300F09001FDF02262
:1014C20012149D120FDE12147612000312144C1223
:1014D20015E3E4F5907BFF7A1579F9FDFC7F08129C
:0514E2000E9CD2AF22B8
:0E162F001214C21208F1120A3312124480F58E
:100C5100436F6E66696775726520576966693A53B5
:100C61006F667400436F6E666967757265205769B8
:100C710066693A4150005265736574205769666927
:100C81002100456E7465722062696E6461626C65F3
:100C9100206D6F6465210052657374617274205711
:100CA100696669210057696669206C6F7373210059
:100CB1000000000000000000000000000000000033
:100CC1000000000000000000000000000000000023
:100CD1000000000000000000000000000000000013
:100CE1000000000000000000000000000000000003
:100CF10000000000000000000000000000000000F3
:100D010000000000000000000000000000000000E2
:100D110000000000000000000000000000000000D2
:040D210000000000CE
:1008F100120F40EF7003020A32900005E09001CC24
:10090100F0900004E0FF24FD602B24FC607924FAC0
:10091100700302099F24FE7003020A0D24FE700376
:10092100020A1B24106003020A2FEF04FDE4FBFA04
:100931007F73020A18900008E06401702C7B017A31
:1009410000790012129C1205369001CCE004F0905F
:100951000004E02402FD7B047A007F0E7E00120574
:1009610042900009E0FF120B72900008E0FF640260
:100971006003020A2F900004E004FDEF2401FBE470
:1009810033FA7F0E020A2A9001A87401F0C28CE4A6
:100991009001FEF0A3F0120536D28C020A2FE490EA
:1009A10001FDF09001CBF09001A804F0900004E06B
:1009B100FF900008E0FDA3E0FB120D25900008E088
:1009C100FF7E00C3748094804010D3EF940774803D
:1009D100948050069001CB7401F0C3EF9408EE644B
:1009E1008094804015D3EF940FEE64809480500A78
:1009F1009001CB7401F09001FDF0E4FF120B7290B5
:100A01000004E004FDE4FBFA7F09800B900004E0A0
:100A110004FDE4FBFA7F09FE8011900004E004FD6F
:100A2100900008E0FB7A007F0A7E00120542121650
:020A31000D2294
:100A3300E4900101F020A30F7F0AFE12152320A3E7
:100A4300069001017401F020A4107F0A7E001215A4
:100A53002320A4069001017402F020A5107F0A7ED2
:100A63000012152320A5069001017403F020A010A5
:100A73007F0A7E0012152320A0069001017404F062
:100A830020A6107F0A7E0012152320A606900101DE
:100A93007405F0900101E0FF7003020B719001A84F
:100AA300E064016003020B71D3EF940574809480BA
:100AB3005016900108E4F0A37408F07B807A007D5F
:100AC300027C00E4FF1213999001CCE0600204F071
:100AD300900101E024FE602014603814604E14601D
:100AE300642404707A7BFF7A0C79517D027C007F49
:100AF30002120E9C7B0180117BFF7A0C79657D02CB
:100B03007C007F02120E9C7B027A007D097F0A7EA5
:100B13000080497BFF7A0C79777D027C007F02128B
:100B23000E9CE4FBFA7D0B7F09FE80307BFF7A0C81
:100B330079837D027C007F02120E9CE4FBFA7D1513
:100B43007F09FE80177BFF7A0C79987D027C007FFA
:100B530002120E9CE4FBFA7D297F09FE1205423046
:0E0B6300A3FD30A4FA30A5F730A0F430A6F1BF
:010B71002261
:100F4000E4900101F0900100E0FF7E00D394007472
:100F50008094805003020FD520007A900000E0F4C6
:100F60007073D3EF940274809480406CA3E0F470AB
:100F7000629001CAE02405FF9001C9E03400FE90B0
:100F80000100E0D39FE49E400312160D900100E0A3
:100F9000FBFFD39001CAE09F9001C9E09400503854
:100FA000900002E0FEA3E07C002400FFEC3ECF2492
:100FB00004CF3400FEEB6F7001EE701C7B017A00F1
:100FC0007900900100E0FD121184900101EFF070B2
:0D0FD000078002800012160D900101E0FF65
:010FDD0022F1
:0C053600900004E004FDE4FBFA7F09FEE5
:10054200900102EEF0A3EFF0A3EDF0A3EAF0A3EB2B
:01055200F0B8
:1005530078077C017D017BFF7A0C79B17E007F7483
:100563001207E978077C017D017B017A0179877E97
:10057300007F091207E9900102A3E024FC90010A1D
:10058300F0900104E0FF90010BF09001CCE09001AA
:100593000CF0EF6402600302069F7B0190017E046E
:1005A300F0A37401F0A37490F0A3E4F0A37408F033
:1005B300A3E4F0A37408F07A0179071210FC900108
:1005C3007E7401F0A37401F0A374F5F0A3E4F0A327
:1005D3007410F0A3E4F0A37408F07B017A017907A7
:1005E3001210FC90017E7401F0A37401F0A374ED6A
:1005F300F0A3E4F0A37418F0A3E4F0A37408F07B71
:10060300017A0179071210FC90017E7401F0A37442
:1006130001F0A374A0F0A3E4F0A37420F0A3E4F02A
:10062300A37408F07B017A0179071210FC90017E14
:100633007401F0A37401F0A374A9F0A3E4F0A3740C
:1006430028F0A3E4F0A37420F07B017A0179071268
:1006530010FC90017E7401F0A37401F0A37498F070
:10066300A3E4F0A3744AF0A3E4F0A37408F07B01BD
:100673007A0179071210FC90017E7401F0A37401D2
:10068300F0A374CDF0A3E4F0A37452F0A3E4F0A3B9
:100693007420F07B017A0179071210FC900104E0C9
:1006A300FF7E0064127007A3A3E090010FF0EF64D4
:1006B300044E700C900105E07004A3E06403601223
:1006C300900104E064057021A3E07004A3E06404D6
:1006D3007017900105A3E090010FF0E590C4540F4B
:1006E300A3F0E4A3F0A3F0A3F07B017A01790790D0
:1006F3000102E0FCA3E0FD1212F2900102E0FCA370
:10070300E0FD2406F58274013CF583EFF07B017A6A
:060713000179070213E06A
:101244009001A8E06401700C9001FEE07002A3E03C
:101254007002D28C9001FEE0FEA3E0FFEE3395E035
:10126400FDFCE47BA07A8CF9F8D31208AF50281265
:1012740015E3900108E4F0A37408F07B807A007D04
:10128400027C00E4FF1213997BFF7A0C79A67D049B
:081294007C007F24120E9C2255
:10129C0090000912082824FE601C24FE602824FCFF
:1012AC0060342407703F90000A1208286401700310
:1012BC00D29422C2942290000A120828640270036D
:1012CC00D29522C2952290000A1208286404700359
:1012DC00D29622C2962290000A1208286408700343
:0612EC00D29722C29722F6
:1011E4004C313A30204C323A30204C333A30204C97
:1011F400343A3000310030004D3A41004D3A53004A
:101204004D3A4120433A53004D3A5320433A41006A
:101214004D3A5320433A4120573A31004D3A532036
:10122400433A4120573A31204E3A31004D3A532047
:10123400433A4120573A31204E3A3120503A310056
:100B7200900101EFF09001FDE07003020C3A900148
:100B820001E07024900108F0A37408F07B807A00E1
:100B92007D047C00E4FF1213997BFF7A1179E47DD6
:100BA200047C007F06120E9C900101E0FF6401604C
:100BB20003EF70187BFF3094067A1179F880047A7B
:100BC2001179FA7D047C007F18120E9C900101E0DD
:100BD200FF64026003EF70187BFF3095067A11798B
:100BE200F880047A1179FA7D047C007F36120E9C1B
:100BF200900101E0FF64046003EF70187BFF309600
:100C0200067A1179F880047A1179FA7D047C007FE2
:100C120054120E9C900101E0FF64086003EF702EF5
:100C22007BFF3097067A1179F880047A1179FA7D80
:100C3200047C007F72020E9C900108E4F0A374060B
:0F0C4200F07B807A007D047C00E4FF121399227E
:100D2500900101EDF0A3EBF0EF640D6003020DE11E
:100D3500900108F0A37404F07B807A007D027C00AA
:100D4500E4FF121399900102E024FE601F24FD6068
:100D55002314602824F4602C24F8602824E0602CF7
:100D6500243970787BFF7A1179FC80677BFF7A12D2
:100D75007900805F7BFF7A12790480577BFF7A12B6
:100D8500790C804F7BFF7A1279148047900101E03E
:100D9500FF7E00C3748094804019D3EF940774805C
:100DA5009480500F7BFF7A1279207D027C007F06AC
:100DB500120E9C900101E0FF7E00C394087480949C
:100DC500804019D3EF940F74809480500F7BFF7A85
:0D0DD5001279307D027C007F06120E9C22F8
:10107C0002162FE493A3F8E493A34003F68001F245
:10108C0008DFF48029E493A3F85407240CC8C33375
:10109C00C4540F4420C8834004F456800146F6DF44
:1010AC00E4800B0102040810204080900DE2E47EE5
:1010BC00019360BCA3FF543F30E509541FFEE49339
:1010CC00A360010ECF54C025E060A840B8E493A300
:1010DC00FAE493A3F8E493A3C8C582C8CAC583CA2B
:1010EC00F0A3C8C582C8CAC583CADFE9DEE780BEE3
:010E9B000056
:10071900E709F608DFFA8046E709F208DFFA803EC2
:1007290088828C83E709F0A3DFFA8032E309F608AF
:10073900DFFA8078E309F208DFFA807088828C8317
:10074900E309F0A3DFFA806489828A83E0A3F608CB
:10075900DFFA805889828A83E0A3F208DFFA804CA5
:1007690080D280FA80C680D4806980F2803380107C
:1007790080A680EA809A80A880DA80E280CA8033E5
:1007890089828A83ECFAE493A3C8C582C8CCC5835D
:10079900CCF0A3C8C582C8CCC583CCDFE9DEE7802D
:1007A9000D89828A83E493A3F608DFF9ECFAA9F0AC
:1007B900EDFB2289828A83ECFAE0A3C8C582C8CC02
:1007C900C583CCF0A3C8C582C8CCC583CCDFEADE1B
:1007D900E880DB89828A83E493A3F208DFF980CC7D
:1007E90088F0EF60010E4E60C388F0ED2402B40476
:1007F9000050B9F582EB2402B4040050AF2323451D
:06080900822390076973D1
:10080F00BB010689828A83E0225002E722BBFE02E7
:09081F00E32289828A83E493221A
:10082800BB010CE58229F582E5833AF583E0225085
:1008380006E92582F8E622BBFE06E92582F8E222CF
:0D084800E58229F582E5833AF583E49322E9
:10085500F8BB010DE58229F582E5833AF583E8F0D9
:10086500225006E92582C8F622BBFE05E92582C885
:02087500F2226D
:10087700BB0110E58229F582E5833AF583E0F5F0BF
:10088700A3E0225009E92582F886F008E622BBFE9C
:100897000AE92582F8E2F5F008E222E5832AF583E2
:0808A700E993F5F0A3E99322A7
:1008AF00EB9FF5F0EA9E42F0E99D42F0EC6480C8C0
:0608BF0064809845F02260
:1008C500EF4E6012EF60010EEDBB010B89828A834A
:1008D500F0A3DFFCDEFA2289F05007F709DFFCA957
:0C08E500F022BBFEFCF309DFFCA9F022AE
:00000001FF
