:030000000213EDFB
:0C13ED00787FE4F6D8FD758120021434EE
:1018C8007593007594007591007592007595007573
:1018D800960075B10075B20075B30075B40075C98E
:0518E8000075CA00229A
:10030E000000000000000000002F000000000700A9
:10031E00070000147F147F1400242A7F2A12006223
:10032E0064081323003649552250000005030000CF
:10033E0000001C224100000041221C000014083E57
:10034E0008140008083E0808000000A0600000081D
:10035E000808080800006060000000201008040271
:10036E00003E5149453E0000427F4000004261512F
:10037E004946002141454B31001814127F100027C9
:10038E0045454539003C4A4949300001710905038C
:10039E0000364949493600064949291E00003636BD
:1003AE000000000056360000000814224100001420
:1003BE0014141414000041221408000201510906FD
:1003CE0000324959513E007C1211127C007F49497E
:1003DE004936003E41414122007F4141221C007FAF
:1003EE0049494941007F09090901003E4149497ABD
:1003FE00007F0808087F0000417F41000020404137
:10040E003F01007F08142241007F40404040007FA2
:10041E00020C027F007F0408107F003E4141413EE6
:10042E00007F09090906003E4151215E007F09192E
:10043E0029460046494949310001017F0101003F2B
:10044E004040403F001F2040201F003F4038403FAB
:10045E00006314081463000708700807006151490F
:10046E00454300007F41410000552A552A550000A2
:10047E0041417F0000040201020400404040404020
:10048E00000001020400002054545478007F4844B8
:10049E00443800384444442000384444487F0038EF
:1004AE005454541800087E0901020018A4A4A47C18
:1004BE00007F080404780000447D400000408084E2
:1004CE007D00007F102844000000417F4000007C2A
:1004DE0004180478007C0804047800384444443836
:1004EE0000FC242424180018242418FC007C080482
:1004FE00040800485454542000043F444020003C5B
:10050E004040207C001C2040201C003C4030403CE1
:10051E00004428102844001CA0A0A07C0044645471
:08052E004C44141414141414BD
:091A2C00D2C1D2A2C2A2C2C122A1
:091A3500C2C1C2A2D2C1D2A22298
:07006600AD07121A2C7F7890
:10006D00E4FEEEC39408748094805015EF30E704DD
:10007D00D2A28002C2A2D2C1C2C1EF25E0FF0E8082
:07008D00E1D2A2D2C1C2C101
:010094002249
:101A0E001200667F4012006DAF0512006D021A358E
:0E18ED00EC24B0FF1218FB7F011218FB7F10D5
:1018FB00120066E4FF12006DAF0512006D021A357F
:10190B00AC07ED24B0FF1218FBEC54F0C4540F4499
:0E191B0010FF1218FBEC540F4401FF0218FBE2
:02182500AC070E
:10182700E4FBEBC3940874809480501BEB1218EE12
:10183700E4FAEAC39480748094805008AF04121AC3
:071847000E0A80EE0B80DBAE
:01184E002277
:1018A100E4FCECC3940874809480501A1218EDE49F
:1018B100FBEBC39480748094805008E4FF121A0EED
:0618C1000B80EE0C80DC40
:0118C70022FE
:0A16DC00900005EAF0A3EBF0A90767
:1016E600AF05AC07ECFFC3900008E09F7480F8904C
:1016F6000007E064809840241218EDAB01EBFFD39D
:10170600900006E09F7480F8900005E064809840A1
:0C17160008E4FF121A0E0B80E40C80C8DF
:0117220022A4
:101354007FF47E011219297FAE1218FBE4FF1218E4
:10136400F67F401218FB7F811218FB7FCF1218FB07
:101374007FA11218FB7FC81218FB7FA61218FB7FEF
:10138400A81218FB7F3F1218FB7FD31218FBE4FF4F
:101394001218FB7FD51218FB7F801218FB7FD9121D
:1013A40018FB7FF11218FB7FDA1218FB7F12121858
:1013B400FB7FDB1218FB7F401218FB7F201218FB07
:1013C4007F021218FB7F8D1218FB7F141218FB7F0B
:1013D400A41218FB7FA61218FB7FAF1218FBE4FFC0
:0913E400121825E4FDFF02190BAB
:10121600900002EFF0A3ECF0A3EDF0A3EBF0A3EA4D
:04122600F0A3E9F058
:10122A00E4A3F0FCA3F0900005E0FBA3E0FAA3E03E
:10123A00F9900009E0F58275830012085E60702457
:10124A00E0900008F0900002E0D3947E74809480CD
:10125A004010E4F0900004E004F07006900003E00F
:10126A0004F0900002E0FFA3A3E0FD12190BE4FCD6
:10127A00ECC39406748094805025900008E075F0C1
:10128A0006A4240EF582E5F03403F583E5822CF5F5
:10129A0082E43583F583E493FF121A0E0C80D19011
:0F12AA000002E02406F0900009E004F002123088
:0112B9002212
:0A000E007F0212168A7F020219B366
:10002600AD07AC06538EEF538EF7438E04ECF5D630
:0B003600AF058FD753AFFB438E1022A5
:10168A00EF6402700C438E017FE07EFE120026801A
:10169A001BC28E538EFE438E405389BF5389CF752A
:1016AA008DFE758BE0C2AB538FFDD28EE598543F09
:1016BA004440F598D2ACD29C53A23F7E017F007D74
:1016CA00007B017A0279201208F7C200E490032015
:0216DA00F022FC
:1019B300EF640270077FE07EFE120026539A7F4396
:0919C300AF01439A1053BAFE2251
:1017230090000BEBF0A3EAF0A3E9F0A3ECF0A3ED38
:01173300F0C5
:10173400E4FFFED390000FE09F90000EE09E402057
:10174400D20090000BE0FBA3E0FAA3E0F98F828EB5
:101754008312085EF5992000FD0FBF00010E80D3AF
:011764002262
:10176500900111EBF0A3EAF0A3E9F0A3ECF0A3EDEF
:01177500F083
:10177600E4FFFED3900115E09F900114E09E402007
:10178600D201900111E0FBA3E0FAA3E0F98F828E6B
:101796008312085EF59B2001FD0FBF00010E80D36A
:0117A6002220
:030023000217E9D8
:1017E900C0E0C083C082C0D0309821C29890032045
:1017F900E02420F582E43402F583E599F090032092
:10180900E004F0C3748094814002E4F0309904C28A
:0C18190099C200D0D0D082D083D0E03241
:030043000219CCD3
:1019CC00C0E0E59A54016003539AFEE59A54026014
:0919DC0005539AFDC201D0E0326E
:101162004203A700004203A900004203AB00004271
:0911720003AD00004203AF0000D0
:1000A600AD07EDD394047480948040037F0122ED64
:1000B600600302013A120845FED3940374809480CB
:1000C60040037F0222C28CC2A9C2B95389F0538E63
:1000D6007F538FFE90000212085E64017002D2A95F
:1000E60090000112085E64017002D2B9EE42899056
:1000F600000312085EFF7E007003438E80EF6402E9
:100106004E700343890490000412085E6401700374
:10011600438F019000051208BFE5F0F58C900005AD
:100126001208BFF58A90000712085E64017002D2B9
:100136008C7F0022ED640160030201C4120845FEB3
:10014600C394037480948040037F0222C28EC2ABA4
:10015600C2BB53890F538EBF538FFD900002120806
:100166005E64017002D2AB90000112085E640170F9
:1001760002D2BBEEC454F0428990000312085EFF1F
:100186007E007003438E40EF64024E700343894045
:1001960090000412085E64017003438F029000050C
:1001A6001208BFE5F0F58D9000051208BFF58B909B
:1001B600000712085E64017002D28E7F0022ED6491
:1001C60002706A90000312085EFED3940274809453
:1001D6008040037F0222538EE353AFFB538FFB9085
:1001E600000212085E6401700343AF04EEFF7E0056
:1001F6007003438E04EF64024E7003438E08900032
:100206000412085E64017003438F0490000512080F
:10021600BFE5F0F5D69000051208BFF5D7900007A8
:1002260012085E64017003438E107F0022ED6403A2
:10023600706790000312085EFED394027480948067
:1002460040037F022253D1F053AFDF900002120821
:100256005E6401700343AF20EEFF7E00700343D15E
:1002660002EF64024E700343D10690000412085E4A
:100276006401700343D1019000051208BFE5F0F553
:10028600D49000051208BFF5D590000712085E64E9
:1002960001700343D1087F0022ED6404706790006B
:1002A6000312085EFD7C00D39402748094804003A0
:1002B6007F022253D10F53AFBF90000212085E6433
:1002C60001700343AF40ED4C700343D1209000030F
:1002D60012085E6402700343D16090000412085E47
:1002E6006401700343D1109000051208BFFDACF005
:1002F600ECF5D28DD390000712085E6401700343BB
:08030600D1807F00227F02225A
:10184F00E4900000F0A3F0A304F0E4A3F0A3F0A34E
:10185F007428F0A3E4F0A3F07B017A007900FF1263
:09186F0000A6E49003A7F0A3F029
:01187800224D
:03000B00020046AA
:10004600C0E0C083C0829003A8E004F0700690036D
:0B005600A7E004F0D082D083D0E0329D
:03001B0002194780
:10194700C0E0C083C0829003AAE004F07006900351
:0B195700A9E004F0D082D083D0E03281
:030063000219621D
:10196200C0E0C083C0829003ACE004F07006900334
:0B197200ABE004F0D082D083D0E03264
:03009B0002197DCA
:10197D00C0E0C083C0829003AEE004F07006900317
:0B198D00ADE004F0D082D083D0E03247
:0300A300021998A7
:10199800C0E0C083C0829003B0E004F070069003FA
:0B19A800AFE004F0D082D083D0E0322A
:10158B00436F6E66696775726520576966693A5372
:10159B006F667400436F6E66696775726520576975
:1015AB0066693A41500052657365742057696669E4
:1015BB002100456E7465722062696E6461626C65B0
:1015CB00206D6F64652100526573746172742057CE
:0515DB006966692100B2
:04117B004103B1007B
:100AF000E4FF1215E0EF7003020CB29003217401C1
:100B0000F0900225E09003B1F0900224E024FD6013
:100B10004524FC7003020BF024FA7003020C22241B
:100B2000FE7003020C5F24FE7003020C822410602E
:100B300003020CAF7B017A037933E4900006F09056
:100B400003B1E0FF900007E4F0A3EFF0E4A3F0A30B
:100B5000F07D73020C7F900228E0640170627B01DB
:100B60007A0279201215357B017A037923900006E9
:100B70007404F09003B1E0FF900007E4F0A3EFF0FD
:100B8000E4A3F0A3F07D09FC120E619003B1E00430
:100B9000F07B017A0379239000067405F09003B18D
:100BA000E0FF900007E4F0A3EFF0A3E4F0A37404E7
:100BB000F07D0E7C00120E61900229E0FF12109968
:100BC000900228E064026003020CAF7B017A037993
:100BD000239000067404F09003B1E0FF900007E456
:100BE000F0A3EFF0A3E4F0A37403F07D0E020CAACF
:100BF000C28CE49003A7F0A3F07B017A03792390E1
:100C000000067408F09003B1E0FF900007E4F0A341
:100C1000EFF0E4A3F0A3F07D09FC120E61D28C0288
:100C20000CAF900224E0FF900228E0FDA3E0FB124D
:100C30000FB99003A6E06005E4FF1210997B017ADA
:100C4000037923900006740EF09003B1E0FF90004A
:100C500007E4F0A3EFF0E4A3F0A3F07D0980207B8C
:100C6000017A0379239000067410F09003B1E0FF3D
:100C7000900007E4F0A3EFF0E4A3F0A3F07D09FCFB
:100C8000802A7B017A0379239000067412F0900386
:100C9000B1E0FF900007E4F0A3EFF0900228E0FF3E
:100CA000900009E4F0A3EFF07D0A7C00120E6112BF
:020CB00019E544
:010CB200221F
:10092300E4900000F020A30F7F0AFE12192920A3F0
:10093300069000007401F020A4107F0A7E001219B3
:100943002920A4069000007402F020A5107F0A7EDF
:100953000012192920A5069000007403F020A010AE
:100963007F0A7E0012192920A0069000007404F06B
:1009730020A6107F0A7E0012192920A606900000E7
:100983007405F0900000E0FF7003020AEF9003216A
:10099300E064016003020AEFC29CD3EF9405748004
:1009A30094805016900007E4F0A37408F07B807ADB
:1009B300007D027C00E4FF1216DC9003B1E004F03A
:1009C300900000E024FE6045146078147003020A6E
:1009D30078147003020AAA24046003020ADD7BFF71
:1009E3007A15798B7D027C007F021212167B017AC5
:1009F3000379239000067409F09003B1E0FF90009F
:100A030007E4F0A3EFF0A3E4F0A304802E7BFF7AC6
:100A130015799F7D027C007F021212167B017A03F7
:100A230079239000067409F09003B1E0FF9000076A
:100A3300E4F0A3EFF0A3E4F0A37402F07D0A7C00DA
:100A4300020ADA7BFF7A1579B17D027C007F0212FC
:100A530012167B017A037923900006740BF090033E
:100A6300B1E0FF900007E4F0A3EFF0E4A3F0A3F0FC
:100A73007D09FC80627BFF7A1579BD7D027C007F56
:100A8300021212167B017A0379239000067415F083
:100A93009003B1E0FF900007E4F0A3EFF0E4A3F0CC
:100AA300A3F07D09FC80307BFF7A1579D27D027C2F
:100AB300007F021212167B017A03792390000674D9
:100AC30029F09003B1E0FF900007E4F0A3EFF0E416
:100AD300A3F0A3F07D09FC120E6130A3FD30A4FA4C
:0C0AE30030A5F730A0F430A6F11219E5A0
:010AEF0022E4
:1019FA0057656C636F6D652044656D6F205379730D
:041A0A0074656D0092
:101879001218C81213541218A112000E12184FC2CE
:1018890094C295C296C2977BFF7A1979FAE4FDFC56
:081899007F08121216D2AF22E3
:0E1A1E00121879120AF01209231214D980F559
:1015350090000912085E24FE601C24FE602824FC2D
:1015450060342407703F90000A12085E640170033E
:10155500D29422C2942290000A12085E640270039B
:10156500D29522C2952290000A12085E6404700387
:10157500D29622C2962290000A12085E6408700371
:06158500D29722C297225A
:1005360057696669206C6F7373210052583A0054EC
:10054600583A000D0A0000000000000000000000FC
:100556000000000000000000000000000000000095
:100566000000000000000000000000000000000085
:100576000000000000000000000000000000000075
:100586000000000000000000000000000000000065
:100596000000000000000000000000000000000055
:1005A6000000000000000000000000000000000045
:1005B6000000000000000000000000000000000035
:1005C6000000000000000000000000000000000025
:1005D6000000000000000000000000000000000015
:1005E6000000000000000000000000000000000005
:1005F60000000000000000000000000000000000F5
:1006060000000000000000000000000000000000E4
:1006160000000000000000000000000000000000D4
:1006260000000000000000000000000000000000C4
:1006360000000000000000000000000000000000B4
:1006460000000000000000000000000000000000A4
:100656000000000000000000000000000000000094
:100666000000000000000000000000000000000084
:100676000000000000000000000000000000000074
:100686000000000000000000000000000000000064
:100696000000000000000000000000000000000054
:1006A6000000000000000000000000000000000044
:1006B6000000000000000000000000000000000034
:1006C6000000000000000000000000000000000024
:1006D6000000000000000000000000000000000014
:1006E6000000000000000000000000000000000004
:1006F60000000000000000000000000000000000F4
:1007060000000000000000000000000000000000E3
:1007160000000000000000000000000000000000D3
:1007260000000000000000000000000000000000C3
:1007360000000000000000000000000000000000B3
:09074600000000000000000000AA
:10192900D3EF9400EE940040147D6E7C00ED1D70A1
:0D193900011CED4C70F7EF1F70E61E80E3FF
:01194600227E
:1019E500E4900320F07E01FFFD7B017A027920124D
:0519F50008F7D29C225E
:1015E000E4900000F0900320E0D394007480948095
:1015F000403A2000377F647E00121929C29C7B018B
:101600007A027920E0FF90000FE4F0A3EFF0E4FF0E
:101610001212BA7B017A027920900320E0FD7C004F
:101620001217A7900000EFF0700580001219E590E6
:041630000000E0FFD7
:011634002293
:0B16350090000BEBF0A3EAF0A3E9F03B
:10164000E4A3F0FEAF05A3ECF0A3EFF07F0290005F
:1016500010E024FFFD90000FE034FFFCC3EF9DEE8F
:101660009C502090000BE0FBA3E0FAA3E0F98F82EE
:101670008E8312085EFD90000EE02DF00FBF00017A
:091680000E80CB90000EE0F0FF9B
:01168900223E
:0B17A700900001EBF0A3EAF0A3E9F0D2
:1017B200E4A3F0900001E0FBA3E0FAA3E0F974FFD8
:1017C2002DF58274FF3CF58312085E900005F0E46B
:1017D200FF121635900005E0B5070690000474016B
:0617E200F0900004E0FF9E
:0117E80022DE
:100E6100900001EBF0A3EAF0A3E9F0A3ECF0A3ED0D
:100E7100F064734C7003020F5D900004E0FEA3E088
:100E8100FFEE6003020F17EF24F6602014602F14A9
:100E9100603E24FE604C2405707C900001E0FBA3C1
:100EA100E0FAA3E0F990000374058067900001E087
:100EB100FBA3E0FAA3E0F9900003740680559000CB
:100EC10001E0FBA3E0FAA3E0F9900003740780437B
:100ED100900001E0FBA3E0FAA3E0F990000374089D
:100EE1008031900001E0FBA3E0FAA3E0F990000358
:100EF100740A12088BE590C4540F90000912088BF4
:100F010090000A740112088B90000BE412088B9078
:100F1100000CE412088B900006E0FF900001E0FB5A
:100F2100A3E0FAA3E0F9900004EF12088B90000708
:100F3100A3E090000512088B900004E07004A3E088
:100F410064096018900009A3E0FF900001E0FBA391
:100F5100E0FAA3E0F9900008EF12088B900001E09D
:100F6100FBA3E0FAA3E0F9A3E0FCA3E0FD12163530
:100F7100900001E0FBA3E0FAA3E0F9900005E02472
:100F8100FFFD900004E034FF8D82F583EF12088BA2
:100F9100900004E0FCA3E0FD121723900001E0FBA8
:100FA100A3E0FAA3E0F9A3E0FFA3E090000FCFF0E4
:080FB100A3EFF07F010212BA68
:1014D900900321E06401700C9003A7E07002A3E07F
:1014E9007002D28CC39003A8E094E09003A7E06453
:1014F9008094AE4036C28CE4F0A3F0900321F090C2
:101509000322F09003A6F0900007F0A37408F07B83
:10151900807A007D027C00E4FF1216DC7BFF7A05ED
:0C15290079367D047C007F24121216220B
:0E12BA0090000BEFF0A3EBF0A3EAF0A3E9F035
:1012C80078117C007D017BFF7A05794C7E017F00D7
:1012D80012081F90000BE014600B0470157BFF7A56
:1012E80005794180067BFF7A0579457D037C0012EC
:1012F800176590000CE0F9A3E0FAA3E0900114C987
:10130800F0A3EAF0A3E9F090000FE0FFA3E090015A
:1013180017CFF0A3EFF07B017A007911120CB3908C
:10132800000FE0FEA3E0FF7C007D031208ADEF2470
:10133800FFFDEE34FFFC7B017A0079111217657B03
:0C134800FF7A0579497D027C00021765E0
:0B0CB300900111EBF0A3EAF0A3E9F0C0
:100CBE0078197C017D017BFF7A06794C7E007F03DB
:100CCE0012081F781C7C017D017BFF7A06794F7E0E
:100CDE00017F0012081FE490021CF0A3F0A3F0A302
:100CEE00F090021CF0A3F0900117E0FEA3E0FF903D
:100CFE00021CE0FCA3E0FDC39FEC9E4003020E39F4
:100D0E00900114E0FBA3E0FAA3E0F98D828C83122C
:100D1E00085EFDC4540F900119F0ED540FA3F0E4DA
:100D2E0090021EF0A3F090021EE0FEA3E0FFC3941B
:100D3E0002EE648094804003020DD874192FF58260
:100D4E0074013EF583E0FFC374809480401FEF94DE
:100D5E000A74809480501690021EE0FEA3E02419BF
:100D6E00F58274013EF583E02430F0804C90021E33
:100D7E00E0FEA3E02419F58274013EF583E0FFC383
:100D8E00940A748094805003020E60D3EF940F7413
:100D9E008094804003020E6090021EE0FEA3E0FFEE
:100DAE002419F58274013EF583E02437FD74192F62
:100DBE00F58274013EF583EDF090021FE004F070B1
:100DCE000690021EE004F0020D34900118E024FF9C
:100DDE00FF900117E034FFFEC390021DE09F9002CA
:100DEE001CE09E500890011B7420F08005E49001D9
:100DFE001BF090021CE0FEA3E0FF7C007D031208B6
:100E0E00AD741C2FF974013EA801FC7D017B017AA3
:100E1E000179197E007F0312081F90021DE004F075
:100E2E00700690021CE004F0020CF5900117E0FE33
:100E3E00A3E0FF7C007D031208AD900111E0FBA33F
:100E4E00E0FAA3E0F8AC02AD037B017A01791C1243
:020E5E00081F6B
:010E6000226F
:10117F004103A600410322004103210060730333A2
:10118F00FFFF006F0200000030303030303030345D
:10119F003030303030303034303030303030303636
:1011AF003030303030303035376338633164383574
:1011BF006239363634623238383232333533643945
:1011CF0038613633306365340000000000000000E2
:1011DF0000023139643538626464626366363464A0
:1011EF006639623639303934636439643061656425
:1011FF00386655500323FFFF00090055000013FF09
:06120F0055005555555530
:101479004C313A30204C323A30204C333A30204CFF
:10148900343A3000310030004D3A41004D3A5300B2
:101499004D3A4120433A53004D3A5320433A4100D3
:1014A9004D3A5320433A4120573A31004D3A53209F
:1014B900433A4120573A31204E3A31004D3A5320B0
:1014C900433A4120573A31204E3A3120503A3100BF
:10109900900000EFF09003A6E07003021161900048
:1010A90000E07024900007F0A37408F07B807A00B8
:1010B9007D047C00E4FF1216DC7BFF7A1479797DCC
:1010C900047C007F06121216900000E0FF640160A4
:1010D90003EF70187BFF3094067A14798D80047AB7
:1010E90014798F7D047C007F18121216900000E09D
:1010F900FF64026003EF70187BFF3095067A14795C
:101109008D80047A14798F7D047C007F3612121643
:10111900900000E0FF64046003EF70187BFF3096D5
:10112900067A14798D80047A14798F7D047C007F86
:1011390054121216900000E0FF64086003EF701863
:101149007BFF3097067A14798D80047A14798F7D24
:09115900047C007F7212121622C0
:100FB900900000EDF0A3EBF0EF640D6003021098D0
:100FC900900007F0A37408F07B807A007D027C0012
:100FD900E4FF1216DCE49003A6F0900322F09000DF
:100FE90001E024FE602224FD602614602B24F460B5
:100FF9002F24F8602B24E06036243960030210980E
:101009007BFF7A147991801E7BFF7A14799580167B
:101019007BFF7A147999800E7BFF7A1479A1800677
:101029007BFF7A1479A97D027C007F060212169053
:101039000000E0FF7E00C374809480401FD3EF94CA
:10104900077480948050157BFF7A1479B57D027CF2
:10105900007F061212169003227401F0900000E03E
:10106900FF7E00C39408748094804023D3EF940FCB
:101079007480948050197BFF7A1479C57D027C00B5
:101089007F061212169003227401F09003A6F02233
:1013F900021A1EE493A3F8E493A34003F68001F2D2
:1014090008DFF48029E493A3F85407240CC8C333F4
:10141900C4540F4420C8834004F456800146F6DFC3
:10142900E4800B0102040810204080901162E47EE0
:10143900019360BCA3FF543F30E509541FFEE493B8
:10144900A360010ECF54C025E060A840B8E493A37F
:10145900FAE493A3F8E493A3C8C582C8CAC583CAAA
:10146900F0A3C8C582C8CAC583CADFE9DEE780BE62
:0112150000D8
:10074F00E709F608DFFA8046E709F208DFFA803E8C
:10075F0088828C83E709F0A3DFFA8032E309F60879
:10076F00DFFA8078E309F208DFFA807088828C83E1
:10077F00E309F0A3DFFA806489828A83E0A3F60895
:10078F00DFFA805889828A83E0A3F208DFFA804C6F
:10079F0080D280FA80C680D4806980F28033801046
:1007AF0080A680EA809A80A880DA80E280CA8033AF
:1007BF0089828A83ECFAE493A3C8C582C8CCC58327
:1007CF00CCF0A3C8C582C8CCC583CCDFE9DEE780F7
:1007DF000D89828A83E493A3F608DFF9ECFAA9F076
:1007EF00EDFB2289828A83ECFAE0A3C8C582C8CCCC
:1007FF00C583CCF0A3C8C582C8CCC583CCDFEADEE5
:10080F00E880DB89828A83E493A3F208DFF980CC46
:10081F0088F0EF60010E4E60C388F0ED2402B4043F
:10082F000050B9F582EB2402B4040050AF232345E6
:06083F00822390079F7365
:10084500BB010689828A83E0225002E722BBFE02B1
:09085500E32289828A83E49322E4
:10085E00BB010CE58229F582E5833AF583E022504F
:10086E0006E92582F8E622BBFE06E92582F8E22299
:0D087E00E58229F582E5833AF583E49322B3
:10088B00F8BB010DE58229F582E5833AF583E8F0A3
:10089B00225006E92582C8F622BBFE05E92582C84F
:0208AB00F22237
:1008AD00EF8DF0A4A8F0CF8CF0A428CE8DF0A42E5F
:0208BD00FE2219
:1008BF00BB0110E58229F582E5833AF583E0F5F077
:1008CF00A3E0225009E92582F886F008E622BBFE54
:1008DF000AE92582F8E2F5F008E222E5832AF5839A
:0808EF00E993F5F0A3E993225F
:1008F700EF4E6012EF60010EEDBB010B89828A8318
:10090700F0A3DFFCDEFA2289F05007F709DFFCA924
:0C091700F022BBFEFCF309DFFCA9F0227B
:00000001FF
