:03000000020BF000
:0C0BF000787FE4F6D8FD758120020C37F8
:1011850075930075940075910075920075950075BD
:10119500960075B10075B20075B30075B40075C9D8
:0511A5000075CA0022E4
:10028E000000000000000000002F0000000007002A
:10029E00070000147F147F1400242A7F2A120062A4
:1002AE006408132300364955225000000503000050
:1002BE0000001C224100000041221C000014083ED8
:1002CE0008140008083E0808000000A0600000089E
:1002DE0008080808000060600000002010080402F2
:1002EE00003E5149453E0000427F400000426151B0
:1002FE004946002141454B31001814127F1000274A
:10030E0045454539003C4A4949300001710905030C
:10031E0000364949493600064949291E000036363D
:10032E0000000000563600000008142241000014A0
:10033E00141414140000412214080002015109067D
:10034E0000324959513E007C1211127C007F4949FE
:10035E004936003E41414122007F4141221C007F2F
:10036E0049494941007F09090901003E4149497A3D
:10037E00007F0808087F0000417F410000204041B7
:10038E003F01007F08142241007F40404040007F23
:10039E00020C027F007F0408107F003E4141413E67
:1003AE00007F09090906003E4151215E007F0919AF
:1003BE0029460046494949310001017F0101003FAC
:1003CE004040403F001F2040201F003F4038403F2C
:1003DE000063140814630007087008070061514990
:1003EE00454300007F41410000552A552A55000023
:1003FE0041417F00000402010204004040404040A1
:10040E00000001020400002054545478007F484438
:10041E00443800384444442000384444487F00386F
:10042E005454541800087E0901020018A4A4A47C98
:10043E00007F080404780000447D40000040808462
:10044E007D00007F102844000000417F4000007CAA
:10045E0004180478007C08040478003844444438B6
:10046E0000FC242424180018242418FC007C080402
:10047E00040800485454542000043F444020003CDB
:10048E004040207C001C2040201C003C4030403C62
:10049E00004428102844001CA0A0A07C00446454F2
:0804AE004C441414141414143E
:09127E00D2C1D2A2C2A2C2C12257
:09128700C2C1C2A2D2C1D2A2224E
:0710DB00AD0712127E7F78C1
:1010E200E4FEEEC39408748094805015EF30E70458
:1010F200D2A28002C2A2D2C1C2C1EF25E0FF0E80FD
:07110200E1D2A2D2C1C2C17B
:0111090022C3
:10126E001210DB7F401210E2AF051210E20212875D
:0E11CC00EC24B0FF1211DA7F011211DA7F104D
:1011DA001210DBE4FF1210E2AF051210E2021287CE
:1011EA00AC07ED24B0FF1211DAEC54F0C4540F44EA
:0E11FA0010FF1211DAEC540F4401FF0211DA5B
:02110A00AC0730
:10110C00E4FBEBC3940874809480501BEB1211CD5C
:10111C00E4FAEAC39480748094805008AF041212ED
:07112C006E0A80EE0B80DB70
:011133002299
:10115E00E4FCECC3940874809480501A1211CCE411
:10116E00FBEBC39480748094805008E4FF12126EDF
:06117E000B80EE0C80DC8A
:011184002248
:0A1016009001FFEAF0A3EBF0A90738
:10102000AF05AC07ECFFC3900202E09F7480F8901C
:101030000201E064809840241211CCAB01EBFFD395
:10104000900200E09F7480F89001FFE06480984077
:0C10500008E4FF12126E0B80E40C80C854
:01105C002271
:100B5E007FAE1211DAE4FF1211D57F401211DA7F47
:100B6E00811211DA7FCF1211DA7FA11211DA7FC84A
:100B7E001211DA7FA61211DA7FA81211DA7F3F1254
:100B8E0011DA7FD31211DAE4FF1211DA7FD51211C6
:100B9E00DA7F801211DA7FD91211DA7FF11211DAAF
:100BAE007FDA1211DA7F121211DA7FDB1211DA7F7D
:100BBE00401211DA7F201211DA7F021211DA7F8DC4
:100BCE001211DA7F141211DA7FA41211DA7FA61233
:100BDE0011DA7FAF1211DAE4FF12110AE4FDFF02FF
:020BEE0011EA0A
:100ABA009001F4EFF0A3ECF0A3EDF0A3EBF0A3EABE
:040ACA00F0A3E9F0BC
:100ACE00E4A3F0FCA3F09001F7E0FBA3E0FAA3E0AF
:100ADE00F99001FBE0F5827583001207BE60702469
:100AEE00E09001FAF09001F4E0D3947E748094804B
:100AFE004010E4F09001F6E004F070069001F5E08D
:100B0E0004F09001F4E0FFA3A3E0FD1211EAE4FC6F
:100B1E00ECC394067480948050259001FAE075F031
:100B2E0006A4248EF582E5F03402F583E5822CF5D9
:100B3E0082E43583F583E493FF12126E0C80D1901C
:0F0B4E0001F4E02406F09001FBE004F0020AD469
:010B5D002275
:050003007F02020F74F2
:10122600AD07AC06538EEF538EF7438E04ECF5D61E
:0B123600AF058FD753AFFB438E102293
:100F7400EF6402700C438E017FE07EFE1212268025
:100F84001BC28E538EFE438E405389BF5389CF7547
:100F94008DFE758BE0C2AB538FFDD28EE598543F26
:100FA4004440F598D2ACD29C53A23F7E017F007D91
:100FB400007B017A00790012084FC200E49001001E
:020FC400F02219
:10105D0090020FEBF0A3EAF0A3E9F0A3ECF0A3EDFF
:01106D00F092
:10106E00E4FFFED3900213E09F900212E09E402018
:10107E00D20090020FE0FBA3E0FAA3E0F98F828E7C
:10108E00831207BEF5992000FD0FBF00010E80D31D
:01109E00222F
:0300230002109F29
:10109F00C0E0C083C082C0D0309821C298900100B8
:1010AF00E02400F582E43400F583E599F090010027
:1010BF00E004F0C3748094814002E4F0309904C2DC
:0C10CF0099C200D0D0D082D083D0E03293
:050A1000420214000089
:10002600AD07EDD394047480948040037F0122EDE4
:1000360060030200BA1207A5FED39403748094806D
:1000460040037F0222C28CC2A9C2B95389F0538EE3
:100056007F538FFE9000021207BE64017002D2A980
:100066009000011207BE64017002D2B9EE42899077
:1000760000031207BEFF7E007003438E80EF64020A
:100086004E70034389049000041207BE6401700396
:10009600438F01900005120801E5F0F58C900005EC
:1000A600120801F58A9000071207BE64017002D299
:1000B6008C7F0022ED640160030201441207A5FE55
:1000C600C394037480948040037F0222C28EC2AB25
:1000D600C2BB53890F538EBF538FFD900002120788
:1000E600BE64017002D2AB9000011207BE640170BB
:1000F60002D2BBEEC454F042899000031207BEFF41
:100106007E007003438E40EF64024E7003438940C5
:100116009000041207BE64017003438F029000052D
:10012600120801E5F0F58D900005120801F58B9097
:1001360000071207BE64017002D28E7F0022ED64B2
:1001460002706A9000031207BEFED3940274809474
:100156008040037F0222538EE353AFFB538FFB9005
:1001660000021207BE6401700343AF04EEFF7E0077
:100176007003438E04EF64024E7003438E089000B2
:10018600041207BE64017003438F04900005120831
:1001960001E5F0F5D6900005120801F5D7900007A5
:1001A6001207BE64017003438E107F0022ED6403C4
:1001B60070679000031207BEFED394027480948089
:1001C60040037F022253D1F053AFDF9000021207A3
:1001D600BE6401700343AF20EEFF7E00700343D17F
:1001E60002EF64024E700343D1069000041207BE6C
:1001F6006401700343D101900005120801E5F0F592
:10020600D4900005120801F5D59000071207BE64C8
:1002160001700343D1087F0022ED640470679000EB
:10022600031207BEFD7C00D39402748094804003C1
:100236007F022253D10F53AFBF9000021207BE6454
:1002460001700343AF40ED4C700343D1209000038F
:100256001207BE6402700343D1609000041207BE09
:100266006401700343D110900005120801FDACF043
:10027600ECF5D28DD39000071207BE6401700343DC
:08028600D1807F00227F0222DB
:10113400E49001F4F0A3F0A304F0E4A3F0A3F0A37B
:101144007428F0A3E4F0A3F07B017A0179F4FF1290
:091154000026E4900214F0A3F05F
:01115D00226F
:03000B000212419D
:10124100C0E0C083C082900215E004F070069002F5
:0B12510014E004F0D082D083D0E03223
:100A15004101F3004101C10041019E004201BF00B7
:100A2500094101C2004801E3303030303030303602
:100A350048019630303030303030356020019F37F6
:100A45006338633164383562393636346232383862
:100A55003232333533643938613633306365346067
:100A65002001C331396435386264646263663634A3
:100A750064663962363930393463643964306165A6
:100A850064386648018E000000000000000248013D
:100A95008630303030303030344801EB3030303053
:100AA5003030303449017DFFFF005500000000550E
:10120800D3EF9400EE940040147D6E7C00ED1D70C9
:0D121800011CED4C70F7EF1F70E61E80E327
:0112250022A6
:10125C00E4900100F07E01FFFD7B017A0079000231
:02126C00084F29
:0B0F1F00900203EBF0A3EAF0A3E9F05E
:100F2A00E4A3F0FEAF05A3ECF0A3EFF07F0290027A
:100F3A0008E024FFFD900207E034FFFCC3EF9DEEBA
:100F4A009C5020900203E0FBA3E0FAA3E0F98F8211
:100F5A008E831207BEFD900206E02DF00FBF00013E
:090F6A000E80CB900206E0F0FFBE
:010F7300225B
:0B0E6900900209EBF0A3EAF0A3E9F00F
:100E7400E4A3F0A374FFF0E4A3F0D3ED9400EC94A6
:100E840000401C900209E0FBA3E0FAA3E0F974FF20
:100E94002DF58274FF3CF5831207BE90020DF0908D
:100EA4000209E0FBA3E0FAA3E0F9120F1F90020E7F
:100EB400EFF090020DE0B5070690020C7401F0907B
:040EC400020CE0FF3D
:010EC8002207
:10000E0057656C636F6D652044656D6F2053797312
:04001E0074656D0098
:1011AA00121185120B5E12115E120003121134E441
:1011BA00F5907BFF7A00790EFDFC7F08120ABAD2FD
:0211CA00AF2252
:051290001211AA80FE0E
:100EC9009000091207BE24FE601C24FE602824FC41
:100ED90060342407703F90000A1207BE6401700352
:100EE900D29422C2942290000A1207BE64027003AF
:100EF900D29522C2952290000A1207BE640470039B
:100F0900D29622C2962290000A1207BE6408700384
:060F1900D29722C29722CC
:100D030057696669206C6F7373210000000000004F
:100D130000000000000000000000000000000000D0
:100D230000000000000000000000000000000000C0
:100D330000000000000000000000000000000000B0
:100D430000000000000000000000000000000000A0
:100D53000000000000000000000000000000000090
:100D63000000000000000000000000000000000080
:0F0D730000000000000000000000000000000071
:040AB50041021900E1
:100C7C00E4900218F0900100E0FF7E00D394007421
:100C8C008094804069200066900000E0F4705FD38F
:100C9C00EF9402748094804058A3E0F4704E90015D
:100CAC00C0E02405FF9001BFE03400FE900100E09D
:100CBC00D39FE49E400312125C900002E0FEA3E07E
:100CCC007C002400FFEC3ECF2404CF3400FE9001C6
:100CDC0000E06F7001EE70197B017A007900E0FD85
:100CEC00120E69900218EFF0700780028000121249
:060CFC005C900218E0FF0D
:010D020022CE
:0E04B600900219F0E0FB7A007D097F0A7E00BB
:1004C400900101EEF0A3EFF0A3EDF0A3EAF0A3EBAB
:0104D400F037
:1004D50078067C017D017BFF7A0D790E7E007F74A5
:1004E50012077F90017AE4F0A3F0A3F078067C016F
:1004F5007D017B017A01797DFE7F0912077F9001DD
:100505007A7401F0A37401F0A3740FF0900101A3B4
:10051500E024FC900109F0900103E0FF90010AF04E
:100525009001C2E090010BF0EF6402600302063512
:1005350090017AE0FBA3E0FAA3E0F8AC02AD037BFF
:10054500017A0179867E007F0812077F90017BE49E
:1005550075F0081207EB90017AE0FBA3E0FAA3E03F
:10056500F8AC02AD037B017A0179EB7E007F0812BE
:10057500077F90017BE475F0081207EB90017AE0A4
:10058500FBA3E0FAA3E0F8AC02AD037B017A0179A5
:10059500E37E007F0812077F90017BE475F0081267
:1005A50007EB90017AE0FBA3E0FAA3E0F8AC02AD1B
:1005B500037B017A0179967E007F0812077F9001FF
:1005C5007BE475F0081207EB90017AE0FBA3E0FAF3
:1005D500A3E0F8AC02AD037B017A01799F7E007F31
:1005E5002012077F90017BE475F0221207EB900142
:1005F5007AE0FBA3E0FAA3E0F8AC02AD037B017A55
:1006050001798E7E007F0812077F90017BE475F0EB
:10061500081207EB90017AE0FBA3E0FAA3E0F8AC3F
:1006250002AD037B017A0179C37E007F2012077F2B
:10063500900103E0FF7E0064127007A3A3E0900120
:100645000EF0EF64044E700C900104E07004A3E01A
:1006550064036012900103E064057021A3E0700457
:10066500A3E064047017900104A3E090010EF0E587
:1006750090C4540FA3F0E4A3F0A3F0A3F07B017A98
:10068500017906900101E0FCA3E0FD120F1F900126
:1006950001E0FCA3E0FD2405F58274013CF583EF40
:0A06A500F07B017A01790602105D76
:100E000090019EE06401700C900214E07002A3E077
:100E10007002D28C900214E0FEA3E0FFEE3395E066
:100E2000FDFCE47BA07A8CF9F8D31208395039C262
:100E30008CE4900214F0A3F090019EF09001C1F0B8
:100E40009001F3F0900201F0A37408F07B807A0027
:100E50007D027C00E4FF1210167BFF7A0D79037D82
:090E6000047C007F24120ABA226E
:100D820030A30C30A40930A50630A00320A66E7F44
:100D92000A7E00121208900201E4F0A37408F07BAC
:100DA200807A007D027C00E4FF1210169001C2E0FE
:100DB200600204F020A30574011204B620A4057495
:100DC200021204B620A50BE4FBFA7D0B7F09FE128A
:100DD20004C420A00BE4FBFA7D157F09FE1204C4B3
:100DE20020A60BE4FBFA7D297F09FE1204C430A37E
:0E0DF200FD30A4FA30A5F730A0F430A6F122AF
:100FC6004C313A30204C323A30204C333A30204CB7
:100FD600343A3000310030004D3A41004D3A53006A
:100FE6004D3A4120433A53004D3A5320433A41008B
:100FF6004D3A5320433A4120573A31004D3A532057
:10100600433A4120573A31204E3A3100503A3100A6
:10087B0090021AEFF09001F3E0700302094390022B
:10088B001AE07024900201F0A37408F07B807A00C8
:10089B007D047C00E4FF1210167BFF7A0F79C67D76
:1008AB00047C007F06120ABA90021AE0FF64016012
:1008BB0003EF70187BFF3094067A0F79DA80047A95
:1008CB000F79DC7D047C007F18120ABA90021AE0C3
:1008DB00FF64026003EF70187BFF3095067A0F7987
:1008EB00DA80047A0F79DC7D047C007F36120ABA39
:1008FB0090021AE0FF64046003EF70187BFF3096E0
:10090B00067A0F79DA80047A0F79DC7D047C007F1C
:10091B0054120ABA90021AE0FF64086003EF702EBB
:10092B007BFF3097067A0F79DA80047A0F79DC7DBA
:10093B00047C007F72020ABA900201E4F0A37406F1
:0F094B00F07B807A007D047C00E4FF12101622FE
:10095A00900216EDF0A3EBF0EF640D6003020A0FAC
:10096A00900201F0A37404F07B807A007D027C007F
:10097A00E4FF121016900217E024FE602224FE60A3
:10098A002614602B14603024F4603424F860302478
:10099A00E0603A2439706E7BFF7A0F79DE80267B1D
:1009AA00FF7A0F79E2801E7BFF7A0F79E280167B4D
:1009BA00FF7A0F79E6800E7BFF7A0F79EE80067B4D
:1009CA00FF7A0F79F67D027C007F0680357BFF7AFD
:1009DA001079027D027C007F06120ABA900216E0A4
:1009EA00FF7E00C39408748094804019D3EF940F5B
:1009FA0074809480500F7BFF7A1079127D027C00FC
:060A0A007F66120ABA2209
:100BFC00021290E493A3F8E493A34003F68001F26D
:100C0C0008DFF48029E493A3F85407240CC8C333F9
:100C1C00C4540F4420C8834004F456800146F6DFC8
:100C2C00E4800B0102040810204080900A10E47E3E
:100C3C00019360BCA3FF543F30E509541FFEE493BD
:100C4C00A360010ECF54C025E060A840B8E493A384
:100C5C00FAE493A3F8E493A3C8C582C8CAC583CAAF
:100C6C00F0A3C8C582C8CAC583CADFE9DEE780BE67
:010AB900003C
:1006AF00E709F608DFFA8046E709F208DFFA803E2D
:1006BF0088828C83E709F0A3DFFA8032E309F6081A
:1006CF00DFFA8078E309F208DFFA807088828C8382
:1006DF00E309F0A3DFFA806489828A83E0A3F60836
:1006EF00DFFA805889828A83E0A3F208DFFA804C10
:1006FF0080D280FA80C680D4806980F280338010E7
:10070F0080A680EA809A80A880DA80E280CA80334F
:10071F0089828A83ECFAE493A3C8C582C8CCC583C7
:10072F00CCF0A3C8C582C8CCC583CCDFE9DEE78097
:10073F000D89828A83E493A3F608DFF9ECFAA9F016
:10074F00EDFB2289828A83ECFAE0A3C8C582C8CC6C
:10075F00C583CCF0A3C8C582C8CCC583CCDFEADE85
:10076F00E880DB89828A83E493A3F208DFF980CCE7
:10077F0088F0EF60010E4E60C388F0ED2402B404E0
:10078F000050B9F582EB2402B4040050AF23234587
:06079F0082239006FF73A7
:1007A500BB010689828A83E0225002E722BBFE0252
:0907B500E32289828A83E4932285
:1007BE00BB010CE58229F582E5833AF583E02250F0
:1007CE0006E92582F8E622BBFE06E92582F8E2223A
:0D07DE00E58229F582E5833AF583E4932254
:1007EB00C5F0F8A3E028F0C5F0F8E5821582700299
:0607FB001583E038F02236
:10080100BB0110E58229F582E5833AF583E0F5F035
:10081100A3E0225009E92582F886F008E622BBFE12
:100821000AE92582F8E2F5F008E222E5832AF58358
:08083100E993F5F0A3E993221D
:10083900EB9FF5F0EA9E42F0E99D42F0EC6480C836
:0608490064809845F022D6
:10084F00EF4E6012EF60010EEDBB010B89828A83C0
:10085F00F0A3DFFCDEFA2289F05007F709DFFCA9CD
:0C086F00F022BBFEFCF309DFFCA9F02224
:00000001FF
