:030000000201BB3F
:0C01BB00787FE4F6D8FD7581070201A4EE
:10018600D3EF9400EE940040147D6E7C00ED1D705C
:0D019600011CED4C70F7EF1F70E61E80E3BA
:0101A3002239
:0301C700020161D1
:1001610075930075940075910075920075950075F1
:10017100960075B10075B20075B30075B40075C90C
:050181000075CA002218
:10013A007C807D001200D1E47B807A3EF9F81200BF
:10014A003FD3EF9400EE94004005EF1F70011E8F1D
:07015A00AAEE4480F5AB2280
:1000FE00D3900001E0940A900000E09400400FE4D9
:10010E00F0A3F07F107E2712013A4387022220A32C
:10011E001A7F0A7E0012018630A3FD900001E004D2
:0C012E00F07006900000E004F0B2CD225A
:1001A4001201C7E4900000F0A3F07F0AFE1201865A
:0701B400D2AF1200FE80FB38
:1000030075F008758200EF2FFFEE33FECD33CDCCB4
:1000130033CCC58233C5829BED9AEC99E582984037
:100023000CF582EE9BFEED9AFDEC99FC0FD5F0D614
:10003300E4CEFBE4CDFAE4CCF9A88222B800C1B93E
:100043000059BA002DEC8BF084CFCECDFCE5F0CB7C
:10005300F97818EF2FFFEE33FEED33FDEC33FCEBB5
:1000630033FB10D703994004EB99FB0FD8E5E4F970
:10007300FA227818EF2FFFEE33FEED33FDEC33FC5D
:10008300C933C910D7059BE99A4007EC9BFCE99A51
:10009300F90FD8E0E4C9FAE4CCFB2275F010EF2F96
:1000A300FFEE33FEED33FDCC33CCC833C810D70796
:1000B3009BEC9AE899400AED9BFDEC9AFCE899F8D1
:0E00C3000FD5F0DAE4CDFBE4CCFAE4C8F92264
:1000D100EC8EF0A4CCC5F0CCCDF8EFA4CEC5F02DBC
:1000E100FDE43CFCE8A42EC8C5F03DFDE43CFCEF7A
:0D00F100A4FFE5F028FEE43DFDE43CFC2208
:00000001FF
