:0300000002077183
:0C077100787FE4F6D8FD7581070206339E
:100003000003050911FF118905C300E000F000F8A2
:10001300000000000000004428FF11AA4400000073
:1000230000000000000000000000000000000000CD
:1000330000000000000000000000000000000000BD
:1000430000000000000000000000000000000000AD
:100053000000000000000000000083013844829289
:1000630092740183000000000000007C44C7017DFE
:100073007D7D7D017D7D7D7D017D7D7D7D01FF001C
:100083000000000000010001000100010001000167
:10009300000000000000000000010100000000005B
:1000A300000000000000000000000000000000004D
:1000B300000000000000000000000000000000003D
:1000C300000000000000000000000000000000002D
:1000D300000000000000000000000101000000001B
:1000E3000000010100000000000000000001010108
:1000F30001010101010101010101010101010100EE
:1001030000000000000000000040404040400000AC
:100113006D6D6D6D6D00006060606060000040405B
:10012300404040000000000000000000000000000C
:1001330000000000000000000000000000000000BC
:1001430000000000000000000000000000000000AC
:10015300000000000000000000000000000000009C
:10016300000000000000000000000000000000008C
:10017300000000000000000000000000000000007C
:10018300000000000000000000DBDBDBDBDB000025
:10019300DBDBDBDBDB0000DBDBDBDBDB0000DBDB18
:1001A300DBDBDB0000DADADADADA0000D8D8D8D819
:1001B300D80000C0C0C0C0C00000C0C0C0C0C000E4
:1001C30000C0C0C0C0C00000C0C0C0C0C00000802C
:1001D300808080800000000000000000000000001C
:1001E300000000000000000000000000000000000C
:1001F30000000000000000000000000000000000FC
:1002030000000000000000000006060606060000CD
:100213000606060606000006060606060000060693
:100223000606060000060606E666200006068606A3
:1002330006000006060606860000060606060600F9
:1002430000868686868680808686068686C0C086E9
:1002530086860606D03076060606060000060606E3
:100263000606000006060606060000060606060643
:10027300000006060606060000000000000000005D
:10028300000000000000000000000000000000006B
:10029300000000000000000000000000000000005B
:1002A30000000000000000000000601C00FE0001D0
:1002B3000200C41820029E63B20E00FF8181FF007A
:1002C300008040300F00000000FF0023EAAABFAA0D
:1002D300EA033F00FF0000000000000000000000F0
:1002E300000000000000000000000000000000000B
:1002F30000000000000000000000000000000000FB
:1003030000000080808000000000008080800000EA
:1003130000000000000000000000000000000000DA
:1003230000000000000000000E0C080000010101A5
:100333000101000000010000000100818080818034
:100343008180808080010101010000000100000024
:1003530001000101090C0E00000000000000000074
:100363000000000000000000C0C0C0C0C0C0C0C08A
:10037300C0C0C0C0C0C0C0C0C0C0C0C0C0C0C0003A
:10038300001E21404050215E001E21404050215E4E
:10039300000000000000000000000000000000005A
:1003A300000000000000000000000000000000004A
:1003B3000000000000000000000000FFFFC1C1FFBB
:1003C300FFC1C1FFFF0000000000000000000000AB
:1003D300000000000000000000000000000000001A
:1003E3000000000000000000FFFF80FCF3EFF3FCBF
:1003F30080FF80EEEEEEF5FBFF9CBEB6B688FF00F5
:1006330012078F900005E4F0A37408F0A374FFF091
:10064300A37400F0A37403F07B807A00E4FDFCFF45
:0F0653001204D17F407E1F1207261206BB80D4EF
:09077D00D2C1D2A2C2A2C2C12263
:09078600C2C1C2A2D2C1D2A2225A
:07066200AD0712077D7F7850
:10066900E4FEEEC39408748094805015EF30E704DB
:10067900D2A28002C2A2D2C1C2C1EF25E0FF0E8080
:07068900E1D2A2D2C1C2C1FF
:010690002247
:100761001206627F40120669AF051206690207860A
:0D07440024B0FF1207517F011207517F10F2
:10075100120662E4FF120669AF05120669020786F6
:10070800AC07ED24B0FF120751EC54F0C4540F4469
:0E07180010FF120751EC540F4401FF0207516D
:02069100AC07B4
:10069300E4FBEBC3940874809480501BEB12074473
:1006A300E4FAEAC39480748094805008AF0412077C
:0706B300610A80EE0B80DB01
:0106BA00221D
:1006BB00E4FCECC3940874809480501BEC12074448
:1006CB00E4FBEBC39480748094805008E4FF120722
:0706DB00610B80EE0C80DBD7
:0106E20022F5
:10059A007FF47E011207267FAE120751E4FF12078D
:1005AA004C7F401207517F811207517FCF120751AA
:1005BA007FA11207517FC81207517FA61207517FE8
:1005CA00A81207517F3F1207517FD3120751E4FF48
:1005DA001207517FD51207517F801207517FD91216
:1005EA0007517FF11207517FDA1207517F12120762
:1005FA00517FDB1207517F401207517F20120751AA
:10060A007F021207517F8D1207517F141207517F03
:10061A00A41207517FA61207517FAF120751E4FFB8
:09062A00120691E4FDFF0207082D
:1004D100900000EFF0A3ECF0A3EDF0A3EAF0A3EBA2
:0104E100F02A
:1004E200E490000AF0A3F0900005E0FAA3E0FB7CA0
:1004F200007D08FFAE02120430ED4C7011FC7D0845
:10050200AF03AE0212043090000DEFF080159000A0
:1005120005E0FEA3E0FF7C007D08120430EF0490AA
:10052200000DF0900001A3E090000DF090000DE0AE
:10053200FDFFD3900006E09F7480F8900005E06410
:1005420080984053900000E0FF120708E090000CF2
:10055200F090000CE0FFD3900004E09F7480F890CC
:100562000003E06480984027900007E0FBA3E0FAD4
:10057200A3E0F9A3E475F00112046685F082F58325
:10058200120403FF12076190000CE004F080C29095
:07059200000DE004F080956C
:01059900223F
:06078F001206E302059AC8
:1006E300759300759400759100759200759500756A
:1006F300960075B10075B20075B30075B40075C985
:050703000075CA002290
:10072600D3EF9400EE940040147D6E7C00ED1D70B6
:0D073600011CED4C70F7EF1F70E61E80E314
:010743002293
:10040300BB010CE58229F582E5833AF583E02250AE
:1004130006E92582F8E622BBFE06E92582F8E222F8
:0D042300E58229F582E5833AF583E4932212
:10043000C2D5EC30E709B2D5E4C39DFDE49CFCEEE7
:1004400030E715B2D5E4C39FFFE49EFE12047CC3DF
:10045000E49DFDE49CFC800312047C30D507C3E4DA
:060460009FFFE49EFE2256
:10046600A3F8E0C5F025F0F0E58215827002158349
:06047600E0C838F0E822A6
:10047C00BC000BBE0029EF8DF084FFADF022E4CC64
:10048C00F875F008EF2FFFEE33FEEC33FCEE9DEC2D
:10049C00984005FCEE9DFE0FD5F0E9E4CEFD22ED73
:1004AC00F8F5F0EE8420D21CFEADF075F008EF2FBD
:1004BC00FFED33FD4007985006D5F0F222C398FDAE
:0504CC000FD5F0EA224B
:00000001FF
