:0300000002007B80
:0C007B00787FE4F6D8FD7581070200666E
:10004800D3EF9400EE940040147D6E7C00ED1D709B
:0D005800011CED4C70F7EF1F70E61E80E3F9
:010065002278
:0300870002000371
:100003007593007594007591007592007595007550
:10001300960075B10075B20075B30075B40075C96B
:050023000075CA002277
:1000280020A30C7F017E0012004830A3FDB2CD2032
:10003800A50D7F017E0012004830A5FD75C136224E
:1000660075C10643C1101200877F0A7E0012004840
:0500760012002880FBD0
:00000001FF
