:03000000020C806F
:0C0C8000787FE4F6D8FD758120020CC7D7
:10124A0075930075940075910075920075950075F7
:10125A00960075B10075B20075B30075B40075C912
:05126A000075CA00221E
:100026000000000000000000002F00000000070094
:10003600070000147F147F1400242A7F2A1200620E
:1000460064081323003649552250000005030000BA
:1000560000001C224100000041221C000014083E42
:1000660008140008083E0808000000A06000000808
:10007600080808080000606000000020100804025C
:10008600003E5149453E0000427F4000004261511A
:100096004946002141454B31001814127F100027B4
:1000A60045454539003C4A49493000017109050377
:1000B60000364949493600064949291E00003636A8
:1000C600000000005636000000081422410000140B
:1000D60014141414000041221408000201510906E8
:1000E60000324959513E007C1211127C007F494969
:1000F6004936003E41414122007F4141221C007F9A
:1001060049494941007F09090901003E4149497AA7
:10011600007F0808087F0000417F41000020404121
:100126003F01007F08142241007F40404040007F8D
:10013600020C027F007F0408107F003E4141413ED1
:10014600007F09090906003E4151215E007F091919
:1001560029460046494949310001017F0101003F16
:100166004040403F001F2040201F003F4038403F96
:1001760000631408146300070870080700615149FA
:10018600454300007F41410000552A552A5500008D
:1001960041417F000004020102040040404040400B
:1001A600000001020400002054545478007F4844A3
:1001B600443800384444442000384444487F0038DA
:1001C6005454541800087E0901020018A4A4A47C03
:1001D600007F080404780000447D400000408084CD
:1001E6007D00007F102844000000417F4000007C15
:1001F60004180478007C0804047800384444443821
:1002060000FC242424180018242418FC007C08046C
:10021600040800485454542000043F444020003C45
:100226004040207C001C2040201C003C4030403CCC
:10023600004428102844001CA0A0A07C004464545C
:080246004C44141414141414A8
:09132E00D2C1D2A2C2A2C2C122A6
:09133700C2C1C2A2D2C1D2A2229D
:07119F00AD0712132E7F784B
:1011A600E4FEEEC39408748094805015EF30E70493
:1011B600D2A28002C2A2D2C1C2C1EF25E0FF0E8038
:0711C600E1D2A2D2C1C2C1B7
:0111CD0022FF
:1013100012119F7F401211A6AF051211A6021337BA
:0D12AB0024B0FF1212B87F011212B87F109C
:1012B80012119FE4FF1211A6AF051211A6021337EF
:10126F00AC07ED24B0FF1212B8EC54F0C4540F4485
:0E127F0010FF1212B8EC540F4401FF0212B817
:0211CE00AC076C
:1011D000E4FBEBC3940874809480501BEB1212ABB9
:1011E000E4FAEAC39480748094805008AF04121328
:0711F000100A80EE0B80DB0A
:0111F70022D5
:0A10A400900005EAF0A3EBF0A907A5
:1010AE00AF05AC07ECFFC3900008E09F7480F8908A
:1010BE000007E06480984025EC1212ABAB01EBFF09
:1010CE00D3900006E09F7480F8900005E06480984D
:0D10DE004008E4FF1213100B80E40C80C7E3
:0110EB0022E2
:100B60007FAE1212B8E4FF1212B37F401212B87FA8
:100B7000811212B87FCF1212B87FA11212B87FC8AB
:100B80001212B87FA61212B87FA81212B87F3F12B5
:100B900012B87FD31212B8E4FF1212B87FD5121226
:100BA000B87F801212B87FD91212B87FF11212B832
:100BB0007FDA1212B87F121212B87FDB1212B87FDE
:100BC000401212B87F201212B87F021212B87F8D25
:100BD0001212B87F141212B87FA41212B87FA61294
:100BE00012B87FAF1212B8E4FF1211CEE4FDFF027B
:020BF000126F82
:100A1F00900002EFF0A3ECF0A3EDF0A3EBF0A3EA4C
:040A2F00F0A3E9F057
:100A3300E4A3F0FCA3F0900005E0FBA3E0FAA3E03D
:100A4300F9900009E0F58275830012035D6070245C
:100A5300E0900008F0900002E0D3947E74809480CC
:100A63004010E4F0900004E004F07006900003E00E
:100A730004F0900002E0FFA3A3E0FD12126FE4FC78
:100A8300ECC39406748094805025900008E075F0C0
:100A930006A42426F582E5F03400F583E5822CF5DF
:100AA30082E43583F583E493FF1213100C80D19015
:0F0AB3000002E02406F0900009E004F0020A3986
:010AC2002211
:050003007F0202100263
:1012C800AD07AC06538EEF538EF7438E04ECF5D67C
:0B12D800AF058FD753AFFB438E1022F1
:10100200EF6402700C438E017FE07EFE1212C880F4
:101012001BC28E538EFE438E405389BF5389CF75B8
:101022008DFE758BE0C2AB538FFDD28EE598543F97
:101032004440F598D2ACD29C53A23F7E007F807D83
:10104200007B017A007985120420C200E490010538
:02105200F0228A
:1010EC00900079EBF0A3EAF0A3E9F0A3ECF0A3ED08
:0110FC00F003
:1010FD00E4FFFED390007DE09F90007CE09E4020B9
:10110D00D200900079E0FBA3E0FAA3E0F98F828E84
:10111D008312035DF5992000FD0FBF00010E80D3F2
:01112D00229F
:0300230002112E99
:10112E00C0E0C083C082C0D0309823C29890010521
:10113E00E02485F582E43400F583E599F09001050D
:10114E00E004F0C39480748094804002E4F03099FF
:0E115E0004C299C200D0D0D082D083D0E0323B
:050E1B0042015500003A
:100BF200EFD394047480948040037F0122EF707BD2
:100C0200120344FED394037480948040037F022233
:100C1200C28CC2A9C2B95389F0538E7F538FFE9002
:100C2200000212035D64017002D2A9900001120356
:100C32005D64017002D2B9EE428990000312035D35
:100C4200FF7E007003438E80EF64024E700343897F
:100C52000490000412035D64017003438F0190004D
:100C6200051203ACFDACF0ECF58C8D8A90000712F6
:0E0C7200035D64017002D28C7F00227F02229B
:1011F800E4900000F0A3F0A304F0E4A3F0A3F0A3AC
:101208007428F0A3E4F0A3F07B017A007900FF12C0
:091218000BF2E4900155F0A3F083
:0112210022AA
:03000B000212E3FB
:1012E300C0E0C083C082900156E004F07006900114
:0B12F30055E004F0D082D083D0E03240
:10128D00D3EF9400EE940040147D6E7C00ED1D7044
:0D129D00011CED4C70F7EF1F70E61E80E3A2
:0112AA002221
:0B0D0C00900079EBF0A3EAF0A3E9F0FF
:100D1700E4900083F0A3F090007FE0FEA3E0FFC320
:100D2700EE94004067900083EEF0A3EFF090007F11
:100D3700E0FEA3E0FF900082E02FFB900081E03E01
:100D4700FA900083E0FCA3E0FDC39BEC9A503DC3FF
:100D5700ED9FFFEC9EFE90007CE0FBA3E0FAA3E092
:100D6700F98F828E8312035DFF900079E0FBA3E089
:100D7700FAA3E0F98D828C83EF12038A900084E056
:0C0D870004F070A9900083E004F080A14B
:010D9300223D
:1012FE00E4900105F0FE7F80FD7B017A0079850286
:02130E000420B9
:0B0FAD00900079EBF0A3EAF0A3E9F05C
:100FB800E4A3F0FEAF05A3ECF0A3EFF07F029000EE
:100FC8007EE024FFFD90007DE034FFFCC3EF9DEE42
:100FD8009C5020900079E0FBA3E0FAA3E0F98F820F
:100FE8008E8312035DFD90007CE02DF00FBF0001A1
:090FF8000E80CB90007CE0F0FFBC
:0110010022CC
:0B0EF700900001EBF0A3EAF0A3E9F08B
:100F0200E4A3F0A374FFF0E4A3F0D3ED9400EC9417
:100F120000401C900001E0FBA3E0FAA3E0F974FF9B
:100F22002DF58274FF3CF58312035D900005F0906D
:100F32000001E0FBA3E0FAA3E0F9120FAD90000676
:100F4200EFF0900005E0B507069000047401F09000
:040F52000004E0FFB8
:010F56002278
:1012220030303030303030363030303030303035B1
:101232000000000000000002303030303030303426
:08124200303030303030303420
:100E2000410154004101320041010F0042013000F4
:100E300009410133006020011037633863316438A1
:100E400035623936363462323838323233353364CB
:100E500039386136333063653460200134313964A8
:100E60003538626464626366363464663962363982
:100E70003039346364396430616564386649010629
:090E8000FFFF00550000000055C1
:10000E0057656C636F6D652044656D6F2053797312
:04001E0074656D0098
:10116C0012124A120B60900007E4F0A37408F07B93
:10117C00807A00E4FDFCFF1210A41200031211F897
:10118C00E4F5907BFF7A00790EFDFC7F08120A1FB4
:03119C00D2AF22AD
:0E13200012116C12062A120AC3120E8E80F5EC
:100F570090000912035D24FE601C24FE602824FC17
:100F670060342407703F90000A12035D6401700328
:100F7700D29422C2942290000A12035D6402700385
:100F8700D29522C2952290000A12035D6404700371
:100F9700D29622C2962290000A12035D640870035B
:060FA700D29722C297223E
:1008950057696669206C6F73732100436F6E6669D3
:1008A5006775726520576966693A536F66740043C8
:1008B5006F6E66696775726520576966693A41505A
:1008C50000526573657420576966692100456E7429
:1008D50065722062696E6461626C65206D6F646526
:1008E500210052657374617274205769666921002D
:1008F50000000000000000000000000000000000F3
:1009050000000000000000000000000000000000E2
:1009150000000000000000000000000000000000D2
:1009250000000000000000000000000000000000C2
:1009350000000000000000000000000000000000B2
:1009450000000000000000000000000000000000A2
:100955000000000000000000000000000000000092
:04096500000000008E
:040E890041015700CC
:100D9400E4900000F0900105E0FF7E00D39400741D
:100DA4008094804069200066900085E0F4705FD3F1
:100DB400EF9402748094804058A3E0F4704E900144
:100DC40031E02405FF900130E03400FE900105E09D
:100DD400D39FE49E40031212FE900087E0FEA3E03E
:100DE4007C002400FFEC3ECF2404CF3400FE9001AD
:100DF40005E06F7001EE70197B017A007985E0FDE2
:100E0400120EF7900000EFF07007800280001212BB
:060E1400FE900000E0FF6B
:010E1A0022B5
:0C044C00900089E004FDE4FBFA7F09FE4B
:10045800900000EEF0A3EFF0A3EDF0A3EAF0A3EB19
:01046800F0A3
:1004690078057C007D017BFF7A0879F57E007F7431
:1004790012031E78057C007D017B017A0179067ED5
:10048900007F0912031E900000A3E024FC900008DD
:10049900F0900002E0FF900009F0900133E0900035
:1004A9000AF0900003A3E090000DF0EF64026003EE
:1004B9000205BF90007C74FFF0A37412F0A3743A94
:1004C900F0A3E4F0A37408F0A3E4F0A37408F07BAC
:1004D900017A007905120D0C90007C74FFF0A37469
:1004E90012F0A37442F0A3E4F0A37410F0A3E4F0B3
:1004F900A37408F07B017A007905120D0C90007C39
:1005090074FFF0A37412F0A37422F0A3E4F0A374AF
:1005190018F0A3E4F0A37408F07B017A00790512BE
:100529000D0C90007C74FFF0A37412F0A3742AF0F0
:10053900A3E4F0A37420F0A3E4F0A37408F07B0112
:100549007A007905120D0C90007C7401F0A37401F6
:10055900F0A37410F0A3E4F0A37428F0A3E4F0A3CB
:100569007420F07B017A007905120D0C90007C74DF
:10057900FFF0A37412F0A37432F0A3E4F0A3744A59
:10058900F0A3E4F0A37408F07B017A007905120D59
:100599000C90007C7401F0A37401F0A37434F0A3EF
:1005A900E4F0A37452F0A3E4F0A37420F07B017A81
:1005B900007905120D0C900002E0FF7E00640470C2
:1005C9000AA3E07004A3E064036012EF64054E70AF
:1005D90023900003E07004A3E06404701790000303
:1005E900A3E090000DF0E590C4540FA3F0E4A3F04C
:1005F900A3F0A3F07B017A007905900000E0FCA349
:10060900E0FD120FAD900000E0FCA3E0FD2404F52D
:100619008274003CF583EFF07B017A0079050210C2
:01062900ECE4
:100E8E0090010FE06401700C900155E07002A3E038
:100E9E007002D28C900155E0FEA3E0FFEE3395E098
:100EAE00FDFCE47BA07A8CF9F8D31203E45039C22E
:100EBE008CE4900155F0A3F090010FF0900132F008
:100ECE00900154F0900007F0A37408F07B807A0034
:100EDE007D027C00E4FF1210A47BFF7A0879957DD9
:090EEE00047C007F24120A1F227B
:100AC30030A30F30A40C30A50930A00630A60302D2
:100AD3000B5F7F0A7E0012128D900007E4F0A3746F
:100AE30008F07B807A007D027C00E4FF1210A49062
:100AF3000133E0600204F020A3139001577401F066
:100B0300E0FB7A007D097F0A7E0012045820A413BB
:100B13009001577402F0E0FB7A007D097F0A7E00A2
:100B230012045820A50BE4FBFA7D0B7F09FE120487
:100B33005820A00BE4FBFA7D157F09FE1204582010
:100B4300A60BE4FBFA7D297F09FE12045830A3FDAE
:0D0B530030A4FA30A5F730A0F430A6F1224E
:10062A00120D94EF70030207B590008AE09001332F
:10063A00F0900089E0FF1203FA06650106700306CE
:10064A00C20706D90A06F80C07050D07730F0781BA
:10065A001107971607A32A000007B2EF04FDE4FB6F
:10066A00FA7F7302077E90008DE06401702C7B0193
:10067A007A007985120F5712044C900133E004F086
:10068A00900089E02402FD7B047A007F0E7E00122E
:10069A00045890008EE0FF1207B690008DE0FF64C8
:1006AA000260030207B2900089E004FDEF2401FB17
:1006BA00E433FA7F0E02079090010F7401F0C28CA6
:1006CA00E4900155F0A3F012044CD28C0207B290C8
:1006DA000157E064017BFF700A7A0879A07D02FC69
:1006EA000207AD7A0879B47D027C000207AD7BFF70
:1006FA007A0879C67D027C000207ADE4900154F0C5
:10070A00900132F090010F04F0900089E0FF900010
:10071A008DE0FDA3E0FB12096990008DE0FF7E00E9
:10072A00C3748094804010D3EF94077480948050EF
:10073A00069001327401F0C3EF9408EE648094804D
:10074A004015D3EF940FEE64809480500A900132E2
:10075A007401F0900154F0E4FF1207B6900089E0AA
:10076A0004FDE4FBFA7F09800B900089E004FDE4B4
:10077A00FBFA7F09FE8011900089E004FD90008D4C
:10078A00E0FB7A007F0A7E00120458801B7BFF7A06
:10079A000879D27D027C00800A7BFF7A0879E77D9E
:0C07AA00027C007F02120A1F1212FE22C5
:101054004C313A30204C323A30204C333A30204C28
:10106400343A3000310030004D3A41004D3A5300DB
:101074004D3A4120433A53004D3A5320433A4100FC
:101084004D3A5320433A4120573A31004D3A5320C8
:10109400433A4120573A31204E3A3100503A310018
:1007B600900000EFF0900154E0700302087E900074
:1007C60000E07024900007F0A37408F07B807A00A4
:1007D6007D047C00E4FF1210A47BFF7A1079547D1F
:1007E600047C007F06120A1F900000E0FF6401608F
:1007F60003EF70187BFF3094067A10796880047ACC
:1008060010796A7D047C007F18120A1F900000E0B0
:10081600FF64026003EF70187BFF3095067A10794B
:100826006880047A10796A7D047C007F36120A1F7C
:10083600900000E0FF64046003EF70187BFF3096C1
:10084600067A10796880047A10796A7D047C007FC4
:1008560054120A1F900000E0FF64086003EF702E38
:100866007BFF3097067A10796880047A10796A7D62
:10087600047C007F72020A1F900007E4F0A374064E
:0F088600F07B807A007D047C00E4FF1210A42236
:10096900900000EDF0A3EBF0EF640D6003020A1EA6
:10097900900007F0A37404F07B807A007D027C006C
:10098900E4FF1210A4900001E024FE602224FE601E
:100999002614602B14603024F4603424F860302469
:1009A900E0603A2439706E7BFF7A10796C80267B7F
:1009B900FF7A107970801E7BFF7A10797080167B20
:1009C900FF7A107974800E7BFF7A10797C80067B20
:1009D900FF7A1079847D027C007F0680357BFF7A5F
:1009E9001079907D027C007F06120A1F900000E0BA
:1009F900FF7E00C39408748094804019D3EF940F4C
:100A090074809480500F7BFF7A1079A07D027C005E
:060A19007F66120A1F2295
:100C8C00021320E493A3F8E493A34003F68001F24B
:100C9C0008DFF48029E493A3F85407240CC8C33369
:100CAC00C4540F4420C8834004F456800146F6DF38
:100CBC00E4800B0102040810204080900E1BE47E9F
:100CCC00019360BCA3FF543F30E509541FFEE4932D
:100CDC00A360010ECF54C025E060A840B8E493A3F4
:100CEC00FAE493A3F8E493A3C8C582C8CAC583CA1F
:100CFC00F0A3C8C582C8CAC583CADFE9DEE780BED7
:010E8D000064
:10024E00E709F608DFFA8046E709F208DFFA803E92
:10025E0088828C83E709F0A3DFFA8032E309F6087F
:10026E00DFFA8078E309F208DFFA807088828C83E7
:10027E00E309F0A3DFFA806489828A83E0A3F6089B
:10028E00DFFA805889828A83E0A3F208DFFA804C75
:10029E0080D280FA80C680D4806980F2803380104C
:1002AE0080A680EA809A80A880DA80E280CA8033B5
:1002BE0089828A83ECFAE493A3C8C582C8CCC5832D
:1002CE00CCF0A3C8C582C8CCC583CCDFE9DEE780FD
:1002DE000D89828A83E493A3F608DFF9ECFAA9F07C
:1002EE00EDFB2289828A83ECFAE0A3C8C582C8CCD2
:1002FE00C583CCF0A3C8C582C8CCC583CCDFEADEEB
:10030E00E880DB89828A83E493A3F208DFF980CC4C
:10031E0088F0EF60010E4E60C388F0ED2402B40445
:10032E000050B9F582EB2402B4040050AF232345EC
:06033E00822390029E7371
:10034400BB010689828A83E0225002E722BBFE02B7
:09035400E32289828A83E49322EA
:10035D00BB010CE58229F582E5833AF583E0225055
:10036D0006E92582F8E622BBFE06E92582F8E2229F
:0D037D00E58229F582E5833AF583E49322B9
:10038A00F8BB010DE58229F582E5833AF583E8F0A9
:10039A00225006E92582C8F622BBFE05E92582C855
:0203AA00F2223D
:1003AC00BB0110E58229F582E5833AF583E0F5F08F
:1003BC00A3E0225009E92582F886F008E622BBFE6C
:1003CC000AE92582F8E2F5F008E222E5832AF583B2
:0803DC00E993F5F0A3E9932277
:1003E400EB9FF5F0EA9E42F0E99D42F0EC6480C890
:0603F40064809845F02230
:1003FA00D083D082F8E4937012740193700DA3A392
:10040A0093F8740193F5828883E4737402936860A5
:06041A00EFA3A3A380DFA5
:10042000EF4E6012EF60010EEDBB010B89828A83F3
:10043000F0A3DFFCDEFA2289F05007F709DFFCA900
:0C044000F022BBFEFCF309DFFCA9F02257
:00000001FF
