:03000000021213D6
:0C121300787FE4F6D8FD75812002125AA5
:1016490075930075940075910075920075950075F4
:10165900960075B10075B20075B30075B40075C90F
:051669000075CA00221B
:10030E000000000000000000002F000000000700A9
:10031E00070000147F147F1400242A7F2A12006223
:10032E0064081323003649552250000005030000CF
:10033E0000001C224100000041221C000014083E57
:10034E0008140008083E0808000000A0600000081D
:10035E000808080800006060000000201008040271
:10036E00003E5149453E0000427F4000004261512F
:10037E004946002141454B31001814127F100027C9
:10038E0045454539003C4A4949300001710905038C
:10039E0000364949493600064949291E00003636BD
:1003AE000000000056360000000814224100001420
:1003BE0014141414000041221408000201510906FD
:1003CE0000324959513E007C1211127C007F49497E
:1003DE004936003E41414122007F4141221C007FAF
:1003EE0049494941007F09090901003E4149497ABD
:1003FE00007F0808087F0000417F41000020404137
:10040E003F01007F08142241007F40404040007FA2
:10041E00020C027F007F0408107F003E4141413EE6
:10042E00007F09090906003E4151215E007F09192E
:10043E0029460046494949310001017F0101003F2B
:10044E004040403F001F2040201F003F4038403FAB
:10045E00006314081463000708700807006151490F
:10046E00454300007F41410000552A552A550000A2
:10047E0041417F0000040201020400404040404020
:10048E00000001020400002054545478007F4844B8
:10049E00443800384444442000384444487F0038EF
:1004AE005454541800087E0901020018A4A4A47C18
:1004BE00007F080404780000447D400000408084E2
:1004CE007D00007F102844000000417F4000007C2A
:1004DE0004180478007C0804047800384444443836
:1004EE0000FC242424180018242418FC007C080482
:1004FE00040800485454542000043F444020003C5B
:10050E004040207C001C2040201C003C4030403CE1
:10051E00004428102844001CA0A0A07C0044645471
:08052E004C44141414141414BD
:0917BC00D2C1D2A2C2A2C2C12214
:0917C500C2C1C2A2D2C1D2A2220B
:07006600AD071217BC7F7803
:10006D00E4FEEEC39408748094805015EF30E704DD
:10007D00D2A28002C2A2D2C1C2C1EF25E0FF0E8082
:07008D00E1D2A2D2C1C2C101
:010094002249
:1017AC001200667F4012006DAF0512006D0217C566
:0E168E00EC24B0FF12169C7F0112169C7F10F8
:10169C00120066E4FF12006DAF0512006D0217C553
:1016AC00AC07ED24B0FF12169CEC54F0C4540F445C
:0E16BC0010FF12169CEC540F4401FF02169C06
:0215CE00AC0768
:1015D000E4FBEBC3940874809480501BEB12168FCD
:1015E000E4FAEAC39480748094805008AF04121720
:0715F000AC0A80EE0B80DB6A
:0115F70022D1
:10162200E4FCECC3940874809480501A12168EE481
:10163200FBEBC39480748094805008E4FF1217ACD3
:061642000B80EE0C80DCC1
:01164800227F
:0A1457009003BBEAF0A3EBF0A90735
:10146100AF05AC07ECFFC39003BEE09F7480F8901A
:1014710003BDE0648098402412168EAB01EBFFD3CC
:101481009003BCE09F7480F89003BBE064809840B7
:0C14910008E4FF1217AC0B80E40C80C8CC
:01149D00222C
:101181007FAE12169CE4FF1216977F4012169C7FC9
:101191008112169C7FCF12169C7FA112169C7FC8CC
:1011A10012169C7FA612169C7FA812169C7F3F12D6
:1011B100169C7FD312169CE4FF12169C7FD5121643
:1011C1009C7F8012169C7FD912169C7FF112169C6F
:1011D1007FDA12169C7F1212169C7FDB12169C7FFF
:1011E1004012169C7F2012169C7F0212169C7F8D46
:1011F10012169C7F1412169C7FA412169C7FA612B5
:10120100169C7FAF12169CE4FF1215CEE4FDFF027F
:0212110016AC19
:101043009003B0EFF0A3ECF0A3EDF0A3EBF0A3EA71
:04105300F0A3E9F02D
:10105700E4A3F0FCA3F09003B3E0FBA3E0FAA3E062
:10106700F99003B7E0F58275830012085E6070247B
:10107700E09003B6F09003B0E0D3947E7480948040
:101087004010E4F09003B2E004F070069003B1E082
:1010970004F09003B0E0FFA3A3E0FD1216ACE4FC5C
:1010A700ECC394067480948050259003B6E075F0E5
:1010B70006A4240EF582E5F03403F583E5822CF5CA
:1010C70082E43583F583E493FF1217AC0C80D1904B
:0F10D70003B0E02406F09003B7E004F002105DD0
:0110E60022E7
:0A000E007F021214057F020217544E
:10002600AD07AC06538EEF538EF7438E04ECF5D630
:0B003600AF058FD753AFFB438E1022A5
:10140500EF6402700C438E017FE07EFE12002680A1
:101415001BC28E538EFE438E405389BF5389CF75B1
:101425008DFE758BE0C2AB538FFDD28EE598543F90
:101435004440F598D2ACD29C53A23F7E017F007DFB
:10144500007B017A0279151208F7C200E4900315B2
:02145500F02283
:10175400EF640270077FE07EFE120026539A7F43F7
:09176400AF01439A1053BAFE22B2
:10149E009003B1EBF0A3EAF0A3E9F0A3ECF0A3ED17
:0114AE00F04D
:1014AF00E4FFFED39003B5E09F9003B4E09E40208D
:1014BF00D2009003B1E0FBA3E0FAA3E0F98F828E94
:1014CF008312085EF5992000FD0FBF00010E80D337
:0114DF0022EA
:1014E0009003C5EBF0A3EAF0A3E9F0A3ECF0A3EDC1
:0114F000F00B
:1014F100E4FFFED39003C9E09F9003C8E09E402023
:10150100D2019003C5E0FBA3E0FAA3E0F98F828E3C
:101511008312085EF59B2001FD0FBF00010E80D3F1
:0115210022A7
:030023000215645F
:10156400C0E0C083C082C0D0309821C298900315D7
:10157400E02415F582E43402F583E599F09003152F
:10158400E004F0C3748094814002E4F0309904C212
:0C15940099C200D0D0D082D083D0E032C9
:0300430002176D34
:10176D00C0E0E59A54016003539AFEE59A54026075
:09177D0005539AFDC201D0E032CF
:100F8F0042039C000042039E00004203A000004267
:090F9F0003A200004203A40000BB
:1000A600AD07EDD394047480948040037F0122ED64
:1000B600600302013A120845FED3940374809480CB
:1000C60040037F0222C28CC2A9C2B95389F0538E63
:1000D6007F538FFE90000212085E64017002D2A95F
:1000E60090000112085E64017002D2B9EE42899056
:1000F600000312085EFF7E007003438E80EF6402E9
:100106004E700343890490000412085E6401700374
:10011600438F019000051208BFE5F0F58C900005AD
:100126001208BFF58A90000712085E64017002D2B9
:100136008C7F0022ED640160030201C4120845FEB3
:10014600C394037480948040037F0222C28EC2ABA4
:10015600C2BB53890F538EBF538FFD900002120806
:100166005E64017002D2AB90000112085E640170F9
:1001760002D2BBEEC454F0428990000312085EFF1F
:100186007E007003438E40EF64024E700343894045
:1001960090000412085E64017003438F029000050C
:1001A6001208BFE5F0F58D9000051208BFF58B909B
:1001B600000712085E64017002D28E7F0022ED6491
:1001C60002706A90000312085EFED3940274809453
:1001D6008040037F0222538EE353AFFB538FFB9085
:1001E600000212085E6401700343AF04EEFF7E0056
:1001F6007003438E04EF64024E7003438E08900032
:100206000412085E64017003438F0490000512080F
:10021600BFE5F0F5D69000051208BFF5D7900007A8
:1002260012085E64017003438E107F0022ED6403A2
:10023600706790000312085EFED394027480948067
:1002460040037F022253D1F053AFDF900002120821
:100256005E6401700343AF20EEFF7E00700343D15E
:1002660002EF64024E700343D10690000412085E4A
:100276006401700343D1019000051208BFE5F0F553
:10028600D49000051208BFF5D590000712085E64E9
:1002960001700343D1087F0022ED6404706790006B
:1002A6000312085EFD7C00D39402748094804003A0
:1002B6007F022253D10F53AFBF90000212085E6433
:1002C60001700343AF40ED4C700343D1209000030F
:1002D60012085E6402700343D16090000412085E47
:1002E6006401700343D1109000051208BFFDACF005
:1002F600ECF5D28DD390000712085E6401700343BB
:08030600D1807F00227F02225A
:1015F800E49003B0F0A3F0A304F0E4A3F0A3F0A3F5
:101608007428F0A3E4F0A3F07B017A0379B0FF1209
:0916180000A6E490039CF0A3F08D
:0116210022A6
:03000B00020046AA
:10004600C0E0C083C08290039DE004F07006900378
:0B0056009CE004F0D082D083D0E032A8
:03001B000216E8E2
:1016E800C0E0C083C08290039FE004F070069003BE
:0B16F8009EE004F0D082D083D0E032EE
:030063000217037E
:10170300C0E0C083C0829003A1E004F070069003A0
:0B171300A0E004F0D082D083D0E032D0
:03009B0002171E2B
:10171E00C0E0C083C0829003A3E004F07006900383
:0B172E00A2E004F0D082D083D0E032B3
:0300A30002173908
:10173900C0E0C083C0829003A5E004F07006900366
:0B174900A4E004F0D082D083D0E03296
:100FA80041039B00410317004103160060730328A7
:100FB800FFFF006F02000000303030303030303436
:100FC800303030303030303430303030303030360F
:100FD800303030303030303537633863316438354D
:100FE800623936363462323838323233353364391E
:100FF80038613633306365340000000000000000BB
:101008000002313964353862646462636636346478
:1010180066396236393039346364396430616564FD
:10102800386655500318FFFF00090055000013FFEC
:0610380055005555555509
:1005360057696669206C6F7373210052583A0054EC
:10054600583A000D0A0000000000000000000000FC
:100556000000000000000000000000000000000095
:100566000000000000000000000000000000000085
:100576000000000000000000000000000000000075
:100586000000000000000000000000000000000065
:100596000000000000000000000000000000000055
:1005A6000000000000000000000000000000000045
:1005B6000000000000000000000000000000000035
:1005C6000000000000000000000000000000000025
:1005D6000000000000000000000000000000000015
:1005E6000000000000000000000000000000000005
:1005F60000000000000000000000000000000000F5
:1006060000000000000000000000000000000000E4
:1006160000000000000000000000000000000000D4
:1006260000000000000000000000000000000000C4
:1006360000000000000000000000000000000000B4
:1006460000000000000000000000000000000000A4
:100656000000000000000000000000000000000094
:100666000000000000000000000000000000000084
:100676000000000000000000000000000000000074
:100686000000000000000000000000000000000064
:100696000000000000000000000000000000000054
:1006A6000000000000000000000000000000000044
:1006B6000000000000000000000000000000000034
:1006C6000000000000000000000000000000000024
:1006D6000000000000000000000000000000000014
:1006E6000000000000000000000000000000000004
:1006F60000000000000000000000000000000000F4
:1007060000000000000000000000000000000000E3
:1007160000000000000000000000000000000000D3
:1007260000000000000000000000000000000000C3
:1007360000000000000000000000000000000000B3
:09074600000000000000000000AA
:1016CA00D3EF9400EE940040147D6E7C00ED1D7003
:0D16DA00011CED4C70F7EF1F70E61E80E361
:0116E70022E0
:10179A00E4900315F07E01FFFD7B017A02791502C0
:0217AA0008F73E
:1015A000E49003B0F0900315E0FFD39400748094AE
:1015B00080401220000F7B017A027915EFFD7C003C
:0D15C00012149E800012179A9003B0E0FFF5
:0115CD0022FB
:0B135B009003BFEBF0A3EAF0A3E9F061
:10136600E4A3F0FEAF05A3ECF0A3EFF07F02900339
:10137600C4E024FFFD9003C3E034FFFCC3EF9DEE01
:101386009C50209003BFE0FBA3E0FAA3E0F98F8214
:101396008E8312085EFD9003C2E02DF00FBF0001A0
:0913A6000E80CB9003C2E0F0FFC1
:0113AF00221B
:0B1522009003CAEBF0A3EAF0A3E9F08D
:10152D00E4A3F09003CAE0FBA3E0FAA3E0F974FF93
:10153D002DF58274FF3CF58312085E9003CEF0E426
:10154D00FF12135B9003CEE0B507069003CD740137
:06155D00F09003CDE0FF59
:011563002265
:100C9B009003A6EBF0A3EAF0A3E9F0A3ECF0A3ED2D
:100CAB00F064734C7003020D979003A9E0FEA3E070
:100CBB00FFEE6003020D51EF24F6602014602F1439
:100CCB00603E24FE604C2405707C9003A6E0FBA3E1
:100CDB00E0FAA3E0F9900003740580679003A6E0A7
:100CEB00FBA3E0FAA3E0F990000374068055900390
:100CFB00A6E0FBA3E0FAA3E0F9900003740780439E
:100D0B009003A6E0FBA3E0FAA3E0F99000037408BC
:100D1B0080319003A6E0FBA3E0FAA3E0F990000377
:100D2B00740A12088BE590C4540F90000912088BBB
:100D3B0090000A740112088B90000BE412088B9040
:100D4B00000CE412088B9003ABE0FF9003A6E0FBD2
:100D5B00A3E0FAA3E0F9900004EF12088B9003AC28
:100D6B00A3E090000512088B9003A9E07004A3E0A8
:100D7B00640960189003AEA3E0FF9003A6E0FBA309
:100D8B00E0FAA3E0F9900008EF12088B9003A6E0BD
:100D9B00FBA3E0FAA3E0F9A3E0FCA3E0FD12135BD5
:100DAB009003A6E0FBA3E0FAA3E0F99003AAE024EA
:100DBB00FFFD9003A9E034FF8D82F583EF12088BC2
:100DCB009003A9E0FCA3E0FD12149E9003A6E0FBA8
:100DDB00A3E0FAA3E0F9A3E0FFA3E0900113CFF0A7
:080DEB00A3EFF07F010210E705
:1012FF00900316E06401700C90039CE07002A3E071
:10130F007002D28CC390039DE094E090039CE06444
:10131F008094AE4036C28CE4F0A3F0900316F090A8
:10132F000317F090039BF09003BDF0A37408F07BBC
:10133F00807A007D027C00E4FF1214577BFF7A0550
:0C134F0079367D047C007F2412104322BC
:0E10E70090010FEFF0A3EBF0A3EAF0A3E9F005
:1010F50078157C017D017BFF7A05794C7E017F00A7
:1011050012081F90010FE014600B0470157BFF7A25
:1011150005794180067BFF7A0579457D037C0012C0
:1011250014E0900110E0F9A3E0FAA3E0900003C9F0
:10113500F0A3EAF0A3E9F0900113E0FFA3E090002B
:1011450006CFF0A3EFF07B017A017915120AED9035
:101155000113E0FEA3E0FF7C007D031208ADEF2440
:10116500FFFDEE34FFFC7B017A0179151214E07B5B
:0C117500FF7A0579497D027C000214E03D
:0B0AED00900000EBF0A3EAF0A3E9F09A
:100AF80078087C007D017BFF7A06794C7E007F03B5
:100B080012081F780B7C007D017BFF7A06794F7EE7
:100B1800017F0012081FE490010BF0A3F0A3F0A3DB
:100B2800F090010BF0A3F0900006E0FEA3E0FF9028
:100B3800010BE0FCA3E0FDC39FEC9E4003020C7395
:100B4800900003E0FBA3E0FAA3E0F98D828C831206
:100B5800085EFDC4540F900008F0ED540FA3F0E4B4
:100B680090010DF0A3F090010DE0FEA3E0FFC39407
:100B780002EE648094804003020C1274082FF58200
:100B880074003EF583E0FFC374809480401FEF94A7
:100B98000A74809480501690010DE0FEA3E02408AA
:100BA800F58274003EF583E02430F0804C90010D0E
:100BB800E0FEA3E02408F58274003EF583E0FFC35D
:100BC800940A748094805003020C9AD3EF940F74A3
:100BD8008094804003020C9A90010DE0FEA3E0FF90
:100BE8002408F58274003EF583E02437FD74082F4D
:100BF800F58274003EF583EDF090010EE004F0708C
:100C08000690010DE004F0020B6E900007E024FF4F
:100C1800FF900006E034FFFEC390010CE09F9001B6
:100C28000BE09E500890000A7420F08005E49000C4
:100C38000AF090010BE0FEA3E0FF7C007D031208A0
:100C4800AD740B2FF974003EA801FC7D017B017A7D
:100C58000079087E007F0312081F90010CE004F061
:100C6800700690010BE004F0020B2F900006E0FEE6
:100C7800A3E0FF7C007D031208AD900000E0FBA319
:100C8800E0FAA3E0F8AC02AD037B017A00790B121D
:020C9800081F33
:010C9A002237
:1017860057656C636F6D652044656D6F2053797383
:0417960074656D0009
:10166E0012164912118112162212000E1215F87B53
:10167E00FF7A177986E4FDFC7F08121043D2AF2261
:0800030012166E12001880FBBA
:1013B000436F6E66696775726520576966693A534F
:1013C0006F667400436F6E66696775726520576952
:1013D00066693A41500052657365742057696669C1
:1013E0002100456E7465722062696E6461626C658D
:1013F000206D6F64652100526573746172742057AB
:0514000069666921008E
:04103E004103D20098
:030018000215A02E
:10092300E49003D1F020A30F7F0AFE1216CA20A37E
:10093300069003D17401F020A4107F0A7E001216E2
:10094300CA20A4069003D17402F020A5107F0A7E6A
:10095300001216CA20A5069003D17403F020A0103C
:100963007F0A7E001216CA20A0069003D17404F0F9
:1009730020A6107F0A7E001216CA20A6069003D175
:100983007405F09003D1E0FF7003020AEC900316A4
:10099300E064016003020AECD3EF94057480948051
:1009A30050169003BDE4F0A37408F07B807A007DB9
:1009B300027C00E4FF1214579003D2E0600204F0BB
:1009C3009003D1E024FE6045146078147003020A9A
:1009D30078147003020AAA24046003020ADD7BFF71
:1009E3007A1379B07D027C007F021210437B017A77
:1009F3000379189003AB7409F09003D2E0FF9003DE
:100A0300ACE4F0A3EFF0A3E4F0A304802E7BFF7A21
:100A13001379C47D027C007F021210437B017A03A9
:100A230079189003AB7409F09003D2E0FF9003AC04
:100A3300E4F0A3EFF0A3E4F0A37402F07D0A7C00DA
:100A4300020ADA7BFF7A1379D67D027C007F0212D9
:100A530010437B017A0379189003AB740BF0900376
:100A6300D2E0FF9003ACE4F0A3EFF0E4A3F0A3F033
:100A73007D09FC80627BFF7A1379E27D027C007F33
:100A8300021210437B017A0379189003AB7415F0BB
:100A93009003D2E0FF9003ACE4F0A3EFF0E4A3F003
:100AA300A3F07D09FC80307BFF7A1379F77D027C0C
:100AB300007F021210437B017A0379189003AB7411
:100AC30029F09003D2E0FF9003ACE4F0A3EFF0E44D
:100AD300A3F0A3F07D09FC120C9B30A3FD30A4FA14
:090AE30030A5F730A0F430A6F1B3
:010AEC0022E7
:10129F004C313A30204C323A30204C333A30204CDB
:1012AF00343A3000310030004D3A41004D3A53008E
:1012BF004D3A4120433A53004D3A5320433A4100AF
:1012CF004D3A5320433A4120573A31004D3A53207B
:1012DF00433A4120573A31204E3A31004D3A53208C
:1012EF00433A4120573A31204E3A3120503A31009B
:100DF3009003D3EFF090039BE07003020EBB9003CC
:100E0300D3E070249003BDF0A37408F07B807A00D4
:100E13007D047C00E4FF1214577BFF7A12799F7DD7
:100E2300047C007F061210439003D3E0FF6401604B
:100E330003EF70187BFF3094067A1279B380047A3B
:100E43001279B57D047C007F181210439003D3E020
:100E5300FF64026003EF70187BFF3095067A127906
:100E6300B380047A1279B57D047C007F3612104377
:100E73009003D3E0FF64046003EF70187BFF3096A8
:100E8300067A1279B380047A1279B57D047C007FE7
:100E9300541210439003D3E0FF64086003EF702EF5
:100EA3007BFF3097067A1279B380047A1279B57D85
:100EB300047C007F720210439003BDE4F0A3740628
:0F0EC300F07B807A007D047C00E4FF121457223C
:100ED2009003CFEDF0A3EBF0EF640D6003020F8EF1
:100EE2009003BDF0A37404F07B807A007D027C0045
:100EF200E4FF1214579003D0E024FE601F24FD602B
:100F02002314602824F4602C24F8602824E0602C48
:100F1200243970787BFF7A1279B780677BFF7A1267
:100F220079BB805F7BFF7A1279BF80577BFF7A1291
:100F320079C7804F7BFF7A1279CF80479003CFE049
:100F4200FF7E00C3748094804019D3EF94077480AD
:100F52009480500F7BFF7A1279DB7D027C007F0642
:100F62001210439003CFE0FF7E00C3940874809474
:100F7200804019D3EF940F74809480500F7BFF7AD6
:0D0F82001279EB7D027C007F0612104322E5
:10121F00020003E493A3F8E493A34003F68001F2E2
:10122F0008DFF48029E493A3F85407240CC8C333D0
:10123F00C4540F4420C8834004F456800146F6DF9F
:10124F00E4800B0102040810204080900F8FE47E91
:10125F00019360BCA3FF543F30E509541FFEE49394
:10126F00A360010ECF54C025E060A840B8E493A35B
:10127F00FAE493A3F8E493A3C8C582C8CAC583CA86
:10128F00F0A3C8C582C8CAC583CADFE9DEE780BE3E
:0110420000AD
:10074F00E709F608DFFA8046E709F208DFFA803E8C
:10075F0088828C83E709F0A3DFFA8032E309F60879
:10076F00DFFA8078E309F208DFFA807088828C83E1
:10077F00E309F0A3DFFA806489828A83E0A3F60895
:10078F00DFFA805889828A83E0A3F208DFFA804C6F
:10079F0080D280FA80C680D4806980F28033801046
:1007AF0080A680EA809A80A880DA80E280CA8033AF
:1007BF0089828A83ECFAE493A3C8C582C8CCC58327
:1007CF00CCF0A3C8C582C8CCC583CCDFE9DEE780F7
:1007DF000D89828A83E493A3F608DFF9ECFAA9F076
:1007EF00EDFB2289828A83ECFAE0A3C8C582C8CCCC
:1007FF00C583CCF0A3C8C582C8CCC583CCDFEADEE5
:10080F00E880DB89828A83E493A3F208DFF980CC46
:10081F0088F0EF60010E4E60C388F0ED2402B4043F
:10082F000050B9F582EB2402B4040050AF232345E6
:06083F00822390079F7365
:10084500BB010689828A83E0225002E722BBFE02B1
:09085500E32289828A83E49322E4
:10085E00BB010CE58229F582E5833AF583E022504F
:10086E0006E92582F8E622BBFE06E92582F8E22299
:0D087E00E58229F582E5833AF583E49322B3
:10088B00F8BB010DE58229F582E5833AF583E8F0A3
:10089B00225006E92582C8F622BBFE05E92582C84F
:0208AB00F22237
:1008AD00EF8DF0A4A8F0CF8CF0A428CE8DF0A42E5F
:0208BD00FE2219
:1008BF00BB0110E58229F582E5833AF583E0F5F077
:1008CF00A3E0225009E92582F886F008E622BBFE54
:1008DF000AE92582F8E2F5F008E222E5832AF5839A
:0808EF00E993F5F0A3E993225F
:1008F700EF4E6012EF60010EEDBB010B89828A8318
:10090700F0A3DFFCDEFA2289F05007F709DFFCA924
:0C091700F022BBFEFCF309DFFCA9F0227B
:00000001FF
