:030000000219657D
:0C196500787FE4F6D8FD7581200219ACF3
:101E0900759300759400759100759200759500752C
:101E1900960075B10075B20075B30075B40075C947
:051E29000075CA002253
:1009B9000000000000000000002F000000000700F8
:1009C900070000147F147F1400242A7F2A12006272
:1009D900640813230036495522500000050300001E
:1009E90000001C224100000041221C000014083EA6
:1009F90008140008083E0808000000A0600000086C
:100A090008080808000060600000002010080402BF
:100A1900003E5149453E0000427F4000004261517D
:100A29004946002141454B31001814127F10002717
:100A390045454539003C4A494930000171090503DA
:100A490000364949493600064949291E000036360B
:100A5900000000005636000000081422410000146E
:100A6900141414140000412214080002015109064B
:100A790000324959513E007C1211127C007F4949CC
:100A89004936003E41414122007F4141221C007FFD
:100A990049494941007F09090901003E4149497A0B
:100AA900007F0808087F0000417F41000020404185
:100AB9003F01007F08142241007F40404040007FF1
:100AC900020C027F007F0408107F003E4141413E35
:100AD900007F09090906003E4151215E007F09197D
:100AE90029460046494949310001017F0101003F7A
:100AF9004040403F001F2040201F003F4038403FFA
:100B0900006314081463000708700807006151495D
:100B1900454300007F41410000552A552A550000F0
:100B290041417F000004020102040040404040406E
:100B3900000001020400002054545478007F484406
:100B4900443800384444442000384444487F00383D
:100B59005454541800087E0901020018A4A4A47C66
:100B6900007F080404780000447D40000040808430
:100B79007D00007F102844000000417F4000007C78
:100B890004180478007C0804047800384444443884
:100B990000FC242424180018242418FC007C0804D0
:100BA900040800485454542000043F444020003CA9
:100BB9004040207C001C2040201C003C4030403C30
:100BC900004428102844001CA0A0A07C00446454C0
:080BD9004C441414141414140C
:091F8900D2C1D2A2C2A2C2C1223F
:091F9200C2C1C2A2D2C1D2A22236
:07006600AD07121F897F782E
:10006D00E4FEEEC39408748094805015EF30E704DD
:10007D00D2A28002C2A2D2C1C2C1EF25E0FF0E8082
:07008D00E1D2A2D2C1C2C101
:010094002249
:101F6F001200667F4012006DAF0512006D021F92C6
:0E1E5100EC24B0FF121E5F7F01121E5F7F1097
:101E5F00120066E4FF12006DAF0512006D021F92B3
:101E6F00AC07ED24B0FF121E5FEC54F0C4540F44C6
:0E1E7F0010FF121E5FEC540F4401FF021E5FA5
:021D8E00AC07A0
:101D9000E4FBEBC3940874809480501BEB121E523A
:101DA000E4FAEAC39480748094805008AF04121F50
:071DB0006F0A80EE0B80DBDF
:011DB7002209
:101DE200E4FCECC3940874809480501A121E51E4EF
:101DF200FBEBC39480748094805008E4FF121F6F41
:061E02000B80EE0C80DCF9
:011E080022B7
:0A1C090090017EEAF0A3EBF0A907BA
:101C1300AF05AC07ECFFC3900181E09F7480F8909F
:101C23000180E06480984024121E51AB01EBFFD386
:101C330090017FE09F7480F890017EE0648098407B
:0C1C430008E4FF121F6F0B80E40C80C847
:011C4F002272
:1018D3007FAE121E5FE4FF121E5A7F40121E5F7F0F
:1018E30081121E5F7FCF121E5F7FA1121E5F7FC812
:1018F300121E5F7FA6121E5F7FA8121E5F7F3F121C
:101903001E5F7FD3121E5FE4FF121E5F7FD5121E80
:101913005F7F80121E5F7FD9121E5F7FF1121E5FF1
:101923007FDA121E5F7F12121E5F7FDB121E5F7F44
:1019330040121E5F7F20121E5F7F02121E5F7F8D8B
:10194300121E5F7F14121E5F7FA4121E5F7FA612FA
:101953001E5F7FAF121E5FE4FF121D8EE4FDFF02C8
:021963001E6FF5
:1017950090017BEFF0A3ECF0A3EDF0A3EBF0A3EA4F
:0417A500F0A3E9F0D4
:1017A900E4A3F0FCA3F090017EE0FBA3E0FAA3E040
:1017B900F9900182E0F582758300120603607024B6
:1017C900E0900181F090017BE0D3947E7480948055
:1017D9004010E4F090017DE004F0700690017CE097
:1017E90004F090017BE0FFA3A3E0FD121E6FE4FC6F
:1017F900ECC39406748094805025900181E075F0C3
:1018090006A424B9F582E5F03409F583E5822CF5BF
:1018190082E43583F583E493FF121F6F0C80D19026
:0F182900017BE02406F0900182E004F00217AF8B
:01183800228D
:0A1F7F007F02121BB77F02021F173A
:10002600AD07AC06538EEF538EF7438E04ECF5D630
:0B003600AF058FD753AFFB438E1022A5
:101BB700EF6402700C438E017FE07EFE12002680E8
:101BC7001BC28E538EFE438E405389BF5389CF75F8
:101BD7008DFE758BE0C2AB538FFDD28EE598543FD7
:101BE7004440F598D2ACD29C53A23F7E017F007D42
:101BF700007B017A007900120713C200E49001000C
:021C0700F022C9
:101F1700EF640270077FE07EFE120026539A7F432C
:091F2700AF01439A1053BAFE22E7
:101C5000900183EBF0A3EAF0A3E9F0A3ECF0A3ED8D
:011C6000F093
:101C6100E4FFFED3900187E09F900186E09E402033
:101C7100D200900183E0FBA3E0FAA3E0F98F828E0A
:101C810083120603F5992000FD0FBF00010E80D3DA
:011C91002230
:101C920090019FEBF0A3EAF0A3E9F0A3ECF0A3ED2F
:011CA200F051
:101CA300E4FFFED39001A3E09F9001A2E09E4020B9
:101CB300D20190019FE0FBA3E0FAA3E0F98F828EAB
:101CC30083120603F59B2001FD0FBF00010E80D395
:011CD30022EE
:03002300021D16A5
:101D1600C0E0C083C082C0D0309821C29890010034
:101D2600E02400F582E43400F583E599F0900100A3
:101D3600E004F0C3748094814002E4F0309904C258
:0C1D460099C200D0D0D082D083D0E0320F
:03004300021F3069
:101F3000C0E0E59A54016003539AFEE59A540260AA
:091F400005539AFDC201D0E03204
:1016E40042018D000042018F00004201910000423E
:0916F40001930000420195000081
:10075100AD07EDD394047480948040037F0122EDB2
:1007610060030207E51205EAFED3940374809480C6
:1007710040037F0222C28CC2A9C2B95389F0538EB1
:100781007F538FFE90000212060364017002D2A90A
:1007910090000112060364017002D2B9EE42899001
:1007A1000003120603FF7E007003438E80EF640294
:1007B1004E70034389049000041206036401700320
:1007C100438F01900005120664E5F0F58C90000559
:1007D100120664F58A90000712060364017002D2C2
:1007E1008C7F0022ED6401600302086F1205EAFEAE
:1007F100C394037480948040037F0222C28EC2ABF3
:10080100C2BB53890F538EBF538FFD900002120656
:100811000364017002D2AB900001120603640170FF
:1008210002D2BBEEC454F04289900003120603FFCA
:100831007E007003438E40EF64024E700343894093
:1008410090000412060364017003438F02900005B7
:10085100120664E5F0F58D900005120664F58B90A3
:10086100000712060364017002D28E7F0022ED643C
:1008710002706A900003120603FED39402748094FE
:100881008040037F0222538EE353AFFB538FFB90D3
:1008910000021206036401700343AF04EEFF7E0001
:1008A1007003438E04EF64024E7003438E08900080
:1008B1000412060364017003438F049000051206BD
:1008C10064E5F0F5D6900005120664F5D7900007AF
:1008D10012060364017003438E107F0022ED64034E
:1008E1007067900003120603FED394027480948013
:1008F10040037F022253D1F053AFDF900002120672
:10090100036401700343AF20EEFF7E00700343D107
:1009110002EF64024E700343D106900004120603F5
:100921006401700343D101900005120664E5F0F5FE
:10093100D4900005120664F5D590000712060364F1
:1009410001700343D1087F0022ED640470679000B9
:1009510003120603FD7C00D394027480948040034B
:100961007F022253D10F53AFBF90000212060364DE
:1009710001700343AF40ED4C700343D1209000035D
:100981001206036402700343D1609000041206034F
:100991006401700343D110900005120664FDACF0B0
:1009A100ECF5D28DD3900007120603640170034366
:0809B100D1807F00227F0222A9
:101DB800E4900179F0A3F0A304F0E4A3F0A3F0A366
:101DC8007428F0A3E4F0A3F07B017A017979FF127B
:091DD8000751E490018DF0A3F025
:011DE10022DF
:03000B00020046AA
:10004600C0E0C083C08290018EE004F0700690018B
:0B0056008DE004F0D082D083D0E032B7
:03001B00021EAB17
:101EAB00C0E0C083C082900190E004F07006900106
:0B1EBB008FE004F0D082D083D0E03232
:03006300021EC6B4
:101EC600C0E0C083C082900192E004F070069001E9
:0B1ED60091E004F0D082D083D0E03215
:03009B00021EE161
:101EE100C0E0C083C082900194E004F070069001CC
:0B1EF10093E004F0D082D083D0E032F8
:0300A300021EFC3E
:101EFC00C0E0C083C082900196E004F070069001AF
:0B1F0C0095E004F0D082D083D0E032DA
:1016FD004101780041010400410101004201020055
:10170D000960730105FFFF006F02000000303030EB
:10171D0030303030343030303030303034303030B4
:10172D00303030303630303030303030353763385F
:10173D006331643835623936363462323838323294
:10174D003335336439386136333063653400000026
:10175D0000000000000002313964353862646462B3
:10176D0063663634646639623639303934636439C8
:08177D006430616564386655B3
:0D000E0057696669206C6F73732100000054
:101E8D00D3EF9400EE940040147D6E7C00ED1D7038
:0D1E9D00011CED4C70F7EF1F70E61E80E396
:011EAA002215
:101F5D00E4900100F07E01FFFD7B017A0079000223
:021F6D00071358
:1012AD00E4900179F0900100E0FFD39400748094F4
:1012BD008050030213A83000030213A8900000E031
:1012CD00F46008A3E0F460030213A8900103E02486
:1012DD0005FD900102E03400FCD3EF9DE49C40033A
:1012ED00121F5D900100E0FFD3900103E09F90017C
:1012FD0002E0940040030213AB9001831206E2401A
:10130D000000007F007E007D807C41120ECFC00466
:10131D00C005C006C007900002E0FF121561AC06C3
:10132D00AD07E4120322D003D002D001D000120188
:10133D009EC004C005C006C007900003E0FF121553
:10134D0061AC06AD07E4120322D003D002D001D068
:10135D00001200ADE4FBFA798078401200ADC004B4
:10136D00C005C006C007900100E0FCE4120327A8E9
:10137D0004A905AA06AB07D007D006D005D00412E4
:10138D0002A4701A7B017A007900900100E0FD7CC7
:10139D00001219F1900179EFF08003121F5D900199
:0313AD0079E0FFE5
:0113B000221A
:0B1B0D00900183EBF0A3EAF0A3E9F0E5
:101B1800E4A3F0FEAF05A3ECF0A3EFF07F02900181
:101B280088E024FFFD900187E034FFFCC3EF9DEEC1
:101B38009C5020900183E0FBA3E0FAA3E0F98F8298
:101B48008E83120603FD900186E02DF00FBF000181
:091B58000E80CB900186E0F0FF45
:011B61002261
:0B19F10090017AEBF0A3EAF0A3E9F00C
:1019FC00E4A3F0A374FFF0E4A3F0D3ED9400EC9413
:101A0C0000401C90017AE0FBA3E0FAA3E0F974FF1C
:101A1C002DF58274FF3CF58312060390017EF09045
:101A2C00017AE0FBA3E0FAA3E0F9121B0D90017F11
:101A3C00EFF090017EE0B5070690017D7401F09007
:041A4C00017DE0FF39
:011A50002273
:1010350090017BEDF0A3EAF0A3EBF0900179EEF0DF
:03104500A3EFF026
:1010480064734E7003021143900179E0FEA3E0FF40
:101058007D017C00121CD4AA06A9077B019001809F
:10106800EBF0A3EAF0A3E9F07E007F037D0012070E
:1010780013900180E0FBA3E0FAA3E0F974FF1206E5
:1010880030900180E0FBA3E0FAA3E0F9900001743E
:10109800FF120642900179E0FEA3E0FFEE7058EFE0
:1010A80024F6601514601914601D24FE60202405C0
:1010B80070459000037405803B90000374068034EB
:1010C8009000037407802D90000374088026900018
:1010D80003740A120642E590C4540F9000091206E0
:1010E8004290000A740112064290000BE412064274
:1010F80090000CE412064290017BE0FF900180E032
:10110800FBA3E0FAA3E0F9900004EF120642900175
:101118007CA3E0900005120642900179E07004A3D8
:10112800E06409601690017EA3E0FFA3E0FBA3E062
:10113800FAA3E0F9900008EF120642900180E0FB64
:10114800A3E0FAA3E0F9900179E0FCA3E0FD121B0B
:101158000D900180E0FBA3E0FAA3E0F990017AE0AA
:1011680024FFFD900179E034FF8D82F583EF1206AC
:0C11780042900179E0FCA3E0FD021C5055
:101AB100900101E06401700C90018DE07002A3E0DF
:101AC1007002D28CC390018EE094E090018DE064AD
:101AD1008094AE4036C28CE4F0A3F0900101F09006
:101AE1000104F0900178F0900180F0A37408F07B7C
:101AF100807A007D027C00E4FF121C097BFF7A00E2
:0C1B0100790E7D047C007F2412179522D1
:0515610090017AEFF09B
:10156600787B7C017D017BFF7A0079197E007F0202
:101576001205C4E490017DF0A3F090017AE0FE54D8
:101586000FA3F0EEC4540FA3F09001831206E200FD
:101596000000007F007E007D807C41120ECFC004DB
:1015A600C005C006C00790017BE0FCE4120327D00B
:1015B60003D002D001D00012019E12035B90017D80
:1015C600EEF0A3EFF09001831206E23F8000007F69
:1015D600007E007D807C41120ECFC004C005C0068F
:1015E600C00790017CE0FCE4120327D003D002D0B0
:1015F60001D00012019EC004C005C006C0079001BC
:101606007DE0FCA3E0FDE4120322D003D002D0016A
:10161600D0001200AD12035B90017DEEF0A3EFF057
:0116260022A1
:101F490057656C636F6D652044656D6F20537973B8
:041F590074656D003E
:101E2E00121E091218D3121DE2121F7F121DB812B4
:101E3E001F9B7BFF7A1F7949E4FDFC7F08121795E3
:031E4E00D2AF22EE
:08000300121E2E120D5F80FB9E
:101B6200436F6E66696775726520576966693A5395
:101B72006F667400436F6E66696775726520576998
:101B820066693A4150005265736574205769666907
:101B92002100456E7465722062696E6461626C65D3
:101BA200206D6F64652100526573746172742057F1
:051BB2006966692100D5
:041785004101A50079
:100D5F001212ADEF7003020ECE9001017401F090EC
:100D6F000005E09001A5F0900004E024F970030263
:100D7F000E0124FA7003020E2524FE7003020E9951
:100D8F0024FE7003020EAE240E6003020ECB900001
:100D9F0008E06401703A9001A5E0FB7A00E490014D
:100DAF007EF0A3F07D047F09FE1210359001A5E0BF
:100DBF0004F0E0FB7A0090017EE4F0A37404F07D70
:100DCF00057F0E7E00121035900009E0FF1213B15F
:100DDF00900008E064026003020ECB9001A5E0FBD7
:100DEF007A0090017EE4F0A37403F07D047F0E027D
:100DFF000EC6C28CE490018DF0A3F09001A5E0FB2C
:100E0F007A00E490017EF0A3F07D087F09FE1210B6
:100E1F0035D28C020ECBE4900178F0900104F09063
:100E2F000004E0FF900008E0FDA3E0FB12162790FE
:100E3F000008E0FF7E00C3748094804010D3EF94CD
:100E4F00077480948050069001047401F0C3EF94EE
:100E5F0008EE648094804015D3EF940FEE64809475
:100E6F0080500A9001047401F0900178F09001789D
:100E7F00E06005E4FF1213B19001A5E0FB7A00E4F6
:100E8F0090017EF0A3F07D0E80109001A5E0FB7A1B
:100E9F0000E490017EF0A3F07D107F09FE801A9090
:100EAF0001A5E0FB7A00900008E0FF90017EE4F0DE
:100EBF00A3EFF07D127F0A7E00121035121F5D2204
:100BE100E49001A4F020A30F7F0AFE121E8D20A322
:100BF100069001A47401F020A4107F0A7E00121E49
:100C01008D20A4069001A47402F020A5107F0A7E15
:100C110000121E8D20A5069001A47403F020A010DF
:100C21007F0A7E00121E8D20A0069001A47404F09C
:100C310020A6107F0A7E00121E8D20A6069001A418
:100C41007405F09001A4E0FF7003020D5E900101B4
:100C5100E064016003020D5ED3EF9405748094801B
:100C61005016900180E4F0A37408F07B807A007D37
:100C7100027C00E4FF121C099001A5E0600204F06F
:100C81009001A4E024FE6032146056146077147061
:100C910003020D2A24046003020D4F7BFF7A1B79A6
:100CA100627D027C007F021217959001A5E0FB7A1C
:100CB1000090017EE4F0A304801E7BFF7A1B79760D
:100CC1007D027C007F021217959001A5E0FB7A005E
:100CD10090017EE4F0A37402F07D097F0A7E00801A
:100CE1006A7BFF7A1B79887D027C007F021217954F
:100CF1009001A5E0FB7A00E490017EF0A3F07D0B6A
:100D01007F09FE80467BFF7A1B79947D027C007F00
:100D1100021217959001A5E0FB7A00E490017EF0A4
:100D2100A3F07D157F09FE80227BFF7A1B79A97DC7
:100D3100027C007F021217959001A5E0FB7A00E486
:100D410090017EF0A3F07D297F09FE12103530A3BA
:0D0D5100FD30A4FA30A5F730A0F430A6F173
:010D5E002272
:091F9B00D2A3D2A4D2A5D2A62241
:101A51004C313A30204C323A30204C333A30204C21
:101A6100343A3000310030004D3A41004D3A5300D4
:101A71004D3A4120433A53004D3A5320433A4100F5
:101A81004D3A5320433A4120573A31004D3A5320C1
:101A9100433A4120573A31204E3A31004D3A5320D2
:101AA100433A4120573A31204E3A3120503A3100E1
:1013B100900179EFF0900178E070030214799001C7
:1013C10079E07024900180F0A37408F07B807A00AA
:1013D1007D047C00E4FF121C097BFF7A1A79517DA0
:1013E100047C007F06121795900179E0FF6401608B
:1013F10003EF70187BFF3094067A1A796580047ABE
:101401001A79677D047C007F18121795900179E0A5
:10141100FF64026003EF70187BFF3095067A1A793A
:101421006580047A1A79677D047C007F36121795EE
:10143100900179E0FF64046003EF70187BFF309640
:10144100067A1A796580047A1A79677D047C007FAF
:1014510054121795900179E0FF64086003EF702E34
:101461007BFF3097067A1A796580047A1A79677D4D
:10147100047C007F72021795900180E4F0A374064A
:0F148100F07B807A007D047C00E4FF121C0922BE
:10162700900179EDF0A3EBF0EF640D60030216E390
:10163700900180F0A37404F07B807A007D027C0027
:10164700E4FF121C0990017AE024FE601F24FD606C
:101657002314602824F4602C24F8602824E0602CEC
:10166700243970787BFF7A1A796980677BFF7A1A49
:10167700796D805F7BFF7A1A797180577BFF7A1AC1
:101687007979804F7BFF7A1A79818047900179E0D9
:10169700FF7E00C3748094804019D3EF9407748051
:1016A7009480500F7BFF7A1A798D7D027C007F062C
:1016B700121795900179E0FF7E00C3940874809417
:1016C700804019D3EF940F74809480500F7BFF7A7A
:0D16D7001A799D7D027C007F061217952276
:1000A6000203C7E86480F8E933E83360110460F0BE
:1000B600ED33EC337009E8FCE9FDEAFEEBFF2204C0
:1000C60060DED3EB9FEA9EE99DE8C2E78CF0C2F7BB
:1000D60095F0400CE8CCF8E9CDF9EACEFAEBCFFB87
:1000E60012039285D0F05804700320D5B3E804704B
:1000F600075002B2D50203D192D5EC0460F7E4CCE6
:10010600C0E0C398F8603B94186008400DD0E0FB4F
:100116000203A9E4FBFAC9FC8028E830E406E4C936
:10012600FBE4CAFCE830E305E4C9CACBFCE85407A3
:100136006010F8C3E913F9EA13FAEB13FBEC13FCAE
:10014600D8F130F52FC3E49CFCEF9BFFEE9AFEED51
:1001560099FDD0E0FBEF4E4D4C701222DB030203FB
:10016600CEEC2CFCEF33FFEE33FEED33FDED30E746
:10017600EB0203A9EF2BFFEE3AFEED39FDD0E0FBD3
:1001860050130BBB00030203D1ED13FDEE13FEEF7C
:0801960013FFEC13FC0203A9A6
:10019E00EC4D6011E8497017ED33EC3304600DE45B
:1001AE00FCFFFEFD22E933E8330470F80203C712A8
:1001BE00039258046009E4CC2481500628500902A9
:1001CE0003D12840030203CEC0E0EB4A7044B9804D
:1001DE0006D0E0FB0203BDEF4E701CBD8008EBFFA6
:1001EE00EAFEE9FD80EBE98DF0A4FEE5F002028760
:1001FE00E9CDF9EAFEEBFFEF89F0A4FCE5F0CE893C
:10020E00F0A42EFFE435F0CD89F0A42DFEE435F0F8
:10021E008067EF4E7005BD80D780C3EF8BF0A4AC26
:10022E00F0EE8BF0A42CFCE435F0F8EF8AF0A42C61
:10023E00E5F038FCE433CB8DF0A42CFCE5F03BF874
:10024E00EE8AF0A42CFCE5F038F8E433CF89F0A464
:10025E002CFCE5F038CF3400CE89F0A42FFFE5F06A
:10026E003EFEE433C98DF0A42EFEE5F039CD8AF0C2
:10027E00A42FFFE5F03EFEE43DFD33D0E0FB50073A
:10028E000BBB000F0203D1EC2CFCEF33FFEE33FE61
:06029E00ED33FD0203A98F
:1002A40074F8CC6480CCC86480C8F58204604FC301
:1002B400EB9FF5F0EA9E42F0E99D42F0E89C45F0A0
:1002C400603C501DE5825FFFE582D313CB5BCBF42A
:1002D4002B5582FB50280ABA002409B90020088053
:1002E4001DE5825BFBE582D313CF5FCFF4C3132FED
:1002F4005582FF50090EBE00050DBD00010CC3EB75
:100304009FF5F0EA9E42F0E99D42F0E89C45F060DA
:0903140007CC4820E701B3EC22FC
:10031D0075F020800E75F010800575F0087D007E5B
:10032D00007F003392D530D50312069CEC3340107C
:10033D00EF33FFEE33FEED33FDEC33FCD5F0ED2264
:0E034D00E5F0247EA2D513CC92E7CDCEFF22A0
:10035B00EDD2E7CD33EC3392D524814006E4FFFE9A
:10036B00FDFC22FCE4CFCECDCC24E0501174FF80F9
:10037B00EDC3CC13CCCD13CDCE13CECF13CF047096
:07038B00F030D5DE02069CF4
:100ECF0090017F1206D6E4FFFE7D807C3F90017F6C
:100EDF00E0F8A3E0F9A3E0FAA3E0FB1202A4700686
:100EEF0090017F02102990017FE0FCA3E0FDA3E0B9
:100EFF00FEA3E0FF1203DCFBA3E0FCA3E0FDA3E0F5
:100F0F00FEA3E0FF1203DCFFB40108E4FFFE7D80C7
:100F1F007C3F22EF64046029EB64046024EBB4018E
:100F2F0030E4FFFEFDFC900183E0F8A3E0F9A3E0BD
:100F3F00FAA3E0FB1202A460084006E4FFFEFDFCEA
:100F4F00229001831206E2FFFFFFFF900183021040
:100F5F0029E4900187F0A3F0FFFEFDFC90017FE0F4
:100F6F00F8A3E0F9A3E0FAA3E0FB1202A4505F900C
:100F7F000183E0FCA3E0FDA3E0FEA3E0FF12035B0F
:100F8F00900187EEF0A3EFF0FDCCEECCEC12032234
:100F9F00C8ECC8C9EDC9CAEECACBEFCB900183E04C
:100FAF00FCA3E0FDA3E0FEA3E0FF1200A9E4FBFA1F
:100FBF00F9F81202A4708A90017FE0FCA3E0FDA370
:100FCF00E0FEA3E0FF1203F690017F1206D6900118
:100FDF007FE0FCA3E0FDA3E0FEA3E0FF1211B890B9
:100FEF000183E0F8A3E0F9A3E0FAA3E0FB12019E6E
:100FFF001218719001831206D6900188E030E01725
:10100F00900183E0FCA3E0FDA3E0FEA3E0FF120349
:10101F00F69001831206D6900183E0FCA3E0FDA3B6
:06102F00E0FEA3E0FF2239
:10039200E9D2E7C933E833F892D5EDD2E7CD33ECB1
:0703A20033FC5002B2D5222A
:1003A900EC30E7100FBF000C0EBE00080DBD0004B5
:1003B9000BEB6014A2D5EB13FCED92E7FD2274FF61
:1003C900FCFDFEFF22E480F8A2D574FF13FC7D80BA
:0303D900E480EFCE
:1003DC00ED33EC33601004700FED547F7005740234
:0A03EC0092E0227404220422E422AD
:1003F600ED33EC33600A047003BD8004ECB2E7FC15
:0104060022D3
:1018390033DA929E35B16011377FE5FE392184890B
:101849003AAEC3FF3C1D955B3D6358473E75FDF0BD
:101859003F3172183F800000C2D50203D10203C78D
:10186900BD80FA50F30203CEED33EC330460F17B13
:101879003B7AAA79B8783F12019EED33EC3392D5C1
:10188900247B5011A2D570DB500BED448024045009
:1018990004A2D580CEEFFBEEFAEDF9ECF812035B6A
:1018A900EFF582F404FC1203271200ADC0829018F0
:1018B9003974091204B6ED33CC33D0F092D525F042
:0A18C900A2D57001C313CC13FD2259
:101184003E9248DA3ECCCCCD3F2AAAAB40000000C8
:101194003F8000003F9837F03FB504F33FD744FC4D
:1011A4003E3172173EB172173F0515913EDE5BD991
:1011B400D2028002C202EDD2E7F8CD33EC330470E0
:1011C4000BBD800592D50203D10203C740FBD314A3
:1011D40060F2F5F07C3FEE7A00C39496C8948B409D
:1011E400230AC89469C8941A401A0AC89468C8940F
:1011F4001F40110AC8945AC89425400805F07A0083
:10120400CDC2E7CDC0F09001891206D6EA2323C0EF
:10121400E02494F582E43411F5831206C61200AD7D
:10122400ECC0E0EDC0E0EEC0E0EFC0E01206AA9032
:1012340001891206BA1200A9D0E0FBD0E0FAD0E08E
:10124400F9D0E0B2E7F812040A9001891206D690A8
:10125400118474031204A79001891206BA12019E24
:10126400D0E0600F24A0F582E43411F5831206C6A1
:101274001200AD9001891206D6D0E0C3947FFDE43C
:101284009400FC1203227B187A727931783F1201A0
:101294009E9001891206BA1200AD30020B7BD97AF6
:0912A4005B79DE783E12019E2206
:100407000203D1EC5D046005E8590470030203C7D9
:10041700120392580460F6EC4860F2EC7004FDFE9B
:10042700FF22C860DB2481C85009C39860025006C8
:100437000203CE9850CAF582E9294B4A7005AB8270
:100447000203BD75F0007C1A7880C3EF9BEE9AED2E
:1004570099400DC3EF9BFFEE9AFEED99FDE842F040
:10046700DC23ACF0D0E0FFD0E0FED0E0FDAB822093
:10047700E7101BEB60BAEC2CFCEF33FFEE33FEED1D
:1004870033FD0203A9E803F830E705C0F075F00073
:10049700EF2FFFEE33FEED33FD40B830E7C280AA01
:1004A700C0E0EFFBEEFAEDF9ECF812019ED0E0F5B3
:1004B700F0EFFBEEFAEDF9ECF81206AAA3A3A3A35B
:1004C700E8C0E0E9C0E0EAC0E0EBC0E0C0F012013C
:1004D7009E1206C6A3A3A3A31200ADD0F0D0E0FBE3
:0D04E700D0E0FAD0E0F9D0E0F8D5F0D42252
:10197100020003E493A3F8E493A34003F68001F289
:1019810008DFF48029E493A3F85407240CC8C33377
:10199100C4540F4420C8834004F456800146F6DF46
:1019A100E4800B01020408102040809016E4E47EDC
:1019B100019360BCA3FF543F30E509541FFEE4933B
:1019C100A360010ECF54C025E060A840B8E493A302
:1019D100FAE493A3F8E493A3C8C582C8CAC583CA2D
:1019E100F0A3C8C582C8CAC583CADFE9DEE780BEE5
:01178900005F
:1004F400E709F608DFFA8046E709F208DFFA803EEA
:1005040088828C83E709F0A3DFFA8032E309F608D6
:10051400DFFA8078E309F208DFFA807088828C833E
:10052400E309F0A3DFFA806489828A83E0A3F608F2
:10053400DFFA805889828A83E0A3F208DFFA804CCC
:1005440080D280FA80C680D4806980F280338010A3
:1005540080A680EA809A80A880DA80E280CA80330C
:1005640089828A83ECFAE493A3C8C582C8CCC58384
:10057400CCF0A3C8C582C8CCC583CCDFE9DEE78054
:100584000D89828A83E493A3F608DFF9ECFAA9F0D3
:10059400EDFB2289828A83ECFAE0A3C8C582C8CC29
:1005A400C583CCF0A3C8C582C8CCC583CCDFEADE42
:1005B400E880DB89828A83E493A3F208DFF980CCA4
:1005C40088F0EF60010E4E60C388F0ED2402B4049D
:1005D4000050B9F582EB2402B4040050AF23234544
:0605E40082239005447320
:1005EA00BB010689828A83E0225002E722BBFE020F
:0905FA00E32289828A83E4932242
:10060300BB010CE58229F582E5833AF583E02250AC
:1006130006E92582F8E622BBFE06E92582F8E222F6
:0D062300E58229F582E5833AF583E4932210
:10063000BB010689828A83F0225002F722BBFE01A9
:02064000F322A3
:10064200F8BB010DE58229F582E5833AF583E8F0EE
:10065200225006E92582C8F622BBFE05E92582C89A
:02066200F22282
:10066400BB0110E58229F582E5833AF583E0F5F0D4
:10067400A3E0225009E92582F886F008E622BBFEB1
:100684000AE92582F8E2F5F008E222E5832AF583F7
:08069400E993F5F0A3E99322BC
:0E069C00C3E49FFFE49EFEE49DFDE49CFC226F
:1006AA00E493FC740193FD740293FE740393FF2296
:0C06BA00E0F8A3E0F9A3E0FAA3E0FB22C3
:1006C600E493F8740193F9740293FA740393FB228A
:0C06D600ECF0A3EDF0A3EEF0A3EFF02297
:1006E200A8828583F0D083D0821206F91206F9120D
:1006F20006F91206F9E473E493A3C583C5F0C58332
:10070200C8C582C8F0A3C583C5F0C583C8C582C861
:0107120022C4
:10071300EF4E6012EF60010EEDBB010B89828A83FD
:10072300F0A3DFFCDEFA2289F05007F709DFFCA90A
:0C073300F022BBFEFCF309DFFCA9F02261
:101CD400900183EEF0A3EFF012073F900183EEF042
:101CE400A3EFF0121490900185EEF0A3EFF04E7084
:101CF40003FEFF22900183E0FEA3E0FF7D00A3E04A
:101D0400FAA3E0F97B01120713900185E0FEA3E03A
:021D1400FF22AC
:10073F00EF8DF0A4A8F0CF8CF0A428CE8DF0A42ECE
:02074F00FE2288
:10149000900187EEF0A3EFF0A37401F0A37497F02E
:1014A000900189E0FEA3E0F5828E83E0FEA3E0FFD9
:1014B0004E7003FEFF228F828E83A3A3E0FCA3E085
:1014C000FD900187E0FAA3E0FBC3ED9BEC9A500A84
:1014D000900189EEF0A3EFF080C68F828E83A3A3E4
:1014E000E0FCA3E0C39BFDEC9AFC90018BF0A3ED24
:1014F000F0C39410EC940050178F828E83E0FCA30D
:10150000E0FD900189E0FAA3E0F5828A83EC804552
:1015100090018CE024FCF090018BE034FFF0E0FDC2
:10152000A3E08F828E83A3A3CDF0A3EDF0EF24047C
:10153000FFE43EFE90018CE02FFF90018BE03EFE29
:10154000900189F0A3EFF0900187E0FDA3E08F8286
:101550008E83A3A3CDF0A3EDF0EF2404FFE43EFEC1
:011560002268
:0B178A00480197000000000000000074
:101D5200EF4E7008FE7F01ED1D70011C900197EEA1
:101D6200F0A3EFF0A3ECF0A3EDF0900197E0FEA357
:101D7200E0FFF5828E83E4F0A3F0ED24FCFDEC3469
:0C1D8200FF8F828E83A3A3F0A3EDF0225C
:00000001FF
