:030000000203D325
:0C03D300787FE4F6D8FD75810702029CDB
:10009300D3EF9400EE940040147D6E7C00ED1D7050
:0D00A300011CED4C70F7EF1F70E61E80E3AE
:0100B000222D
:0603DF0012037F0200BEC4
:10037F0075930075940075910075920075950075D1
:10038F00960075B10075B20075B30075B40075C9EC
:05039F000075CA0022F8
:10029C001203DF7B207A007D107C00E4FF1202F653
:1002AC007B307A007D107C007F011202F67B407A55
:1002BC00007D107C007F021202F67B607A007D10BC
:1002CC007C007F031202F67B807A007D107C007F1D
:1002DC00041202F67B907A007D107C007F051202DE
:0A02EC00F67FD07E0712009380F722
:1003A40043BA807BF27AFF8B828A83EFF07BF0EC96
:1003B4008B82F00BBB00010A8B828A83EDF053BA67
:0103C4007FB9
:0103C5002215
:0501E500900009EFF09D
:1001EA0043BA80E075F010A42400FFE5F034FFADB7
:1001FA0007FC120030E5F08D828C83F00DBD000102
:10020A000C1200308D828C83F00DBD00010C900021
:10021A000212005BE5F08D828C83F00DBD00010CAB
:10022A0090000212005B8D828C83F00DBD00010CE0
:10023A0090000612000325E025E05404FF90000513
:10024A0012000354084FFF900008120003FE25E035
:10025A0054024FFF90000712000354014F8D828C05
:10026A0083F0900009E0FFF87401088002C333D8D4
:10027A00FCFE42F59000041200035401FDA8070891
:10028A008002C333D8FCFFEEF455F14FF5F153BAAF
:01029A007FE4
:01029B002240
:0802F600900000ECF0A3EDF014
:1002FE0043BA80EF75F010A42400FFE5F034FFAD93
:10030E0007FC900000E08D828C83F00DBD00010C87
:10031E00900000A3E08D828C83F00DBD00010CEAED
:10032E008D828C83F00DBD00010C8D828C83EBF0E1
:03033E0053BA7F30
:010341002299
:1000BE00E4900005F0900004F0900006F0A3F0A389
:1000CE00F0900000F0A37440F0A3E4F0A374C0F02D
:1000DE007B017A007900E4FF1201E553B17F53B240
:1000EE007FE4900005F0900004F0900006F0A3F07D
:1000FE00A3F0900000F0A37440F0A3E4F0A374C04A
:10010E00F07F011201E55395FD5396FDE490000535
:10011E00F0900004F0900006F0A3F0A3F090000021
:10012E00F0A37440F0A3E4F0A374C0F07F021201B8
:10013E00E55395FB5396FBE4900005F0900004F018
:10014E00900006F0A3F0A3F0900000F0A37440F02E
:10015E00A3E4F0A374C0F07F031201E55395F753A7
:10016E0096F79000057408F0E4900004F0900006F5
:10017E00F0A3F0A3F0900000F0A37440F0A3E4F01D
:10018E00A374C0F07F041201E553937F53947F90C4
:10019E0000057408F0E4900004F090000604F0A34B
:1001AE00F0E4A3F0900000F0A37440F0A3E4F0A3F9
:1001BE0074C0F07F051201E55393BF5394BF75D6FB
:1001CE00FF75D7EA758E147D007C017F101203A493
:0601DE0043F58053F5BF5C
:0101E40022F8
:0300B30002034203
:10034200C0E0E5F630E60353F6BFE5F630E00353CE
:10035200F6FEE5F630E10353F6FDE5F630E203532F
:10036200F6FBE5F630E30353F6F7E5F630E4035324
:0D037200F6EFE5F630E50353F6DFD0E0329C
:0300BB000203C677
:0D03C600C0E0E5F730E00353F7FED0E03271
:10000300BB010CE58229F582E5833AF583E02250B2
:1000130006E92582F8E622BBFE06E92582F8E222FC
:0D002300E58229F582E5833AF583E4932216
:10003000BB010A89828A83E0F5F0A3E0225006879B
:10004000F009E71922BBFE07E3F5F009E31922895D
:0B005000828A83E493F5F07401932290
:10005B00BB0110E58229F582E5833AF583E0F5F0E3
:10006B00A3E0225009E92582F886F008E622BBFEC0
:10007B000AE92582F8E2F5F008E222E5832AF58306
:08008B00E993F5F0A3E99322CB
:00000001FF
