:0300000002000EED
:0C000E00787FE4F6D8FD7581200204CA5A
:1007B200D3EF9400EE940040147D6E7C00ED1D702A
:0D07C200011CED4C70F7EF1F70E61E80E388
:0107CF002207
:10073C001207687F021206479001127401F0A3742D
:10074C0001F0A37400F07B017A0079001206D5E465
:0C075C00900122F0A3F012078D020003B0
:1007680075930075940075910075920075950075E4
:10077800960075B10075B20075B30075B40075C9FF
:050788000075CA00220B
:1007D0005465737420203131313131313131310A76
:0E07E0000054656D3A000A00000000000000A1
:1004CA00900101E4F0A37410F0E4A3F0A3F0A3F008
:1004DA00A3F0A3F0A3F078097C017D017BFF7A07E2
:1004EA0079E8FE7F0612035F12073C7F0A7E00123C
:1004FA0007B2D2AF7BFF7A0779D012082490012283
:10050A00E0B403F9A3E0B4E8F4C28CE4900122F069
:10051A00A3F0900103F0A3F0A3F0A3F0900101E08F
:10052A00FEA3E0FFC3900106E09F900105E09E5004
:10053A0021E4FF12070E900104E02FF0900103E07E
:10054A003EF0900106E004F070D2900105E004F05C
:10055A0080CA900103E0FEA3E0FF900101E0FCA342
:10056A00E0FD120411A3EEF0A3EFF07B017A01790A
:10057A0009900114EEF0A3EFF07D067C001200262C
:10058A007BFF7A0779E11208247B017A0179091243
:10059A0008247BFF7A0779E61208247E007F067D0D
:0F05AA00007B017A01790912049ED28C020507A9
:1007EE00AD07AC06538EEF538EF7438E04ECF5D661
:0B07FE00AF058FD753AFFB438E1022D6
:10064700EF6402700C438E017FE87EFF1207EE8095
:100657001BC28E538EFE438E405389BF5389CF757D
:100667008DFF758BE8C2AB538FFDD28EE598543F53
:100677004440F598D2ACD29C53A23F7E017F007DC7
:10068700007B017A00790012049EC200E490010009
:02069700F0224F
:100824001203856010D200F5992000FD740129F9A6
:06083400E43AFA80EB2219
:1006D50090010FEBF0A3EAF0A3E9F0A3E0FBA3E0A0
:1006E500FAA3E0F9E41203CB900112E0FBA3E0FAD0
:1006F500A3E0F9120385FF7E007D0090010FE0FB6A
:09070500A3E0FAA3E0F902049E4E
:0300230002069939
:10069900C0E0C083C082C0D0309821C298900100C8
:1006A900E02400F582E43400F583E599F090010037
:1006B900E004F0C3748094814002E4F0309904C2EC
:0C06C90099C200D0D0D082D083D0E032A3
:1005B900EFD394047480948040037F0122EF707B11
:1005C900120385FED394037480948040037F022232
:1005D900C28CC2A9C2B95389F0538E7F538FFE9042
:1005E900000212039E64017002D2A9900001120355
:1005F9009E64017002D2B9EE428990000312039EF3
:10060900FF7E007003438E80EF64024E70034389BE
:100619000490000412039E64017003438F0190004B
:1006290005120466FDACF0ECF58C8D8A900007127A
:0E063900039E64017002D28C7F00227F022299
:10078D00E490010FF0A3F0A304F0E4A3F0A3F0A311
:10079D0074D4F0A374CDF0A37401F0FB7A01790F3A
:0507AD00E4FF0205B9A4
:03000B00020809DF
:10080900C0E0C083C082900123E004F0700690012B
:0B08190022E004F0D082D083D0E03257
:07000300759D0175BCE022B0
:10070E00E4F5BDF5BEE5BC54E044084FF5BC000071
:10071E000000E5BC541060FA53BCEFAFBDEF75F0AE
:0E072E0004A4FFAEF0E5BE5403FDEF4DFF2224
:0B00260090010FEBF0A3EAF0A3E9F05B
:10003100E4900116F0A3F0A3F0A3F0A3F0A3F0A3C2
:10004100F0A3F0A3F0A3F0A3F0A3F0900114E0FE5D
:10005100A3E0FFD39400EE94004010EF940AEE94D5
:10006100005008900120E4F0A304F0C3EF940AEEDD
:1000710094004011EF9464EE94005009900120E443
:10008100F0A37402F0C3EF9464EE94004011EF9476
:10009100E8EE94035009900120E4F0A37403F0C347
:1000A100EF94E8EE94034011EF9410EE9427500979
:1000B100900120E4F0A37404F0AE04AF0590012098
:1000C100E0FCA3E0FDD39FEC9E400302028EED9481
:1000D10002EC94005003020218E4900118F0A3F01E
:1000E100900121E024FEFF900120E034FFFEC39047
:1000F1000119E09F900118E09E40030201B49001B4
:100101001EE4F0A304F0E490011AF0A3F0900121A1
:10011100E024FFFF900120E034FFFEC390011BE0CB
:100121009F90011AE09E502790011EE0FEA3E0FF80
:100131007C007D0A1203FF90011EEEF0A3EFF09008
:10014100011BE004F070C690011AE004F080BE903B
:10015100011EE0FCA3E0FD900114E0FEA3E0FF120C
:10016100041190011CEEF0A3EFF0A3E0FCA3E0FD6D
:100171001203FFC3900115E09FF0900114E09EF07F
:1001810090011CA3E02430FF90010FE0FBA3E0FAF3
:10019100A3E0F9900118E0FCA3E0F5828C83EF1253
:1001A10003DD900119E004F07006900118E004F0FD
:1001B1000200E1900114E0FEA3E0FF7C007D0A1241
:1001C1000411EF2430FF90010FE0FBA3E0FAA3E05C
:1001D100F9900121E024FEFD900120E034FF8D82A1
:1001E100F583EF1203DD900114E0FEA3E0FF7C0034
:1001F1007D0A120411ED2430FF90010FE0FBA3E012
:10020100FAA3E0F9900121E024FFFD900120E03400
:10021100FF8D82F583804F900120E07004A3E0649C
:10022100027047900114E0FEA3E0FF7C007D0A12FA
:100231000411EF2430FF90010FE0FBA3E0FAA3E0EB
:10024100F9EF1203CB900114E0FEA3E0FF7C007DE7
:100251000A120411ED2430FF90010FE0FBA3E0FA34
:10026100A3E0F9900001EF0203DD900120E07004AA
:10027100A3E064017017900114A3E02430FF900102
:0D0281000FE0FBA3E0FAA3E0F9EF1203CBBE
:01028E00224D
:10028F00E709F608DFFA8046E709F208DFFA803E51
:10029F0088828C83E709F0A3DFFA8032E309F6083E
:1002AF00DFFA8078E309F208DFFA807088828C83A6
:1002BF00E309F0A3DFFA806489828A83E0A3F6085A
:1002CF00DFFA805889828A83E0A3F208DFFA804C34
:1002DF0080D280FA80C680D4806980F2803380100B
:1002EF0080A680EA809A80A880DA80E280CA803374
:1002FF0089828A83ECFAE493A3C8C582C8CCC583EC
:10030F00CCF0A3C8C582C8CCC583CCDFE9DEE780BB
:10031F000D89828A83E493A3F608DFF9ECFAA9F03A
:10032F00EDFB2289828A83ECFAE0A3C8C582C8CC90
:10033F00C583CCF0A3C8C582C8CCC583CCDFEADEA9
:10034F00E880DB89828A83E493A3F208DFF980CC0B
:10035F0088F0EF60010E4E60C388F0ED2402B40404
:10036F000050B9F582EB2402B4040050AF232345AB
:06037F0082239002DF73EF
:10038500BB010689828A83E0225002E722BBFE0276
:09039500E32289828A83E49322A9
:10039E00BB010CE58229F582E5833AF583E0225014
:1003AE0006E92582F8E622BBFE06E92582F8E2225E
:0D03BE00E58229F582E5833AF583E4932278
:1003CB00BB010689828A83F0225002F722BBFE0111
:0203DB00F3220B
:1003DD00F8BB010DE58229F582E5833AF583E8F056
:1003ED00225006E92582C8F622BBFE05E92582C802
:0203FD00F222EA
:1003FF00EF8DF0A4A8F0CF8CF0A428CE8DF0A42E12
:02040F00FE22CB
:10041100BC000BBE0029EF8DF084FFADF022E4CCCF
:10042100F875F008EF2FFFEE33FEEC33FCEE9DEC98
:10043100984005FCEE9DFE0FD5F0E9E4CEFD22EDDE
:10044100F8F5F0EE8420D21CFEADF075F008EF2F28
:10045100FFED33FD4007985006D5F0F222C398FD19
:050461000FD5F0EA22B6
:10046600BB0110E58229F582E5833AF583E0F5F0D4
:10047600A3E0225009E92582F886F008E622BBFEB1
:100486000AE92582F8E2F5F008E222E5832AF583F7
:08049600E993F5F0A3E99322BC
:10049E00EF4E6012EF60010EEDBB010B89828A8375
:1004AE00F0A3DFFCDEFA2289F05007F709DFFCA982
:0C04BE00F022BBFEFCF309DFFCA9F022D9
:00000001FF
