:0300000002000EED
:0C000E00787FE4F6D8FD75810702007CC5
:10004300D3EF9400EE940040147D6E7C00ED1D70A0
:0D005300011CED4C70F7EF1F70E61E80E3FE
:01006000227D
:09008E0012001E1200660204EFCC
:10001E007593007594007591007592007595007535
:10002E00960075B10075B20075B30075B40075C950
:05003E000075CA00225C
:10030E00EFD394057480948040037F0122120581FF
:10031E00FED394037480948040037F0222EF7044D6
:10032E00EE700B90000112059AF45293529412053E
:10033E00816401700B90000112059A4293F452945D
:10034E00120581FE6402700A90000112059A429312
:10035E004294EE6403700D90000112059AFEF45261
:10036E0093EE4294EF64017046120581FE700B907D
:10037E00000112059AF452915292EE6401700B90A4
:10038E00000112059A4291F4529212058164027094
:10039E000A90000112059A4291429212058164035D
:1003AE00700D90000112059AFEF45291EE4292EFFA
:1003BE0064027046120581FE700B90000112059AC0
:1003CE00F452955296EE6401700B90000112059A4C
:1003DE004295F452961205816402700A9000011241
:1003EE00059A429542961205816403700D900001A4
:1003FE0012059AFEF45295EE4296EF640370461281
:10040E000581FE700B90000112059AF452B152B2A2
:10041E00EE6401700B90000112059A42B1F452B2D3
:10042E001205816402700A90000112059A42B142CF
:10043E00B21205816403700D90000112059AFEF44C
:10044E0052B1EE42B2EF64047046120581FE700B9B
:10045E0090000112059AF452B352B4EE6401700B7F
:10046E0090000112059A42B3F452B412058164024F
:10047E00700A90000112059A42B342B412058164CB
:10048E0003700D90000112059AFEF452B3EE42B4C1
:10049E00EF64057049120581FF7E00700B9000011C
:1004AE0012059AF452C952CAEF64014E700B9000B5
:1004BE000112059A42C9F452CA1205816402700AE9
:1004CE0090000112059A42C942CA12058164037056
:1004DE000D90000112059AFFF452C9EF42CA7F0037
:0104EE0022EB
:100066009000017430F09000007403F07B017A0078
:060076007900FF02030EF9
:10007C0012008EC2CDD2AFB2CD7FE87E0312004308
:02008C0080F5FD
:1000A600AD07EDD394047480948040037F0122ED64
:1000B600600302013A120581FED394037480948092
:1000C60040037F0222C28CC2A9C2B95389F0538E63
:1000D6007F538FFE90000212059A64017002D2A926
:1000E60090000112059A64017002D2B9EE4289901D
:1000F600000312059AFF7E007003438E80EF6402B0
:100106004E700343890490000412059A640170033B
:10011600438F019000051205C7E5F0F58C900005A8
:100126001205C7F58A90000712059A64017002D27B
:100136008C7F0022ED640160030201C4120581FE7A
:10014600C394037480948040037F0222C28EC2ABA4
:10015600C2BB53890F538EBF538FFD900002120509
:100166009A64017002D2AB90000112059A64017084
:1001760002D2BBEEC454F0428990000312059AFFE6
:100186007E007003438E40EF64024E700343894045
:1001960090000412059A64017003438F02900005D3
:1001A6001205C7E5F0F58D9000051205C7F58B9091
:1001B600000712059A64017002D28E7F0022ED6458
:1001C60002706A90000312059AFED394027480941A
:1001D6008040037F0222538EE353AFFB538FFB9085
:1001E600000212059A6401700343AF04EEFF7E001D
:1001F6007003438E04EF64024E7003438E08900032
:100206000412059A64017003438F049000051205D9
:10021600C7E5F0F5D69000051205C7F5D79000079B
:1002260012059A64017003438E107F0022ED640369
:10023600706790000312059AFED39402748094802E
:1002460040037F022253D1F053AFDF900002120524
:100256009A6401700343AF20EEFF7E00700343D122
:1002660002EF64024E700343D10690000412059A11
:100276006401700343D1019000051205C7E5F0F54E
:10028600D49000051205C7F5D590000712059A64AB
:1002960001700343D1087F0022ED6404706790006B
:1002A6000312059AFD7C00D3940274809480400367
:1002B6007F022253D10F53AFBF90000212059A64FA
:1002C60001700343AF40ED4C700343D1209000030F
:1002D60012059A6402700343D16090000412059AD5
:1002E6006401700343D1109000051205C7FDACF000
:1002F600ECF5D28DD390000712059A640170034382
:08030600D1807F00227F02225A
:1004EF00E4900000F0A3F0A304F0E4A3F0A304F061
:1004FF00A37428F0A3E4F0A304F0FB7A007900E4DE
:10050F00FF1200A6E4900000F0A3F0A304F0E4A310
:10051F00F0A304F0A374EAF0A37467F0A37401F0DE
:10052F00FF1200A69000027401F0A3F0E4A3F0A361
:10053F0074FCF0A37467F0A37401F07F021200A69D
:10054F009000027401F0A3F0A3F0A374EEF0A3E403
:10055F00F0A304F07F031200A6E4900002F0A304BE
:10056F00F0A3F0A374DCF0A3E4F0A304F07F040283
:02057F0000A6D4
:03000B00020003ED
:03000300B2903286
:03001B00020006DA
:03000600B2913282
:0300630002009701
:03009700B29232F0
:03009B0002009EC2
:03009E00B29332E8
:0300A3000205FF54
:0305FF00B2943281
:10058100BB010689828A83E0225002E722BBFE0278
:09059100E32289828A83E49322AB
:10059A00BB010CE58229F582E5833AF583E0225016
:1005AA0006E92582F8E622BBFE06E92582F8E22260
:0D05BA00E58229F582E5833AF583E493227A
:1005C700BB0110E58229F582E5833AF583E0F5F072
:1005D700A3E0225009E92582F886F008E622BBFE4F
:1005E7000AE92582F8E2F5F008E222E5832AF58395
:0805F700E993F5F0A3E993225A
:00000001FF
