:0300000002066491
:0C066400787FE4F6D8FD7581070204FDE4
:1000030000000000000000000000000000000000ED
:1000130000000000000000000000000000000000DD
:10002300000202FAFAAAAAFFFFAAAAFAFA02020037
:10003300004272723A7A424B5B52626213776600F5
:10004300203C1CFFFFB0B424243F3FE4E4242420DD
:10005300020203FFFF0001051D59C1FF7F010101DA
:10006300000000F8F8484C4F4B4A4848F8F80000A5
:10007300000000FFFF44444444444444FFFF0000A5
:10008300202424E4E42424243010FFFF10F0F000A3
:10009300081C1F0B0C0D4F6E341C0F23607F3F0099
:1000A30080C060F8FF070200FFFFE0703C1C0800FF
:1000B3000000007F7F0406033F7F404040787800C4
:1000C300000000000000000000000000000000002D
:1000D300000000000000000000000000000000001D
:1000E300000000000000000000000000000000000D
:1000F30000000000000000000000000000000000FD
:1001030010218670007E4A4A4A4A4A7E0000000057
:1001130002FE01407F41417F41417F41417F4000D9
:100123000000FC042424FCA5A6A4FC24242404002D
:1001330080601F808042462A12122A2642C0400055
:10014300080808FF8848009848280A2C48D808005F
:100153000242817F0000404242427E4242424000CE
:1001630000504F4A48FF48484800FC0000FF000089
:1001730000003F0101FF21613F000F40807F00002D
:1001830000908CA4A4A4A5A6A4A4A4A4948C040065
:100193000080402018070000003F404040700000EE
:1001A300000474D4FFD47404100CB744B40C0400DA
:1001B3000042437A4342437E4B4B4A4A4243010047
:1001C300080808080808F94A4C4848C808080800FD
:1001D300404020100C0300002040403F000000007E
:1001E30000202C246474ADA6E43424242C240000C1
:1001F3000024242515150DFE040D17142464240072
:10020300000000F848484C4B4A484848F8000000B2
:10021300000000FF4444444444444444FF000000BD
:10022300202424E4242424201010FF1010F00000C4
:10023300081C0B080C054E24100C0320403F000043
:10024300080808FF8848009848280A2C48D808005E
:100253000242817F0000404242427E4242424000CD
:1002630000504F4A48FF48484800FC0000FF000088
:1002730000003F0101FF21613F000F40807F00002C
:100283000807FAAAAEAAAAA8ACABAAFE0A02020001
:1002930008088B6A1E0A0A0A0AFE0A0B08080800E5
:1002A300106001C63000101010FF10101010000075
:1002B3000404FE01004161514D43414151E10100FC
:1002C3004041CE04008040BE828282BEC0404000D6
:1002D30000007F20908040432C10102C43C040002E
:1002E30020212EE4000020202020FF2020202000B9
:1002F3000000007F201008000000FF000000000045
:100303000000F848484848FF48484848F8000000BB
:1003130000000F040404043F444444444F4070006D
:1003230000000202020202E2120A0602008000003A
:10033300010101010141817F01010101010101006D
:100343000020202222E2222222E222222220200056
:10035300004020100C030000003F4040404070006C
:100363004020F80F82601E1410FF101010100000C0
:100373000000FF000101010101FF01010101010072
:10038300000000007E4848484848484848CC0800D8
:10039300000404040404040404244644201F00004D
:1003A300849494FF949480242424FC121312000058
:1003B300201806FF021C0A0202023F41414171005C
:1003C3001010D0FE509000101010D0FE101010002E
:1003D300080601FF000110080443807F00000000AD
:1003E3009088A7A2A6BAA2F8A7A2A6BAA282800062
:1003F30000040404040C340444847F040404000053
:1004FD001206827B017A00E4FDFC7F1812049C7BBE
:10050D00027A00E4FDFC7F2812049C7B037A00E450
:10051D00FDFC7F3812049C7B047A00E4FDFC7F48CF
:10052D0012049C7B057A00E4FDFC7F5812049C7F2D
:0B053D00A07E0F12060C1205A180B872
:09067000D2C1D2A2C2A2C2C12271
:09067900C2C1C2A2D2C1D2A22268
:07054800AD071206707F7879
:10054F00E4FEEEC39408748094805015EF30E704F6
:10055F00D2A28002C2A2D2C1C2C1EF25E0FF0E809B
:07056F00E1D2A2D2C1C2C11A
:010576002262
:0D062A0074032BF58274003AF583E493FF0E
:100637001205487F4012054FAF0512054F02067994
:0D06470024B0FF1206547F011206547F10EC
:10065400120548E4FF12054FAF0512054F02067953
:1005EE00AC07ED24B0FF120654EC54F0C4540F4483
:0E05FE0010FF120654EC540F4401FF02065485
:02057700AC07CF
:10057900E4FBEBC3940874809480501BEB1206478C
:10058900E4FAEAC39480748094805008AF04120698
:07059900370A80EE0B80DB46
:0105A0002238
:1005A100E4FCECC3940874809480501BEC12064761
:1005B100E4FBEBC39480748094805008E4FF12063E
:0705C100370B80EE0C80DB1C
:0105C8002210
:100403007FF47E0112060C7FAE120654E4FF12063F
:100413004F7F401206547F811206547FCF12065439
:100423007FA11206547FC81206547FA61206547F7A
:10043300A81206547F3F1206547FD3120654E4FFDA
:100443001206547FD51206547F801206547FD912A8
:1004530006547FF11206547FDA1206547F121206F5
:10046300547FDB1206547F401206547F2012065439
:100473007F021206547F8D1206547F141206547F96
:10048300A41206547FA61206547FAF120654E4FF4B
:09049300120577E4FDFF0205EEFD
:0A049C00900000ECF0A3EDF0A907BA
:1004A600E4FCAE02EB7805C333CE33CED8F9FBAA13
:1004B60006AF01900000A3E0FD1205EEE4FCECC3DC
:1004C600941074809480500B12062A0BBB00010A0C
:1004D6000C80EBAF01900000A3E004FD1205EEE4F2
:1004E600FCECC3941074809480500B12062A0BBB4C
:0604F60000010A0C80EB7E
:0104FC0022DD
:060682001205C902040389
:1005C9007593007594007591007592007595007585
:1005D900960075B10075B20075B30075B40075C9A0
:0505E9000075CA0022AC
:10060C00D3EF9400EE940040147D6E7C00ED1D70D1
:0D061C00011CED4C70F7EF1F70E61E80E32F
:0106290022AE
:00000001FF
